:020000040800F2
:1000000000000220F9240008ED230008EF23000877
:10001000F1230008F3230008F52300080000000086
:100020000000000000000000000000005143000834
:10003000F723000800000000F143000855440008C1
:1000400049250008492500084925000849250008D8
:1000500049250008492500084925000849250008C8
:1000600049250008492500084925000849250008B8
:10007000F9230008492500084925000849250008FA
:100080004925000849250008492500084925000898
:100090004925000849250008492500084925000888
:1000A0004925000849250008492500084925000878
:1000B0004925000849250008492500084925000868
:1000C0004925000849250008492500084925000858
:1000D000492500080924000849250008DD1F0008FB
:1000E0004925000849250008492500084925000838
:1000F0004925000849250008492500084925000828
:100100004925000849250008492500084925000817
:100110004925000849250008192400084925000838
:1001200049250008492500084925000849250008F7
:1001300049250008492500084925000849250008E7
:1001400049250008492500084925000849250008D7
:1001500049250008492500084925000849250008C7
:1001600049250008492500084925000849250008B7
:10017000492500084925000849250008000000001D
:0801800049250008492500088B
:1001C00010B5054C237833B9044B13B10448AFF391
:1001D00000800123237010BDD8090020000000001A
:1001E00004B6000808B5034B1BB103490348AFF33D
:1001F000008008BD00000000DC09002004B60008F3
:1002000053B94AB9002908BF00281CBF4FF0FF317D
:100210004FF0FF3000F074B9ADF1080C6DE904CE79
:1002200000F006F8DDF804E0DDE9022304B07047D1
:100230002DE9F047089D04468E46002B4DD18A4299
:10024000944669D9B2FA82F252B101FA02F3C2F1CC
:10025000200120FA01F10CFA02FC41EA030E94405D
:100260004FEA1C48210CBEFBF8F61FFA8CF708FB7E
:1002700016E341EA034306FB07F199420AD91CEB56
:10028000030306F1FF3080F01F81994240F21C8188
:10029000023E63445B1AA4B2B3FBF8F008FB1033D0
:1002A00044EA034400FB07F7A7420AD91CEB040405
:1002B00000F1FF3380F00A81A74240F207816444D5
:1002C000023840EA0640E41B00261DB1D44000235A
:1002D000C5E900433146BDE8F0878B4209D9002DBE
:1002E00000F0EF800026C5E9000130463146BDE848
:1002F000F087B3FA83F6002E4AD18B4202D38242B2
:1003000000F2F980841A61EB030301209E46002D60
:10031000E0D0C5E9004EDDE702B9FFDEB2FA82F2B5
:10032000002A40F09280A1EB0C014FEA1C471FFA13
:100330008CFE0126200CB1FBF7F307FB131140EAFA
:1003400001410EFB03F0884208D91CEB010103F1C7
:10035000FF3802D2884200F2CB804346091AA4B289
:10036000B1FBF7F007FB101144EA01440EFB00FE5D
:10037000A64508D91CEB040400F1FF3102D2A645C2
:1003800000F2BB800846A4EB0E0440EA03409CE761
:10039000C6F12007B34022FA07FC4CEA030C20FA0E
:1003A00007F401FA06F31C43F9404FEA1C4900FA2E
:1003B00006F3B1FBF9F8200C1FFA8CFE09FB1811AB
:1003C00040EA014108FB0EF0884202FA06F20BD91E
:1003D0001CEB010108F1FF3A80F08880884240F26E
:1003E0008580A8F102086144091AA4B2B1FBF9F0B2
:1003F00009FB101144EA014100FB0EFE8E4508D9AD
:100400001CEB010100F1FF346CD28E456AD9023831
:10041000614440EA0840A0FB0294A1EB0E01A14216
:10042000C846A64656D353D05DB1B3EB080261EB84
:100430000E0101FA07F722FA06F3F1401F43C5E95E
:10044000007100263146BDE8F087C2F12003D84094
:100450000CFA02FC21FA03F3914001434FEA1C47D6
:100460001FFA8CFEB3FBF7F007FB10360B0C43EAC8
:10047000064300FB0EF69E4204FA02F408D91CEB78
:10048000030300F1FF382FD29E422DD90238634476
:100490009B1B89B2B3FBF7F607FB163341EA034116
:1004A00006FB0EF38B4208D91CEB010106F1FF3865
:1004B00016D28B4214D9023E6144C91A46EA00465C
:1004C00038E72E46284605E70646E3E61846F8E6EE
:1004D0004B45A9D2B9EB020864EB0C0E0138A3E737
:1004E0004646EAE7204694E74046D1E7D0467BE718
:1004F000023B614432E7304609E76444023842E790
:10050000704700BF844641EA000313F003036DD136
:10051000403A41D351F8043B40F8043B51F8043BC6
:1005200040F8043B51F8043B40F8043B51F8043BCD
:1005300040F8043B51F8043B40F8043B51F8043BBD
:1005400040F8043B51F8043B40F8043B51F8043BAD
:1005500040F8043B51F8043B40F8043B51F8043B9D
:1005600040F8043B51F8043B40F8043B51F8043B8D
:1005700040F8043B51F8043B40F8043B51F8043B7D
:1005800040F8043B51F8043B40F8043B51F8043B6D
:1005900040F8043B403ABDD2303211D351F8043B0D
:1005A00040F8043B51F8043B40F8043B51F8043B4D
:1005B00040F8043B51F8043B40F8043B103AEDD2BC
:1005C0000C3205D351F8043B40F8043B043AF9D20D
:1005D000043208D0D2071CBF11F8013B00F8013BE0
:1005E00001D30B8803806046704700BF082A13D3ED
:1005F0008B078DD010F003038AD0C3F10403D21A05
:10060000DB071CBF11F8013B00F8013B80D331F838
:10061000023B20F8023B7BE7043AD9D3013A11F8B8
:10062000013B00F8013BF9D20B7803704B78437023
:100630008B78837060467047000000000000000067
:1006400001F0FF01102A2BDB10F0070F08D010F883
:10065000013B013A8B422DD010F0070F42B3F6D187
:10066000F0B441EA012141EA014122F007047FF0A0
:1006700000070023F0E80256083C85EA010586EAF7
:10068000010685FA47F5A3FA87F586FA47F6A5FA33
:1006900087F68EB9EED1F0BC01F0FF0102F007023F
:1006A00032B110F8013B013A83EA010313B1F8D1EA
:1006B0000020704701387047002D06BF35460338CB
:1006C000073815F0010F07D1013015F4807F02BF04
:1006D000013015F4C03F0130F0BC0138704700BF55
:1006E000000000000000000000000000000000000A
:1006F00000000000000000000000000000000000FA
:1007000090F800F06DE9024520F007016FF0000C51
:1007100010F0070491F820F040F049804FF00004F9
:100720006FF00700D1E9002391F840F000F10800D4
:1007300082FA4CF2A4FA8CF283FA4CF3A2FA8CF30C
:100740004BBBD1E9022382FA4CF200F10800A4FA73
:100750008CF283FA4CF3A2FA8CF3E3B9D1E90423C7
:1007600082FA4CF200F10800A4FA8CF283FA4CF3FE
:10077000A2FA8CF37BB9D1E9062301F1200182FAB8
:100780004CF200F10800A4FA8CF283FA4CF3A2FABE
:100790008CF3002BC6D0002A04BF04301A4612BACC
:1007A000B2FA82F2FDE8024500EBD2007047D1E9CF
:1007B000002304F00305C4F100004FEAC50514F05E
:1007C000040F91F840F00CFA05F562EA05021CBF2F
:1007D00063EA050362464FF00004A9E781F0004197
:1007E00002E000BF83F0004330B54FEA41044FEA16
:1007F000430594EA050F08BF90EA020F1FBF54EAB1
:10080000000C55EA020C7FEA645C7FEA655C00F04C
:10081000E2804FEA5454D4EB5555B8BF6D420CDD1D
:100820002C4480EA020281EA030382EA000083EAA0
:10083000010180EA020281EA0303362D88BF30BD40
:1008400011F0004F4FEA01314FF4801C4CEA113196
:1008500002D0404261EB410113F0004F4FEA0333F5
:100860004CEA133302D0524263EB430394EA050F80
:1008700000F0A780A4F10104D5F1200E0DDB02FAEF
:100880000EFC22FA05F2801841F1000103FA0EF283
:10089000801843FA05F359410EE0A5F120050EF149
:1008A000200E012A03FA0EFC28BF4CF0020C43FA7A
:1008B00005F3C01851EBE37101F0004507D54FF087
:1008C000000EDCF1000C7EEB00006EEB0101B1F5D7
:1008D000801F1BD3B1F5001F0CD349085FEA30001D
:1008E0004FEA3C0C04F101044FEA445212F5800F28
:1008F00080F09A80BCF1004F08BF5FEA500C50F1C5
:10090000000041EB045141EA050130BD5FEA4C0CA7
:10091000404141EB0101013C28BFB1F5801FE9D204
:1009200091F0000F04BF01460020B1FA81F308BF27
:100930002033A3F10B03B3F120020CDA0C3208DDF3
:1009400002F1140CC2F10C0201FA0CF021FA02F1CE
:100950000CE002F11402D8BFC2F1200C01FA02F13E
:1009600020FA0CFCDCBF41EA0C019040E41AA2BF63
:1009700001EB0451294330BD6FEA04041F3C1CDA2B
:100980000C340EDC04F11404C4F1200220FA04F04B
:1009900001FA02F340EA030021FA04F345EA0301F5
:1009A00030BDC4F10C04C4F1200220FA02F001FAB7
:1009B00004F340EA0300294630BD21FA04F0294639
:1009C00030BD94F0000F83F4801306BF81F48011D2
:1009D0000134013D4EE77FEA645C18BF7FEA655C45
:1009E00029D094EA050F08BF90EA020F05D054EA17
:1009F000000C04BF1946104630BD91EA030F1EBF1C
:100A00000021002030BD5FEA545C05D1400049411F
:100A100028BF41F0004130BD14F580043CBF01F512
:100A2000801130BD01F0004545F0FE4141F47001F8
:100A30004FF0000030BD7FEA645C1ABF19461046D3
:100A40007FEA655C1CBF0B46024650EA013406BFD4
:100A500052EA033591EA030F41F4002130BD00BF93
:100A600090F0000F04BF0021704730B54FF4806450
:100A700004F132044FF000054FF0000150E700BFD1
:100A800090F0000F04BF0021704730B54FF4806430
:100A900004F1320410F0004548BF40424FF000011D
:100AA0003EE700BF42004FEAE2014FEA31014FEA60
:100AB00002701FBF12F07F4393F07F4F81F06051AF
:100AC000704732F07F4208BF704793F07F4F04BFFA
:100AD00041F40021704730B54FF4607401F00045D7
:100AE00021F000411CE700BF50EA010208BF704737
:100AF00030B54FF000050AE050EA010208BF704728
:100B000030B511F0004502D5404261EB41014FF490
:100B1000806404F132045FEA915C3FF4D8AE4FF098
:100B200003025FEADC0C18BF03325FEADC0C18BF7B
:100B3000033202EBDC02C2F1200300FA03FC20FACC
:100B400002F001FA03FE40EA0E0021FA02F1144419
:100B5000BDE600BF70B54FF0FF0C4CF4E06C1CEA32
:100B600011541DBF1CEA135594EA0C0F95EA0C0FA3
:100B700000F0DEF82C4481EA030621EA4C5123EA16
:100B80004C5350EA013518BF52EA033541F4801145
:100B900043F4801338D0A0FB02CE4FF00005E1FBF8
:100BA00002E506F00042E0FB03E54FF00006E1FB42
:100BB00003569CF0000F18BF4EF0010EA4F1FF0485
:100BC000B6F5007F64F5407404D25FEA4E0E6D41C5
:100BD00046EB060642EAC62141EA55514FEAC520D6
:100BE00040EA5E504FEACE2EB4F1FD0C88BFBCF552
:100BF000E06F1ED8BEF1004F08BF5FEA500E50F103
:100C0000000041EB045170BD06F0004646EA0101C8
:100C100040EA020081EA0301B4EB5C04C2BFD4EBFA
:100C20000C0541EA045170BD41F480114FF0000EF3
:100C3000013C00F3AB8014F1360FDEBF002001F061
:100C4000004170BDC4F10004203C35DA0C341BDCDB
:100C500004F11404C4F1200500FA05F320FA04F0AD
:100C600001FA05F240EA020001F0004221F00041E1
:100C700010EBD37021FA04F642EB06015EEA430E54
:100C800008BF20EAD37070BDC4F10C04C4F1200584
:100C900000FA04F320FA05F001FA04F240EA020037
:100CA00001F0004110EBD37041F100015EEA430E08
:100CB00008BF20EAD37070BDC4F1200500FA05F228
:100CC0004EEA020E20FA04F301FA05F243EA0203A7
:100CD00021FA04F001F0004121FA04F220EA0200B6
:100CE00000EBD3705EEA430E08BF20EAD37070BDFC
:100CF00094F0000F0FD101F00046400041EB0101DC
:100D000011F4801F08BF013CF7D041EA060195F0BD
:100D1000000F18BF704703F00046520043EB030377
:100D200013F4801F08BF013DF7D043EA0603704764
:100D300094EA0C0F0CEA135518BF95EA0C0F0CD06F
:100D400050EA410618BF52EA4306D1D181EA0301B5
:100D500001F000414FF0000070BD50EA410606BFAF
:100D60001046194652EA430619D094EA0C0F02D1F4
:100D700050EA013613D195EA0C0F05D152EA033639
:100D80001CBF104619460AD181EA030101F0004157
:100D900041F0FE4141F470014FF0000070BD41F0A0
:100DA000FE4141F4780170BD70B54FF0FF0C4CF47A
:100DB000E06C1CEA11541DBF1CEA135594EA0C0F99
:100DC00095EA0C0F00F0A7F8A4EB050481EA030EE6
:100DD00052EA03354FEA013100F088804FEA0333CD
:100DE0004FF0805545EA131343EA12634FEA02229B
:100DF00045EA111545EA10654FEA00260EF000415C
:100E00009D4208BF964244F1FD0404F5407402D2AD
:100E10005B084FEA3202B61A65EB03055B084FEA3E
:100E200032024FF480104FF4002CB6EB020E75EB3B
:100E3000030E22BFB61A754640EA0C005B084FEA63
:100E40003202B6EB020E75EB030E22BFB61A7546E0
:100E500040EA5C005B084FEA3202B6EB020E75EB2B
:100E6000030E22BFB61A754640EA9C005B084FEAA3
:100E70003202B6EB020E75EB030E22BFB61A7546B0
:100E800040EADC0055EA060E18D04FEA051545EA9F
:100E900016754FEA06164FEAC30343EA52734FEA48
:100EA000C2025FEA1C1CC0D111F4801F0BD141EAC1
:100EB00000014FF000004FF0004CB6E711F4801F26
:100EC00004BF01430020B4F1FD0C88BFBCF5E06F06
:100ED0003FF6AFAEB5EB030C04BFB6EB020C5FEA16
:100EE000500C50F1000041EB045170BD0EF0004E6B
:100EF0004EEA113114EB5C04C2BFD4EB0C0541EA9D
:100F0000045170BD41F480114FF0000E013C90E699
:100F100045EA060E8DE60CEA135594EA0C0F08BF5D
:100F200095EA0C0F3FF43BAF94EA0C0F0AD150EA5C
:100F300001347FF434AF95EA0C0F7FF425AF1046EF
:100F400019462CE795EA0C0F06D152EA03353FF417
:100F5000FDAE1046194622E750EA410618BF52EA94
:100F600043067FF4C5AE50EA41047FF40DAF52EA68
:100F700043057FF4EBAE12E74FF0FF3C06E000BF05
:100F80004FF0010C02E000BF4FF0010C4DF804CD12
:100F90004FEA410C7FEA6C5C4FEA430C18BF7FEAD2
:100FA0006C5C1BD001B050EA410C0CBF52EA430C00
:100FB00091EA030F02BF90EA020F0020704710F180
:100FC000000F91EA030F58BF994208BF90422CBF0F
:100FD000D8176FEAE37040F0010070474FEA410C08
:100FE0007FEA6C5C02D150EA013C07D14FEA430C26
:100FF0007FEA6C5CD6D152EA033CD3D05DF8040B97
:10100000704700BF8446104662468C4619466346C8
:1010100000E000BF01B5FFF7B7FF002848BF10F19F
:10102000000F01BD4DF808EDFFF7F4FF0CBF0120E4
:1010300000205DF808FB00BF4DF808EDFFF7EAFF60
:1010400034BF012000205DF808FB00BF4DF808ED1B
:10105000FFF7E0FF94BF012000205DF808FB00BF10
:101060004DF808EDFFF7CEFF94BF012000205DF89A
:1010700008FB00BF4DF808EDFFF7C4FF34BF0120A7
:1010800000205DF808FB00BF4FEA410C7FEA6C5C72
:1010900002D150EA013C0AD14FEA430C7FEA6C5C72
:1010A00002D152EA033C02D14FF0000070474FF0EA
:1010B000010070474FEA410212F5001215D211D516
:1010C0006FF47873B3EB625212D94FEAC12343F045
:1010D000004343EA505311F0004F23FA02F018BFC7
:1010E000404270474FF00000704750EA013005D190
:1010F00011F0004008BF6FF0004070474FF0000053
:10110000704700BF7047704710B44FF0E0235C6930
:101110004FF0A80C0CFB00FC9B69002104E0E01AD6
:1011200002441144614509D21A464FF0E0239B69FD
:101130009A42FAD0F3D9D21A1144F3E75DF8044B7E
:10114000704710B504E04FF47A70FFF7DDFF2046DA
:10115000431E9CB20028F6D110BD000008B5002245
:101160001021024801F084FD08BD00BF00000240CC
:1011700008B501221021024801F07AFD08BD00BF28
:101180000000024008B500220121024801F070FD74
:1011900008BD00BF0004024008B501221146024804
:1011A00001F066FD08BD00BF0004024000B587B035
:1011B0008DF80F004FF47A73009301230DF117029D
:1011C0000DF10F01034802F098F99DF8170007B0E0
:1011D0005DF804FBF80C002010B50C46FFF7E6FFA5
:1011E0002046FFF7E3FF10BD10B50C4640F080002D
:1011F000FFF7DCFF5520FFF7D9FF207010BD38B591
:101200000D46144640F08000FFF7D0FF06E0552061
:10121000FFF7CCFF05F8010B013CE4B2002CF6D13E
:1012200038BD0000F0B583B016238DF80730FFF706
:1012300095FF8020FFF7BAFF5520FFF7B7FF552035
:10124000FFF7B4FF8DF80700FFF792FF9620FFF736
:101250005BFFFFF783FF8020FFF7A8FF5520FFF714
:10126000A5FF5520FFF7A2FF8DF80700FFF780FFCD
:101270009620FFF749FFFFF771FFB6217E20FFF7A9
:10128000ABFFFFF775FF5020FFF75BFFFFF766FF2F
:101290008020FFF78BFF5520FFF788FF5520FFF7D1
:1012A00085FF8DF80700FFF763FF9620FFF72CFFFF
:1012B000FFF754FF8020FFF779FF5520FFF776FFF7
:1012C0005520FFF773FF8DF80700FFF751FF9620B9
:1012D000FFF71AFFFFF742FF8020FFF767FF552057
:1012E000FFF764FF5520FFF761FF8DF80700FFF758
:1012F0003FFF9DF80730DBB21E2B39D10024052CAF
:1013000034D8FFF72BFF1C4A04EB4403D1184D7867
:10131000D65C29463046FFF75FFFFFF729FF96208E
:10132000FFF7F2FEFFF71AFF46F08000FFF73EFFDF
:101330005520FFF73BFF5520FFF738FF8DF80700DA
:10134000FFF716FF9620FFF7DFFE9DF80730DBB2B0
:101350009D4202D10134E4B2D1E704EB4407064BCD
:101360001F44B878003818BF012002E0002000E0D8
:10137000012003B0F0BD00BF7CB60008F0B583B01B
:1013800000248DF80740FFF7FDFE0DF10701204610
:10139000FFF72AFFFFF700FF9620FFF7B5FEFFF7E4
:1013A000F1FE0DF107012046FFF71EFFFFF7F4FEE7
:1013B0009620FFF7A9FEFFF7E5FEB6211420FFF700
:1013C0000BFFFFF7E9FE5020FFF7BBFEFFF7DAFE49
:1013D0000DF107012046FFF707FFFFF7DDFE96201E
:1013E000FFF792FEFFF7CEFE0DF107012046FFF753
:1013F000FBFEFFF7D1FE9620FFF786FE9DF8073033
:101400000F2B30D1052C2CD8FFF7BCFE174A04EB6C
:101410004403D1184D78D65C29463046FFF7DCFEF0
:10142000FFF7BAFE9620FFF76FFEFFF7ABFE0DF158
:1014300007013046FFF7D8FEFFF7AEFE9620FFF714
:1014400063FE9DF807309D4202D10134E4B2D9E732
:1014500004EB4407054B1F44B878003818BF01203F
:1014600002E0002000E0012003B0F0BD90B60008CB
:1014700010B5FFF747FEFFF746FEFFF7D3FE044621
:10148000FFF77CFF2043C0B210BD0000F0B583B071
:1014900006460D461446594B93E803000090ADF8FC
:1014A0000410090C8DF8061000278DF80770FFF75F
:1014B00055FE9220FFF77AFE062269461220FFF7BA
:1014C0009EFEFFF755FE9DF801301B021BB29DF8F2
:1014D0000020134307EE903AF8EEE77A484A92ED7F
:1014E000007A67EE877AC5ED007A9DF803301B021B
:1014F0001BB29DF802100B4307EE103AD2ED006AC2
:10150000B8EEC77A27EE267A85ED017A9DF8053088
:101510001B021BB29DF80420134307EE903AF8EE2D
:10152000E77A67EEA67AC5ED027AFFF72BFE08226E
:1015300069463846FFF763FEFFF72EFE9DF8003040
:101540000F2B27D0FFF70AFEA220FFF72FFE022263
:1015500069462220FFF753FEFFF70AFE9DF80020A0
:101560009DF801305B0943EAC203B3F5806F01DBEC
:10157000A3F5006307EE903AF8EEE77AB4EE007A4E
:1015800067EE877AB3EE077A77EE877AC4ED007A52
:1015900003B0F0BD9DF803301B021BB29DF8022082
:1015A000134307EE903AF8EEE77A164A92ED007A86
:1015B00067EE877AC6ED007A9DF805301B021BB2F4
:1015C0009DF804100B4307EE103AD2ED006AB8EE16
:1015D000C77A27EE267A86ED017A9DF807301B023E
:1015E0001BB29DF80620134307EE903AF8EEE77A17
:1015F00067EEA67AC6ED027AA4E700BF20B600081F
:10160000000000200400002030B52DED048B95B0C3
:101610000D46B0EE408A03685A6813921A68129217
:101620009B68119343685A6810921A680F929B68DE
:101630000E93F6EE007A60EE278AFB4CD4ED017A29
:1016400094ED037A67EE877A94ED007AD4ED026A1E
:1016500027EE267A77EEC77A77EEA77ACDED0B7A6A
:10166000D4ED007A94ED017A67EE877A94ED027AF0
:10167000D4ED036A27EE267A77EE877A77EEA77A9B
:10168000CDED0C7AD4ED017A94ED017A67EE877A8C
:1016900094ED027AD4ED026A27EE267A77EE877A05
:1016A00077EEA77AB7EE009A79EE677ACDED0D7AEC
:1016B000DDED137A9DED130A67EE807A9DED120A37
:1016C0009DED127A20EE070A77EE807A9DED110AE1
:1016D0009DED117A20EE070A37EE800A09F0D6FC5C
:1016E00089EE007ADDED137A67EE877ACDED087A20
:1016F000DDED127A67EE877ACDED097ADDED117AAC
:1017000067EE877ACDED0A7ADDED097A9DED0D7AE7
:1017100067EE877A9DED0A7ADDED0C6A27EE267A70
:1017200077EEC77ACDED027ADDED0A7A9DED0B7A80
:1017300067EE877A9DED087ADDED0D6A27EE267A51
:1017400077EEC77ACDED037ADDED087A9DED0C7A60
:1017500067EE877A9DED097ADDED0B6A27EE267A32
:1017600077EEC77ACDED047A9DED026A9FEDAF7AF0
:1017700026EE076AAE4BD3ED007A36EE276A83ED8C
:10178000006ADDED036A66EE876AD3ED017A76EED4
:10179000A76AC3ED016ADDED047A67EE877A93EDFF
:1017A000027A77EE877AC3ED027ADDED105ADFED2B
:1017B000A14A65EEA45A75EEA55A9DED027AB2EEE5
:1017C000005A27EE057A75EE875A36EE256A8DEDBA
:1017D000056A9DED0F6A26EE246A36EE066A9DEDD7
:1017E000037A27EE057A36EE076A76EE866ACDED45
:1017F000066A9DED0E7A27EE247A37EE077ADDED44
:10180000046A66EE856A37EE267A77EE877ACDED42
:10181000077AD4ED017A9DED057A67EEC77A94EDEB
:10182000027ADDED066A27EE267A77EEC77A94ED26
:10183000037ADDED076A27EE267A77EEC77A67EE40
:10184000A87A94ED007A77EE277AC4ED007AD4ED89
:10185000007A9DED057A67EE877A94ED037ADDEDE7
:10186000066A27EE267A77EEC77A94ED027ADDEDE6
:10187000076A27EE267A77EE877A67EEA87A94EDE4
:10188000017A77EE277AC4ED017AD4ED037A9DEDE3
:10189000057A67EE877A94ED007ADDED066A27EE29
:1018A000267A77EE877A94ED017ADDED076A27EEE6
:1018B000267A77EEC77A67EEA87A94ED027A77EE09
:1018C000277AC4ED027AD4ED027A9DED057A67EEAF
:1018D000C77A94ED017ADDED066A27EE267A77EE77
:1018E000877A94ED007ADDED076A27EE267A77EEA7
:1018F000877A67EEA87A94ED037A77EE277AC4EDBB
:10190000037AD4ED007A94ED000A67EE807A94EDC4
:10191000010A94ED017A20EE070A77EE807A94EDC1
:10192000020A94ED027A20EE070A77EE807A94EDAF
:10193000030A94ED037A20EE070A37EE800A09F0D5
:10194000A5FBC9EE007ACDED017A9DED017AD4EDCB
:10195000007A67EE877AC4ED007A9DED017AD4EDC6
:10196000017A67EE877AC4ED017A9DED017AD4EDB4
:10197000027A67EE877AC4ED027A9DED017AD4EDA2
:10198000037A67EE877AC4ED037A9DED0E0ADFEDE8
:101990002A7A20EE270A30EE000AF0EE087AB4EE3A
:1019A000E70AF1EE10FA06DCF8EE087AB4EEE70A80
:1019B000F1EE10FA07D528EE000A95ED028A38EE0E
:1019C000000A85ED020A184C94ED000A30EE000A78
:1019D000D4ED027A20EE270AD4ED017A77EEA77AC9
:1019E00094ED037A67EE877A30EE670A09F020FB00
:1019F0009FED128A20EE080A85ED010A94ED020A95
:101A000030EE000AD4ED037A20EE270AD4ED007AF6
:101A100077EEA77A94ED017A67EE877AD4ED010A22
:101A200070EEA00A0CE000BF0800002082A8FB377F
:101A3000F40900202E9E0B3AF6FFF93CE12E654298
:101A400094ED017A60EE870AB7EE007A77EE600ACD
:101A500094ED027A37EE077AD4ED026A27EE267A01
:101A600070EEC70A30EE270A09F00EFB20EE080AD6
:101A700085ED000A15B0BDEC048B30BD08B5FFF74D
:101A8000F7FC0028FBD10A4B0A4A0B490B4800F02F
:101A900047F8074A07490848FFF7F8FC9FED080A8E
:101AA00008490648FFF7B0FD0A2002F0ABFBF0E75B
:101AB000300A0020000A0020180A0020240A002012
:101AC0000AD7233C0C0A002000B583B000F078FA56
:101AD00000F080FA0A4B1860094B1868B0F9001042
:101AE000B0F90220B0F90430B0F9060000900548C2
:101AF00003F0C0FA4FF47A7002F084FBECE700BF09
:101B0000340A0020A4B60008034B0360034B0B60AB
:101B100080231360704700BF380C0020380A002073
:101B200002604160836001207047000000B583B00F
:101B300001904FF6FF73012201A9034802F0EBF870
:101B4000019803B05DF804FB500D00202DE9F04131
:101B50008AB000240594069407940894099400948C
:101B6000324B1A6B42F040021A631A6B02F04002C9
:101B70000092009A01941A6B42F002021A631A6BE7
:101B800002F002020192019A02941A6B42F00102E1
:101B90001A631A6B02F001020292029A03941A6B02
:101BA00042F004021A631A6B02F004020392039AD1
:101BB00004941A6B42F080021A631B6B03F08003DB
:101BC0000493049B1A4F22464FF40061384601F0FB
:101BD0004FF8DFF8648022461021404601F048F8B3
:101BE000144E22460121304601F042F84FF40063C2
:101BF0000593012506950794089405A9384600F039
:101C000045FF10230593069507940227089705A919
:101C1000404600F03BFF059506950794089705A9F7
:101C2000304600F033FF0AB0BDE8F08100380240D2
:101C3000001C0240000402400000024000B583B0D6
:101C400000220192094B196B41F4001119631B6BBF
:101C500003F400130193019B05210C2000F0B4FC58
:101C60000C2000F0E9FC03B05DF804FB00380240F2
:101C700008B5012002F0C6FAFBE7000008B50268CB
:101C8000034B9A4200D008BD00F07AFCFBE700BF8E
:101C90000010004072B6FEE708B50E480E4B036018
:101CA0004FF48273436000238360C36002220261A9
:101CB000012242614FF4007282613822C2610362E4
:101CC000436283620A23C36201F0B8FB00B908BD16
:101CD000FFF7E0FFF80C00200030014008B50A488B
:101CE0000A4B03604FF4E133436000238360C36019
:101CF00003610C2242618361C36101F0DDFF00B921
:101D000008BDFFF7C7FF00BF500D002000100140C5
:101D100008B50A480A4B03604FF4E13343600023DF
:101D20008360C36003610C2242618361C36101F07F
:101D3000C3FF00B908BDFFF7ADFF00BFD80D0020FD
:101D40000014014008B50B480B4B03600B4B43607C
:101D5000002383604FF40052C2604FF4806202613E
:101D6000042242618361C36101F0A6FF00B908BD8E
:101D7000FFF790FF940D002000480040A08601006E
:101D800000B595B03022002108A803F021F9002306
:101D9000039304930593069307930193204A116CD0
:101DA00041F080511164126C02F080520192019A4C
:101DB00002931C4B1A6842F480421A601B6803F4B9
:101DC00080430293029B012308934FF480330993CD
:101DD00002230E934FF480020F9206221092A82243
:101DE000119212930423139308A800F047FF98B9A7
:101DF0000F23039302230493002305934FF4A0536E
:101E000006934FF480530793052103A801F084F94A
:101E100020B915B05DF804FBFFF73CFFFFF73AFF70
:101E2000003802400070004000B597B000F08EFB13
:101E3000FFF7A6FFFFF78AFEFFF700FFFFF72CFF73
:101E4000FFF74CFFFFF764FFFFF77CFF1C4C0DF121
:101E50003C0CA646BEE80F00ACE80F009EE8070069
:101E60008CE8070000210FA802F097F9154B1860C5
:101E70000DF1200C04F11C0EBEE80F00ACE80F00C1
:101E80009EE807008CE80700002108A802F085F909
:101E90000D4B18600DF1040E04F1380CBCE80F0076
:101EA000AEE80F009CE807008EE80700002101A8BB
:101EB00002F073F9054B186002F06AF9FEE700BF03
:101EC00028B60008940C00208C0C0020900C0020F8
:101ED00010B4164B1B685C6944F040045C61DC681C
:101EE00044F01004DC60124B1C68236823F00103EB
:101EF000236003E01C6824F001041C600C4B1B6889
:101F00001C6814F0010FF5D10A4C9C60D86019616F
:101F10005A601A6842F480221A60054B1A681368E6
:101F200043F0010313605DF8044B7047940D0020EB
:101F3000980C002004480040002840D000B5864698
:101F4000D9B390F801C083784CEA032CCCF30A0C87
:101F5000A1F800C080789EF80330C00840EA431022
:101F6000C0F30A0048809EF803309EF804209B09C5
:101F700043EA82039EF8052043EA8223C3F30A035F
:101F80008B809EF805209EF806E0520842EACE12A9
:101F9000C2F30A02CA80ACF57A7CA1F800C0A0F5B1
:101FA0007A704880A3F57A738B80A2F57A72CA8022
:101FB000B1F90830A3F57A730B815DF804FB704723
:101FC00008B5034832228118FFF782FF08BD00BF21
:101FD000340E0020004870471C0E002000B583B06E
:101FE0002F4B1B681A6812F0200F09D000220092B4
:101FF0001A6800925B680093009B03B05DF804FBD5
:10200000284A126812F0100FF7D0002201921A68C5
:1020100001925B680193019B234B1B681A6812F4C1
:10202000002F1DD11A6822F001021A601E480268B2
:102030005368C3F132039BB21C490B8032215160BB
:10204000116841F40021116001680A6842F0010240
:102050000A60192BD1D116491648FFF76DFFCCE75E
:102060001A6822F001021A600F4908684368C3F138
:1020700032030E4A1380322343600F48836A23F4ED
:102080000023836209680B6843F001030B60138827
:10209000192BB2D106490948FFF74EFFADE700BF43
:1020A000940D002000480040980C0020980E00205D
:1020B0001C0E0020340E002000600240660E00203E
:1020C00000B583B0002200920D4B596C41F4804161
:1020D0005964596C01F48041009100990192196C86
:1020E00041F0805119641B6C03F080530193019BF4
:1020F0000F216FF0010000F067FA03B05DF804FBF8
:1021000000380240F0B589B000230393049305938F
:102110000693079302681E4B9A4201D009B0F0BDA6
:102120000024009403F584335A6C42F480525A64BC
:102130005A6C02F480520092009A01941A6B42F099
:1021400002021A631A6B02F002020192019A0294CF
:102150001A6B42F001021A631B6B03F00103029336
:10216000029B18230393022704970326069605254E
:10217000079503A9074800F089FC8023039304977F
:1021800005940696079503A9034800F07FFCC5E770
:10219000003001400004024000000240F0B58DB064
:1021A00000230793089309930A930B9303685C4AEF
:1021B000934209D004465B4A934245D05A4A93421F
:1021C00000F089800DB0F0BD00240094574B5A6C8C
:1021D00042F010025A645A6C02F010020092009A07
:1021E00001941A6B42F002021A631A6B02F00202A7
:1021F0000192019A02941A6B42F001021A631B6B5E
:1022000003F001030293029B8023079302270897A0
:1022100003260A9607250B9507A9454800F036FCCA
:102220004FF400730793089709940A960B9507A932
:10223000404800F02BFC22460521252000F0C4F97F
:10224000252000F0F9F9BDE700250395374B1A6CFE
:1022500042F480221A641A6C02F480220392039AD8
:1022600004951A6B42F004021A631B6B03F004031B
:102270000493049B4FF440630793022308930323C2
:102280000A9307230B9307A92B4800F0FFFB2B4869
:102290002B4B03604FF0006343608560C5604FF4D3
:1022A0008063036145618561C5614FF4003303625A
:1022B000456200F039FA58B9204BA3639C630022B1
:1022C0000521272000F080F9272000F0B5F979E7F3
:1022D000FFF7E0FCF0E700210591144B5A6C42F047
:1022E00020025A645A6C02F020020592059A069167
:1022F0001A6B42F040021A631B6B03F04003069313
:10230000069B4FF4844307930223089303230A9305
:1023100008230B9307A90B4800F0B8FB52E700BF56
:102320000010014000480040001401400038024005
:10233000000402400000024000080240980C002007
:10234000286002400018024030B589B004460023DE
:102350000193214B1A6C42F010021A641B6C03F0BB
:1023600010030193019B02A903A800F0ABFF069B99
:10237000CBB900F087FF03461848A0FB03239B0C52
:10238000013B1748174A026040F2E732C2604360DF
:10239000002303618360836101F036FB054630B1A1
:1023A000284609B030BD00F06DFF4300E4E70C485B
:1023B00001F0C0F905460028F2D1362000F03CF9C2
:1023C0000F2C01D90125EBE700222146362000F031
:1023D000FBF8054B1C60E3E70038024083DE1B433B
:1023E0009C0E00200010004020000020FEE7FEE7C9
:1023F000FEE7FEE7FEE7704708B5024800F058FA2E
:1024000008BD00BF980C002008B5024801F07AFD15
:1024100008BD00BF500D002008B5024801F0D2F9F8
:1024200008BD00BF9C0E00200120704708B502F0D7
:10243000A5FD162303604FF0FF3008BD08B54FF02F
:10244000FF31FFF7F3FFFEE770B50C461646002597
:1024500006E0AFF30080214601F8010B01350C4680
:10246000B542F6DB304670BD70B50C461646002509
:1024700004E014F8010BFFF759FB0135B542F8DB16
:10248000304670BD4FF0FF3070474FF400534B6043
:1024900000207047012070470020704710B50346A8
:1024A0000C4A0D490D48006840B10C4800680344CF
:1024B000521A934206D8094A136010BD0748084CC7
:1024C0000460F2E702F05AFD0C2303604FF0FF3086
:1024D000F3E700BF0000022000040000E40E00202B
:1024E000884C0020034AD2F8883043F47003C2F8C5
:1024F0008830704700ED00E0DFF834D00D480E4919
:102500000E4A002302E0D458C4500433C4188C424D
:10251000F9D30B4A0B4C002301E013600432A242B2
:10252000FBD3FFF7DFFF02F02FFDFFF77DFC7047C5
:102530000000022000000020D80900202CBB000869
:10254000D8090020884C0020FEE7000008B50B4B9E
:102550001A6842F400721A601A6842F480621A60C3
:102560001A6842F480721A60032000F01BF80F20F2
:10257000FFF7EAFEFFF7A4FD002008BD003C024083
:10258000034A1168034B1B780B441360704700BF6C
:10259000E80E00201C000020014B1868704700BFA7
:1025A000E80E0020074AD36823F4E0631B041B0CE9
:1025B000000200F4E060034343F0BF6343F40033E0
:1025C000D360704700ED00E000B5194BDB68C3F342
:1025D0000223C3F1070CBCF1040F28BF4FF0040C19
:1025E00003F1040EBEF1060F18D9033B4FF0FF3E76
:1025F0000EFA0CFC21EA0C0199400EFA03F322EAD0
:102600000303194300280BDB0901C9B200F1604044
:1026100000F5614080F800135DF804FB0023E5E756
:1026200000F00F000901C9B2024B1954F4E700BFD2
:1026300000ED00E014ED00E0002807DB00F01F02D1
:10264000400901239340024A42F82030704700BFFE
:1026500000E100E010B40368D9B210390C4AA2FBC3
:10266000014212090B4CA25CC2655F2909D923F40F
:102670007F7323F0030304338365806D5DF8044B9F
:10268000704723F47F7323F003038365F5E700BFEE
:10269000ABAAAAAA18B70008836A826992B9012B6B
:1026A0000AD0022B02D00BB100207047C36A13F08E
:1026B000807F28D100207047C36AB3F1C07F24D047
:1026C00000207047B2F5005F09D0022B25D9032BFB
:1026D00025D1C36A13F0807F23D100207047032BDC
:1026E00003D8DFE803F01404140A00207047C36A1B
:1026F00013F0807F0DD100207047C36AB3F1C07F13
:1027000009D0002070470120704701207047012048
:10271000704701207047012070470120704700205A
:10272000704701207047000070B50446FFF734FF82
:10273000002C5BD00546022384F83530002384F852
:1027400034302268136823F00103136023681A6889
:1027500012F0010F0AD0FFF71FFF431B052BF5D91D
:1027600020236365032084F8350070BD1A68204873
:1027700010406168A2680A43E1680A4321690A437C
:1027800061690A43A1690A43E1690A43216A0A436C
:102790000243616A04291ED01A602668756925F013
:1027A0000705636A1D43042B07D1A36A1D43E36A2F
:1027B0001BB12046FFF770FF90B975612046FFF707
:1027C00049FFE26D3F239340836000206065012351
:1027D00084F83530C9E7E16A206B01430A43DBE73F
:1027E00040236365012084F83500BEE70120BCE783
:1027F0003F8010F070B50446866DFFF7CDFE94F86B
:102800003530DBB2022B06D080236365002384F8C9
:102810003430012070BD05462268136823F016038A
:1028200013602268536923F080035361236CE3B182
:102830002268136823F0080313602268136823F0EA
:102840000103136023681B6813F0010F11D0FFF719
:10285000A3FE431B052BF5D920236365032084F8D1
:102860003500002384F83430D4E7A36C002BDFD18B
:10287000E3E7E26D3F239340B360012384F83530F2
:10288000002084F83400C5E790F83530DBB2022B25
:1028900003D08023436501207047052380F835303D
:1028A0000268136823F001031360002070470000E2
:1028B000F0B583B0044600230193724B1D68724B40
:1028C000A3FB0535AD0A876D3E68C26D08239340B2
:1028D000334210D003681A6812F0040F0BD01A6844
:1028E00022F004021A60C26D08239340BB60436D5E
:1028F00043F001034365E26D01239340334209D065
:102900002268526912F0800F04D0BB60636D43F0FF
:1029100002036365E26D04239340334209D02268C9
:10292000126812F0020F04D0BB60636D43F0040321
:102930006365E26D10239340334224D0226812680D
:1029400012F0080F1FD0BB6023681A6812F4802FA2
:102950000DD01B6813F4002F04D1236C9BB12046CB
:10296000984710E0A36C73B1204698470BE01A68B3
:1029700012F4807F03D11A6822F008021A60236CD7
:102980000BB120469847E26D20239340334255D047
:102990002268126812F0100F50D0BB6094F83530E6
:1029A000DBB2052B0ED023681A6812F4802F33D0C7
:1029B0001B6813F4002F2AD1636C002B3ED02046F5
:1029C00098473BE02268136823F0160313602268DF
:1029D000536923F080035361236CA3B12268136809
:1029E00023F008031360E26D3F239340BB60012393
:1029F00084F83530002384F83430236D002B3FD029
:102A0000204698473CE0A36C002BE7D1EBE7E36B53
:102A1000A3B12046984711E01A6812F4807F09D1CB
:102A20001A6822F010021A60012384F8353000235E
:102A300084F83430E36B0BB120469847636DFBB1EB
:102A4000636D13F0010F17D0052384F83530226829
:102A5000136823F001031360019B01330193AB4220
:102A600004D823681B6813F0010FF5D1012384F803
:102A70003530002384F83430E36C0BB1204698479E
:102A800003B0F0BD18000020B5814E1B00230F2BB2
:102A900000F2E48070B582B060E085685E000324D7
:102AA000B44025EA0405CC68B4402C4384604568F2
:102AB00025EA02054C68C4F300129A402A4342609A
:102AC0005AE0DC08083450F8246003F0070295004F
:102AD0000F22AA4026EA020E0A69AA4042EA0E0222
:102AE00040F824205CE0072200E0002202FA0EF207
:102AF0002A4302345A4D45F824205A4A94686FEA12
:102B00000C0224EA0C054E6816F4801F01D04CEA32
:102B10000405544CA560E46802EA04054E6816F406
:102B2000001F01D04CEA04054E4CE560646802EADF
:102B300004054E6816F4003F01D04CEA0405494CE8
:102B40006560246822404D6815F4803F01D04CEA4E
:102B50000402444C226001330F2B7DD801229A409D
:102B60000C6804EA020C32EA0404F4D14C6804F064
:102B70000304013C012C90D94A6802F00302032AA5
:102B800009D0C4685D000322AA4024EA02048A68CE
:102B9000AA402243C2604A6802F00302022A90D08F
:102BA00004684FEA430E032202FA0EF224EA0204FA
:102BB0004A6802F0030202FA0EF2224302604A68F7
:102BC00012F4403FC7D000220192274A546C44F4CB
:102BD00080445464526C02F480420192019A9C0831
:102BE000A51C1F4A52F8255003F003024FEA820E3B
:102BF0000F2202FA0EF225EA02051C4A90423FF427
:102C000074AF02F5806290421AD002F58062904261
:102C100018D002F58062904216D002F58062904290
:102C200014D002F58062904212D002F58062904288
:102C300010D002F5806290423FF455AF082255E76C
:102C4000012253E7022251E703224FE704224DE716
:102C500005224BE7062249E702B070BD704700BF6E
:102C600000380140003C01400038024000000240B2
:102C70000AB181617047090481617047002800F042
:102C8000E08170B582B00446036813F0010F3BD0B9
:102C90009F4B9B6803F00C03042B2CD09C4B9B6830
:102CA00003F00C03082B21D06368B3F5803F4FD0AD
:102CB000B3F5A02F52D0964B1A6822F480321A60D6
:102CC0001A6822F480221A606368002B50D0FFF744
:102CD00063FC05468E4B1B6813F4003F14D1FFF7CD
:102CE0005BFC401B6428F5D90320B1E1884B5B688D
:102CF00013F4800FD8D0864B1B6813F4003F03D029
:102D00006368002B00F09F81236813F0020F54D0FA
:102D10007F4B9B6813F00C0F3ED07D4B9B6803F0FC
:102D20000C03082B33D0E368002B68D0794B0122C9
:102D30001A60FFF731FC0546754B1B6813F0020F54
:102D400054D1FFF729FC401B0228F5D903207FE16D
:102D50006F4A136843F480331360B5E76C4B1A680D
:102D600042F480221A601A6842F480321A60ABE79B
:102D7000FFF712FC0546664B1B6813F4003FC3D0F7
:102D8000FFF70AFC401B6428F5D9032060E1604B83
:102D90005B6813F4800FC6D15D4B1B6813F0020F04
:102DA00003D0E368012B40F05081594A136823F0A7
:102DB000F803216943EAC1031360236813F0080F85
:102DC00042D063696BB3534B0122C3F8802EFFF7E7
:102DD000E3FB05464E4B5B6F13F0020F34D1FFF758
:102DE000DBFB401B0228F5D9032031E1484A136878
:102DF00023F0F803216943EAC1031360DDE7454B83
:102E000000221A60FFF7C8FB0546414B1B6813F010
:102E1000020FD2D0FFF7C0FB401B0228F5D90320D8
:102E200016E13C4B0022C3F8802EFFF7B5FB0546A8
:102E3000374B5B6F13F0020F06D0FFF7ADFB401B63
:102E40000228F5D9032003E1236813F0040F77D09B
:102E50002F4B1B6C13F0805F33D1002301932C4B5D
:102E60001A6C42F080521A641B6C03F08053019379
:102E7000019B0125284B1B6813F4807F23D0A36896
:102E8000012B34D0052B38D0214B1A6F22F00102D0
:102E90001A671A6F22F004021A67A368002B3DD04C
:102EA000FFF77AFB06461A4B1B6F13F0020F46D151
:102EB000FFF772FB801B41F288339842F3D903205D
:102EC000C6E00025D6E7144A136843F48073136004
:102ED000FFF762FB0646104B1B6813F4807FCED1D0
:102EE000FFF75AFB801B0228F5D90320B0E0084AFF
:102EF000136F43F001031367CFE7054B1A6F42F0DE
:102F000004021A671A6F42F001021A67C5E700BF90
:102F1000003802400000474200700040FFF73CFBD1
:102F20000646524B1B6F13F0020F08D0FFF734FB1D
:102F3000801B41F288339842F3D9032088E0EDB931
:102F4000A369002B00F08380484A926802F00C02CB
:102F5000082A51D0022B17D0454B00221A66FFF7E2
:102F60001BFB0446414B1B6813F0007F42D0FFF768
:102F700013FB001B0228F5D9032069E03B4A136CC0
:102F800023F080531364DBE7394B00221A66FFF706
:102F900003FB0546354B1B6813F0007F06D0FFF797
:102FA000FBFA401B0228F5D9032051E0E369226AAD
:102FB0001343626A43EA8213A26A5208013A43EA5F
:102FC0000243E26A43EA0263284A5360284B012223
:102FD0001A66FFF7E1FA0446244B1B6813F0007FE2
:102FE00006D1FFF7D9FA001B0228F5D903202FE0FC
:102FF00000202DE000202BE0012B2BD01B4B5B6829
:1030000003F48001E269914226D103F03F02216A74
:103010008A4223D1616A47F6C0721A40B2EB811F1F
:103020001ED103F44031A26A5208013AB1EB024FBB
:1030300018D103F07063E26AB3EB026F14D1002081
:1030400006E001207047012002E0012000E000209E
:1030500002B070BD0120FBE70120F9E70120F7E78E
:103060000120F5E70120F3E70120F1E700380240F5
:103070000000474208B5254B9B6803F00C03042B66
:103080003FD0082B3FD1214B5A6802F03F025B68CA
:1030900013F4800F12D01D4B5968C1F388111C48DE
:1030A0000023A1FB0001FDF7ABF8184B5B68C3F3ED
:1030B000014301335B00B0FBF3F025E0134B59688B
:1030C000C1F3881C4FEA4C11B1EB0C006EEB0E0EF5
:1030D0004FEA8E1343EA90638101091A63EB0E03F2
:1030E000DB0043EA5173C90011EB0C0C43F1000300
:1030F000990200234FEA8C2041EA9C51FDF780F8A9
:10310000D3E7034800E0034808BD00BF0038024091
:10311000001BB7000024F400002800F09B8070B56D
:103120000D4604464F4B1B6803F007038B4208D241
:10313000CBB24C4A1370136803F007038B4240F084
:103140008B80236813F0020F17D013F0040F04D004
:10315000454A936843F4E0539360236813F0080FE3
:1031600004D0414A936843F4604393603E4A9368B5
:1031700023F0F003A1680B439360236813F0010F61
:1031800032D06368012B21D09A1E012A25D9364AF4
:10319000126812F0020F61D033498A6822F00302EC
:1031A00013438B60FFF7F8F906462F4B9B6803F03B
:1031B0000C036268B3EB820F16D0FFF7EDF9801BAA
:1031C00041F288339842F0D9032042E0264A12683F
:1031D00012F4003FE0D101203BE0234A126812F0D4
:1031E000007FD9D1012034E01E4B1B6803F0070398
:1031F000AB4207D9EAB21B4B1A701B6803F00703F6
:10320000AB422DD1236813F0040F06D0164A936801
:1032100023F4E053E1680B439360236813F0080F35
:1032200007D0114A936823F46043216943EAC1033C
:103230009360FFF71FFF0C4B9B68C3F303130B4A0C
:10324000D35CD8400A4B18600A4B1868FFF77CF82B
:10325000002070BD012070470120FAE70120F8E747
:103260000120F6E7003C02400038024000B70008A9
:103270001800002020000020014B1868704700BF94
:103280001800002008B5FFF7F7FF044B9B68C3F355
:103290008223034AD35CD84008BD00BF00380240F7
:1032A00010B7000808B5FFF7E7FF044B9B68C3F3AE
:1032B0004233034AD35CD84008BD00BF0038024007
:1032C00010B700080F2303600B4B9A6802F003024B
:1032D00042609A6802F0F00282609A6802F4E0525A
:1032E000C2609B68DB0803F4E0530361034B1B6877
:1032F00003F007030B60704700380240003C0240B7
:103300002DE9F04782B00546884617461E46FFF76E
:1033100043F90A9B1B1A03EB0609FFF73DF98246A6
:103320002B4B1B68C3F3CB3309FB03F301932B68CF
:103330009C6838EA04030CBF4FF0010C4FF0000CFE
:10334000BC4540D0B6F1FF3FF1D0FFF725F9A0EB27
:103350000A0048450AD2B9F1000F07D0019A02B11C
:103360004A46019B013B01939146E0E72A68536876
:1033700023F0E00353606B68B3F5827F0BD0AB6A38
:10338000B3F5005F14D0012385F85130002385F890
:103390005030032018E0AB68B3F5004F02D0B3F50E
:1033A000806FECD12A68136823F040031360E6E7CE
:1033B0002A68136823F4005313602A68136843F4DF
:1033C00000531360DFE7002002B0BDE8F08700BFC4
:1033D0001800002010B584B00446164B1868164B30
:1033E000A3FB0030400D4FF47A7303FB00F0039011
:1033F0006368B3F5827F0BD0039BBBB1039B013B9A
:10340000039323689B6813F0800FF5D100200EE032
:1034100000920B46002280212046FFF771FF30B159
:10342000636D43F020036365032000E0002004B0D7
:1034300010BD00BF18000020819F5E1600285AD0E2
:1034400010B50446436A33B94368B3F5827F05D0AB
:103450000023C36102E00023036143610023A362F0
:1034600094F85130002B40D0022384F85130226868
:10347000136823F040031360636803F48273A26847
:1034800002F404421343E26802F400621343226927
:1034900002F002021343626902F001021343A269BF
:1034A00002F400721343E26902F038021343226A05
:1034B00002F080021343A26A02F40052216813430F
:1034C0000B60638B03F00403626A02F01002216850
:1034D00013434B602268D36923F40063D361002057
:1034E0006065012384F8513010BD84F850302046C7
:1034F000FEF708FEB8E7012070472DE9F04383B0DE
:103500001F460A9D90F85030012B00F010810446B0
:1035100088469146012380F85030FFF73DF8064673
:1035200094F85130DBB26268012B0AD0B2F5827F89
:1035300040F0E380A268002A40F0E980042B40F0CC
:10354000E880B8F1000F00F0E680B9F1000F00F05C
:10355000E480002F00F0E38094F85130DBB2042BBC
:1035600002D0052384F8513000236365C4F83890F5
:10357000E787A787C4F83080E786A786236463645B
:1035800023681A6812F0400F03D11A6842F0400213
:103590001A60E368B3F5006F11D063680BB1012FB7
:1035A0000BD1226B236812781A73236B01332363C8
:1035B000E38E9BB2013B9BB2E38601276BE063681D
:1035C0000BB1012F0BD1226B23681288DA60236BB9
:1035D00002332363E38E9BB2013B9BB2E386012758
:1035E0001CE023689A6812F0010F0ED0E28F92B2AD
:1035F0005AB1DA68A36B1A80A36B0233A363E38F1B
:103600009BB2013B9BB2E3870127FEF7C5FF801BFE
:10361000A84203D3B5F1FF3F40F08380E38E9BB215
:103620001BB9E38F9BB2002B53D023689A6812F02A
:10363000020FD6D0E28E92B2002AD2D0002FD0D084
:10364000226B1288DA60236B02332363E38E9BB212
:10365000013B9BB2E3860027C3E723689A6812F018
:10366000010F0ED0E28F92B25AB1DA68A36B1A70D2
:10367000A36B0133A363E38F9BB2013B9BB2E38750
:103680000127FEF789FF831BAB4202D3B5F1FF3F51
:1036900049D1002D49D0E38E9BB213B9E38F9BB281
:1036A000BBB123689A6812F0020FD6D0E28E92B2B4
:1036B000002AD2D0002FD0D0226B12781A73236B3D
:1036C00001332363E38E9BB2013B9BB2E386002769
:1036D000C3E7324629462046FFF77CFE48B9A36877
:1036E00063B901932368DA6801929B680193019B97
:1036F00004E020236365012000E00220012384F818
:103700005130002384F8503003B0BDE8F08302202C
:10371000F4E70220F2E70120F0E70120EEE70120C4
:10372000ECE70320EAE70320E8E70320E6E70220CE
:10373000EAE7704790F83D30DBB2012B37D1022326
:1037400080F83D300268D36843F00103D36003681A
:10375000194A934220D0B3F1804F1DD0A2F57C428C
:10376000934219D002F58062934215D002F580622F
:10377000934211D002F5784293420DD002F5705277
:10378000934209D0A2F59432934205D01A6842F0D0
:1037900001021A60002070479A6802F00702062AA8
:1037A00007D01A6842F001021A6000207047012019
:1037B00070470020704700BF00000140704770470D
:1037C0007047704710B5044603681A6912F0020F7B
:1037D00011D0DA6812F0020F0DD06FF002021A61F8
:1037E0000123037703689B6913F0030F70D0FFF781
:1037F000E6FF0023237723681A6912F0040F12D022
:10380000DA6812F0040F0ED06FF004021A6102237E
:10381000237723689B6913F4407F5FD02046FFF72E
:10382000CEFF0023237723681A6912F0080F12D005
:10383000DA6812F0080F0ED06FF008021A61042344
:1038400023772368DB6913F0030F4ED02046FFF780
:10385000B6FF0023237723681A6912F0100F12D0E5
:10386000DA6812F0100F0ED06FF010021A61082300
:1038700023772368DB6913F4407F3DD02046FFF7B0
:103880009EFF0023237723681A6912F0010F03D0EB
:10389000DA6812F0010F36D123681A6912F0800F2E
:1038A00003D0DA6812F0800F34D123681A6912F05D
:1038B000400F03D0DA6812F0400F32D123681A6942
:1038C00012F0200F03D0DA6812F0200F30D110BDB3
:1038D000FFF774FF2046FFF773FF8AE72046FFF7E4
:1038E0006DFF2046FFF76CFF9BE72046FFF766FF62
:1038F0002046FFF765FFACE72046FFF75FFF204655
:10390000FFF75EFFBDE76FF001021A612046FEF788
:10391000B5F9C1E76FF080021A61204600F0A1F806
:10392000C3E76FF040021A612046FFF74AFFC5E780
:103930006FF020021A61204600F092F8C7E70000FD
:103940000368304A904212D0B0F1804F0FD0A2F5F8
:103950007C4290420BD002F58062904207D002F583
:103960008062904203D002F57842904203D123F066
:1039700070034A681343234A90422AD0B0F1804F23
:1039800027D0A2F57C42904223D002F5806290427B
:103990001FD002F5806290421BD002F5784290421F
:1039A00017D002F57052904213D002F58062904217
:1039B0000FD002F5806290420BD0A2F5983290426F
:1039C00007D002F58062904203D002F580629042F7
:1039D00003D123F44073CA68134323F080034A6978
:1039E000134303608B68C3620B688362054B984284
:1039F00003D003F58063984201D10B69036301236F
:103A0000436170470000014040B310B5044690F890
:103A10003D30F3B1022384F83D30214651F8040BC8
:103A2000FFF78EFF012384F8463084F83E3084F897
:103A30003F3084F8403084F8413084F8423084F8D4
:103A4000433084F8443084F8453084F83D30002019
:103A500010BD80F83C30FFF76CFEDBE701207047BB
:103A600070477047026802F10C0353E8003F23F4EB
:103A700090730C3242E800310029F3D1026802F160
:103A8000140353E8003F23F00103143242E80031ED
:103A90000029F3D1036B012B05D0202380F83E30A1
:103AA000002303637047026802F10C0353E8003FF0
:103AB00023F010030C3242E800310029F3D1ECE787
:103AC00090F83D30DBB2212B01D002207047836893
:103AD000B3F5805F17D0036A5A1C02621A78036834
:103AE0005A60C38C9BB2013B9BB2C3844BB9026842
:103AF000D36823F08003D3600268D36843F04003A7
:103B0000D360002070470369002BE4D1036A1B884F
:103B10000268C3F308035360036A02330362E0E7F9
:103B200038B504460268136923F44053C1680B4357
:103B3000136183680269134342691343C2691A43DC
:103B40000168CB6823F4164323F00C031343CB60C6
:103B50000268536923F4407381690B43536103681E
:103B6000314A934206D002F58062934202D0FFF7B9
:103B700089FB01E0FFF796FBE369B3F5004F29D01D
:103B80000021031849411B1841F10001C90041EA15
:103B90005371DB00181863684FEA83024FEA93738E
:103BA00041F10001FCF72CFB204DA5FB003251092F
:103BB000642303FB11031B013233A5FB03235B09C1
:103BC00003F0F00202EB011203F00F03216813442B
:103BD0008B6038BD0023021843EB0301121841F13A
:103BE0000001C90041EA5271D200101841F10001F0
:103BF000626892185B41FCF703FB0C4DA5FB003299
:103C00005109642303FB1103DB003233A5FB0323BB
:103C10005B095A0002F4F87202EB011203F0070389
:103C2000216813448B60D4E7001001401F85EB51DD
:103C30002DE9F84305460F4616469946DDF82080E3
:103C40002C68246837EA04030CBF4FF0010C4FF0D6
:103C5000000CB4452DD1B8F1FF3FF1D0B8F1000F01
:103C600005D0FEF799FCA0EB09004045E8D92A6889
:103C700002F10C0353E8003F23F4D0730C3242E806
:103C800000310029F3D12A6802F1140353E8003F00
:103C900023F00103143242E800310029F3D120233C
:103CA00085F83D3085F83E30002385F83C30032010
:103CB00000E00020BDE8F88358B310B5044690F842
:103CC0003D300BB3242384F83D302268D36823F4BD
:103CD0000053D3602046FFF723FF2268136923F4C3
:103CE000904313612268536923F02A0353612268C9
:103CF000D36843F40053D36000202064202384F869
:103D00003D3084F83E3010BD80F83C30FEF746FA76
:103D1000D8E7012070472DE9F04182B01E4690F8A7
:103D20003D30DBB2202B54D104460D46904600298D
:103D300053D0002A53D090F83C30012B51D00123AE
:103D400080F83C3000230364212380F83D30FEF7E7
:103D500023FC0746A4F82480A4F82680A368B3F5C2
:103D6000805F05D04FF00008002384F83C3012E05B
:103D7000236913B14FF00008F6E7A8460025F3E7E2
:103D800038F8023B2268C3F308035360E28C92B216
:103D9000013A92B2E284E38C9BB273B100963B4647
:103DA000002280212046FFF743FFE0B9002DE7D035
:103DB00015F8012B23685A60E8E700963B4600227D
:103DC00040212046FFF734FF78B9202384F83D30A6
:103DD00000E0022002B0BDE8F0810120FAE70120F6
:103DE000F8E70220F6E70320F4E70320F2E7704744
:103DF00008B50168CA6822F04002CA60202280F833
:103E00003D20FFF7F4FF002008BD7047704708B55C
:103E1000806B0023C385C384FFF7F8FF08BD70479C
:103E200090F83E30DBB2222B67D18368B3F5805F18
:103E30004DD0826AB3F5805F04D0002B54D1036962
:103E4000002B51D103685B681370836A013383626E
:103E5000C38D9BB2013B9BB2C385002B4FD100B5F4
:103E600083B00268D36823F02003D3600268D3686C
:103E700023F48073D3600268536923F00103536114
:103E8000202380F83E30036B012B33D100230363E2
:103E9000026802F10C0353E8003F23F010030C32D8
:103EA00042E800310029F3D103681A6812F0100FBC
:103EB00006D0002201921A6801925B680193019B6F
:103EC000818DFFF7ACFF002003B05DF804FB0269B1
:103ED000002AAED1826A03685B68C3F308031380CB
:103EE000836A02338362B3E703685B6803F07F038E
:103EF0001370AAE7FFF789FFE5E70220704700206B
:103F00007047000030B583B0044602681368D0687B
:103F1000516913F00F0505D113F0200F02D010F0F6
:103F2000200F19D12DB111F0010119D110F4907F9A
:103F300016D1216B01297DD013F0800F03D010F032
:103F4000800F40F0158113F0400F03D010F0400FA8
:103F500040F0128103B030BD2046FFF761FFF9E762
:103F600013F0010F06D010F4807F03D0226C42F0D2
:103F70000102226413F0040F04D019B1226C42F044
:103F80000202226413F0020F04D019B1226C42F035
:103F90000402226413F0080F07D010F0200F00D1A4
:103FA00019B1226C42F008022264226C002AD1D09E
:103FB00013F0200F02D010F0200F29D123685B6985
:103FC00003F04003226C12F0080F00D163B32046C7
:103FD000FFF748FD23685B6913F0400F20D022688B
:103FE00002F1140353E8003F23F04003143242E887
:103FF00000310029F3D1A36B73B1614A1A65A06B3C
:10400000FEF742FC0028A5D0A06B036D9847A1E7FE
:104010002046FFF705FFD1E72046FFF7F7FE99E7B7
:104020002046FFF7F3FE95E72046FFF7EFFE00235B
:1040300023648FE713F0100F3FF47EAF10F0100FE2
:104040003FF47AAF002301931368019353680193FF
:10405000019B536913F0400F50D0A26B13685B684B
:104060009BB2002B3FF476AFA18D99427FF672AFE1
:10407000E385D369B3F5807F37D0226802F10C0362
:1040800053E8003F23F480730C3242E800310029EA
:10409000F3D1226802F1140353E8003F23F0010337
:1040A000143242E800310029F3D1226802F11403EE
:1040B00053E8003F23F04003143242E80031002966
:1040C000F3D1202384F83E3000232363226802F1D9
:1040D0000C0353E8003F23F010030C3242E8003198
:1040E0000029F3D1A06BFEF785FBA18DE38D9BB278
:1040F000C91A89B22046FFF792FE2BE7A18DE38D06
:104100009BB2C91A89B2E38D9BB2002B3FF422AF58
:1041100000293FF41FAF226802F10C0353E8003F6F
:1041200023F490730C3242E800300028F3D1226867
:1041300002F1140353E8003F23F00103143242E874
:1041400000300028F3D1202384F83E30002323637D
:10415000226802F10C0353E8003F23F010030C32F5
:1041600042E800300028F3D12046FFF758FEF1E680
:104170002046FFF7A5FCEDE62046FFF739FEE9E60D
:104180000F3E0008842801D003307047002070479C
:1041900008B500F037FD002008BD2DE9F04387B0D9
:1041A00004460F464569BDB18669AEB1D0F80480BA
:1041B000D0F80090B0F90800FFF7E4FF02960195EF
:1041C00000903B4622694946404600F0ABFC059012
:1041D000059807B0BDE8F08365682668D4F81080BC
:1041E000B4F90800FFF7CEFF05AB019300903B4602
:1041F0001FFA88F23146284600F0CFFC0128E7D0AC
:104200000020E6E708B500B9012000F045FE0020D7
:1042100008BD00F1080343604FF0FF328260C360C5
:104220000361002303607047002303617047436804
:104230004B609A688A605160996008610368013335
:104240000360704730B40D68B5F1FF3F11D000F145
:1042500008031C465B681A68AA42FAD963684B6077
:1042600099608C606160086103680133036030BC51
:1042700070470469F2E70369416882688A604168AF
:1042800051605A68824206D0002202611A68013ADF
:104290001A601868704782685A60F5E782B0002398
:1042A00001930D4B1B68B3F1FF3F08D04FF0500353
:1042B00083F31188BFF36F8FBFF34F8FFEE74FF08B
:1042C000500383F31188BFF36F8FBFF34F8F019BB0
:1042D000002BFCD002B07047240000200848006882
:1042E000006880F308884FF0000080F3148862B6FD
:1042F00061B6BFF34F8FBFF36F8F00DF00BF0000C9
:1043000008ED00E0DFF80C00016841F47001016085
:104310007047000088ED00E04FF0807340F8043CE7
:1043200021F0010140F8081C054B40F80C3C40F816
:10433000202C6FF0020340F8243C4438704700BF43
:104340009D42000800000000000000000000000086
:10435000074B19680868B0E8F04F80F30988BFF38D
:104360006F8F4FF0000080F311887047AFF300802B
:10437000144B00204FF0500383F31188BFF36F8F6D
:10438000BFF34F8F0B4A136801331360012B00D02A
:1043900070474FF0E023D3F8043D13F0FF0FF7D040
:1043A0004FF0500383F31188BFF36F8FBFF34F8F2C
:1043B000FEE700BF24000020094B1B6843B94FF003
:1043C000500383F31188BFF36F8FBFF34F8FFEE766
:1043D000013B034A13600BB983F31188704700BF98
:1043E0002400002000000000000000000000000089
:1043F000EFF30980BFF36F8F154B1A681EF0100F93
:1044000008BF20ED108A20E9F04F10602DE9090067
:104410004FF0500080F31188BFF34F8FBFF36F8FC1
:1044200000F060FD4FF0000080F3118809BC1968AE
:104430000868B0E8F04F1EF0100F08BFB0EC108A0B
:1044400080F30988BFF36F8F704700BFAFF3008020
:10445000144B002008B54FF0500383F31188BFF3CD
:104460006F8FBFF34F8F00F00FFC28B14FF0E023A8
:104470004FF08052C3F8042D002383F3118808BD48
:104480004FF0E022002313619361054B1B6805493F
:10449000A1FB03139B09013B536107231361704781
:1044A00018000020D34D62104FF0E023D3F8002D08
:1044B0003D4B9A421CD04FF0E023D3F8002D3B4BEC
:1044C0009A421ED030B583B0394B1A78D2B20192DD
:1044D000FF221A701B78DBB28DF803309DF8033091
:1044E00003F05003334A1370334B07221A601BE06A
:1044F0004FF0500383F31188BFF36F8FBFF34F8FDB
:10450000FEE74FF0500383F31188BFF36F8FBFF3C3
:104510004F8FFEE7284A1368013B13609DF8033074
:104520005B00DBB28DF803309DF8033013F0800F91
:10453000F0D1214B1B68032B08D04FF0500383F3BD
:104540001188BFF36F8FBFF34F8FFEE71B021A4A2C
:10455000136003F4E0631360019BDBB2144A137031
:104560004FF0E024D4F8203D43F47003C4F8203D1C
:10457000D4F8203D43F07043C4F8203DFFF780FF9E
:1045800000250E4B1D60FFF7BDFED4F8343F43F00D
:104590004043C4F8343FFFF7A1FE00F0A3FCFFF74F
:1045A0007DFE284603B030BD71C20F4170C20F417D
:1045B00000E400E0EC0E0020F00E002024000020BB
:1045C000124A12F0070F1ED0D11D21F00701C1F5CC
:1045D000705313440A460E480260002141601344A0
:1045E000083B23F007030B48036059601960991AD0
:1045F00051601360084B1960084B1960084B4FF06D
:1046000000421A6070474FF47053E4E7F80E002040
:104610000C4B0020F40E0020004B0020FC4A002030
:10462000F84A0020164B1A461B688342FBD3516898
:1046300002EB010C844509D0416800EB010C634595
:1046400009D00360904219D010607047406801445F
:1046500051601046F0E710B40A4C2468A3420BD016
:104660005B681944416013681B680360904200D086
:1046700010605DF8044B70470460F7E7704700BFB7
:104680000C4B0020F40E002070B5054600F0F4FA43
:10469000364B1B68A3B1364B1B681D424ED135B15A
:1046A000083515F0070F02D025F007050835002D55
:1046B00046D0304B1B68AB4251D32F4A146804E0FC
:1046C000FFF77EFFE7E722461C466368AB4202D253
:1046D0002368002BF7D1254B1B68A34241D01668F5
:1046E00008362368136063685B1B102B10D96019B0
:1046F00010F0070F08D04FF0500383F31188BFF379
:104700006F8FBFF34F8FFEE743606560FFF78AFF4F
:10471000626818490B689B1A0B60184909688B423C
:1047200001D216490B60124B1B68134363600023D0
:104730002360134A13680133136002E0002600E08F
:10474000002600F02DFB16F0070F0CD04FF05003A1
:1047500083F31188BFF36F8FBFF34F8FFEE70026FF
:10476000EFE70026EDE7304670BD00BFF40E0020F5
:10477000F84A0020FC4A00200C4B0020004B00208F
:10478000044B0020002834D038B50446A0F10805B9
:1047900050F8043C174A1268134208D14FF05003F6
:1047A00083F31188BFF36F8FBFF34F8FFEE750F88D
:1047B000081C41B14FF0500383F31188BFF36F8F92
:1047C000BFF34F8FFEE723EA020340F8043C00F0FA
:1047D00053FA54F8041C084A13680B441360284623
:1047E000FFF720FF054A13680133136000F0D8FA81
:1047F00038BD7047F84A0020FC4A0020084B0020D2
:10480000084B1B681B6823B9074B4FF0FF321A6037
:104810007047044B1B68DB68DB685A68024B1A6000
:10482000704700BF184B0020EC4B00202DE9F047EB
:1048300007469846089DDDF824900A9C266B02F1F5
:104840008042013A06EB820626F0070600293AD09C
:104850008E464FF0000CBCF10F0F0BD81EF80C2049
:1048600004EB0C0383F834201EF80C3013B10CF168
:10487000010CF0E7002384F84330062D00D906250B
:10488000E56265644FF0000AC4F848A0201DFFF7F8
:10489000CBFC04F11800FFF7C7FC2461C5F1070544
:1048A000A5616462C4F84CA084F850A04246394621
:1048B0003046FFF731FD2060B9F1000F01D0C9F893
:1048C0000040BDE8F087002384F83430D5E70000CD
:1048D00038B5002407E004EB840293000E48184426
:1048E000FFF797FC0134062CF5D90C4D2846FFF74D
:1048F00090FC0B4C2046FFF78CFC0A48FFF789FC24
:104900000948FFF786FC0948FFF783FC084B1D6048
:10491000084B1C6038BD00BF204B0020C04B00205E
:10492000D44B0020F84B0020244C0020104C0020D9
:10493000184B00201C4B002010B50446FFF71AFD51
:10494000214A136801331360204B1B685BB1204B75
:104950001B686BB91D4B1B68DA6AE36A9A4207D879
:104960001A4B1C6004E0194B1C601368012B28D003
:10497000184A136801331360E06A01238340164A22
:1049800011680B43136000EB8000211D134B03EBF8
:104990008000FFF74CFCFFF70FFD0D4B1B687BB150
:1049A0000A4B1B68DA6AE36A9A4209D24FF0E023A5
:1049B0004FF08052C3F8042DBFF34F8FBFF36F8FBA
:1049C00010BDFFF785FFD3E7AC4B0020144B002050
:1049D0000C4C0020B84B0020BC4B0020204B00208A
:1049E00010B5044690F8513063B1012B11D0022B61
:1049F0000ED04FF0500383F31188BFF36F8FBFF3D6
:104A00004F8FFEE7006BFFF7BDFE2046FFF7BAFEB3
:104A100010BDFFF7B7FEFBE70F4B1B68D3B110B516
:104A2000FFF7A8FC0D4BDB68DC68201DFFF723FCBB
:104A30000B4A1368013B1360074A1368013B13607C
:104A4000FFF7BAFC2046FFF7CBFF034B1B68002B98
:104A5000E6D110BD704700BFB04B0020244C0020B1
:104A6000AC4B002008B5FFF7D7FF074B1B68012BA5
:104A7000F9D94FF0E0234FF08052C3F8042DBFF373
:104A80004F8FBFF36F8FEEE7204B002070B50446C9
:104A90000D461D4B1E681D4B18680430FFF7EBFBDD
:104AA00050B91A4B1B68DA6A012303FA02F218495B
:104AB0000B6823EA02030B60B4F1FF3F0DD03444CE
:104AC000124B1B685C60A64210D9124B18680F4B42
:104AD00019680431FFF7B6FB70BD002DEFD00B4B0A
:104AE000196804310C48FFF7A2FBF5E70B4B186877
:104AF000064B19680431FFF7A5FB094B1B68A3425D
:104B0000EAD9074B1C60E7E7384C0020144B002023
:104B1000BC4B00201C4B0020104C0020184B0020E8
:104B2000EC4B002030B587B00B9C7CB10C9DB5B12F
:104B300054250495049D542D1AD04FF0500383F34F
:104B40001188BFF36F8FBFF34F8FFEE74FF0500315
:104B500083F31188BFF36F8FBFF34F8FFEE74FF0E2
:104B6000500383F31188BFF36F8FBFF34F8FFEE7BE
:104B7000049D0C9D2C63022485F85140002403946D
:104B8000029505AC01940A9C0094FFF74FFE0C9827
:104B9000FFF7D2FE059807B030BD2DE9F04385B090
:104BA0000746884614461E469000FFF76DFD00B389
:104BB00081465420FFF768FD0546B0B1C0F830903B
:104BC000E5B1002385F85130039302950D9B0193C5
:104BD0000C9B00933346224641463846FFF726FE9B
:104BE0002846FFF7A9FE012005E04846FFF7CAFD69
:104BF000E6E74FF0FF3005B0BDE8F0834FF0FF303F
:104C0000F9E7000010B588B000240594069407AABF
:104C100006A905A8FCF778FF059B0293069B019364
:104C200000942346079A0E490E48FFF77BFF0E4B70
:104C3000186090B14FF0500383F31188BFF36F8F6A
:104C4000BFF34F8F094B4FF0FF321A60084B012220
:104C50001A60084B1C60FFF727FC08B010BD00BFAE
:104C600020B70008654A0008E84B0020EC4B002004
:104C70000C4C0020384C0020024A136801331360AA
:104C8000704700BFB44B0020F8B53A4B1B68002BAF
:104C900069D1394B1D6801351D60C5B9374B1B689B
:104CA0001B6843B14FF0500383F31188BFF36F8F3C
:104CB000BFF34F8FFEE7314A1168314B186810601F
:104CC0001960304A136801331360FFF799FD2E4BCA
:104CD0001B68AB423DD900272C4B1B68DB6A03EBFA
:104CE00083039A002A4B9B58012B00D90127294B9B
:104CF0001B68002B3CD001273AE001271F4B1B68A3
:104D00001B6843B31D4B1B68DB68DC6863689D420E
:104D100026D3261D3046FFF7AEFAA36A1BB104F175
:104D20001800FFF7A8FAE36A01229A401A490868B6
:104D300002430A6003EB83039A003146144810448F
:104D4000FFF775FAE26A114B1B68DB6A9A42D4D20C
:104D5000D4E70027D2E70C4B4FF0FF321A60BBE7D5
:104D6000094A1360B8E70D4A13680133136000273E
:104D70003846F8BDB44B0020384C0020184B0020BA
:104D80001C4B0020F04B0020EC4B0020144B00206B
:104D9000204B00203C4C0020BC4B0020F44B00205A
:104DA00038B5354B1B6843B94FF0500383F3118876
:104DB000BFF36F8FBFF34F8FFEE7FFF7DBFA2E4B8A
:104DC0001A68013A1A601B68002B4FD12B4B1B68E5
:104DD0000BB900244BE00024294B1B681BB3284B64
:104DE000DB68DC6804F11800FFF745FA251D28464A
:104DF000FFF741FAE06A01238340224A11680B431E
:104E0000136000EB800029461F4B03EB8000FFF787
:104E10000EFAE26A1D4B1B68DB6A9A42DCD31C4B1C
:104E200001221A60D8E70CB1FFF7EAFC194B1C68A5
:104E300084B9174B1C68D4B14FF0E0234FF0805277
:104E4000C3F8042DBFF34F8FBFF36F8F01240EE023
:104E5000013C07D0FFF718FF0028F9D00C4B0122C6
:104E60001A60F5E70B4B00221A60E2E70024FFF717
:104E7000A3FA204638BD00BFB44B0020AC4B002045
:104E8000F84B0020BC4B0020204B0020144B00208E
:104E90003C4C0020F44B002010B5A8B10446104B48
:104EA0001B6843B14FF0500383F31188BFF36F8F3A
:104EB000BFF34F8FFEE7FFF7DFFE00212046FFF72D
:104EC000E5FDFFF76DFF48B94FF0E0234FF080524A
:104ED000C3F8042DBFF34F8FBFF36F8F10BD00BF1A
:104EE000B44B0020204B1B681BB1204B01221A60E1
:104EF00070471E4B00221A601D4B1B68B3FA83F3E8
:104F0000DBB2C3F11F0303EB83018A0019498A58FE
:104F100042B94FF0500383F31188BFF36F8FBFF393
:104F20004F8FFEE7134903EB830082000A44506869
:104F30004068506003EB830C4FEA8C020832114446
:104F4000884209D003EB83039A000A4B13445B6841
:104F5000DA68094B1A607047406862469100054A5A
:104F60000A445060EEE700BFB44B00203C4C0020E8
:104F7000BC4B0020204B0020144B0020014B186834
:104F8000704700BF2800002070B50D4E0D4D761BF8
:104F9000B61006D0002455F8043B01349847A642C9
:104FA000F9D1094E094D761B06F02CFBB61006D040
:104FB000002455F8043B01349847A642F9D170BD4E
:104FC00020BB000820BB000828BB000820BB00084D
:104FD000830730B548D0541E002A3FD0CAB20346DA
:104FE00001E0013C3AD303F8012B9D07F9D1032CD2
:104FF0002DD9CDB245EA05250F2C45EA054536D910
:10500000A4F1100222F00F0C03F1200EE6444FEA47
:10501000121C03F1100242E9045542E90255103214
:105020007245F8D10CF1010214F00C0F03EB0212DF
:1050300004F00F0C13D0ACF1040323F0030304338A
:10504000134442F8045B9342FBD10CF003042CB1EF
:10505000CAB21C4403F8012B9C42FBD130BD64460C
:105060001346002CF4D1F9E703461446BFE71A466D
:10507000A446E0E70FB400B5074983B004AB086865
:1050800053F8042B8168019300F00AF803B05DF82F
:1050900004EB04B0704700BF2800002000000000AF
:1050A0002DE9F04F2DED0A8BCFB01C460AEE101AF9
:1050B00091460AEE900A054603F096F903681393A9
:1050C00018460994FBF71CFB12901DB1AB6B002B2B
:1050D00000F048821AEE102A536EDB0740F1478138
:1050E000B2F90C309AB2960409D41AEE101A43F4AD
:1050F00000538B819AB24B6E23F400534B66150715
:1051000040F1CC801AEE103A1B69002B00F0C680EB
:1051100002F01A030A2B00F0D2804D469FED9C7BD3
:105120002B78002425AACDE92344CDE91544CDE907
:1051300017448DED107B1AEE909A0E9422929046B1
:1051400014940694002B00F0B081AB4604E01BF8E9
:10515000013F002B00F0CD80252BF8D1BBEB0506DD
:1051600040F0CB809BF80030002B00F09E810023A4
:105170004FF0FF329BF801708DF86B3005930BF107
:10518000010B04929A462B2420210BF1010BA7F16D
:1051900020035A2B00F20081DFE813F00A03FE001F
:1051A000FE000503FE00FE00FE006A00FE00FE0099
:1051B00076029E02FE008102A802FE00A3025B00AE
:1051C0005B005B005B005B005B005B005B005B0007
:1051D000FE00FE00FE00FE00FE00FE00FE008E014E
:1051E000FE001602ED018E018E018E01FE00FE0012
:1051F000FE00FE000003FE00FE004502FE00FE0071
:10520000FE002002FE00C202FE00FE009907FE0022
:10521000FE00FE00FE00FE00FE00FE00FE008E010D
:10522000FE001602EF018E018E018E01E602EF01F3
:10523000E801FE00F302FE0086024702D402E80104
:10524000FE0020027D007507FE00FE007907FE00CB
:105250007D00A7F1300300221BF8017B02EB8202E4
:1052600003EB4202A7F13003092BF5D905928EE733
:10527000484603F0B9F8436817931846FBF740FA1D
:1052800018900646484603F0AFF88368159320212E
:10529000002E40F0E9869BF8007076E71AEE101AAF
:1052A0001AEE900A1AEE105A01F002FD002841F0A1
:1052B0002783AA8902F01A030A2B7FF42EAF1AEE75
:1052C000101AB1F90E30002BFFF627AF4B6ED9073D
:1052D00002D4920541F15A811AEE101A1AEE900A80
:1052E00023464A464FB0BDEC0A8BBDE8F04F01F0B3
:1052F0009FBCBBEB050600F0D880249B334424936D
:10530000239B0133072BC8E90056239305DC08F1E2
:105310000808069B3344069324E71AEE101A22AAC3
:10532000484604F04DF890B90DF19408F1E71AEEF3
:10533000101A22AA484604F043F8002800F0A6807C
:10534000089B23B11AEE900A194602F023FF1AEEC9
:10535000102A536ED80740F1FA8093895A0601F15A
:10536000D88206984FB0BDEC0A8BBDE8F08FB2F939
:105370000C309F059AB23FF5B6AE1AEE105AA86DE2
:1053800003F03AF8B5F90C309AB2ACE6AFF300800E
:105390000000000000000000002F00F086800023C5
:1053A0008DF8D4708DF86B300122CDE9072303927C
:1053B00004930C930F930D9335AD1AF002020A92E9
:1053C00002D0039A023203921AF084020B9205D1A2
:1053D000059A0399561A002E00F36883249C8BB11A
:1053E000239B0DF16B0201330134C8F80020072B19
:1053F0004FF0010224942393C8F8042000F39F8304
:1054000008F108080A9B83B1239B1BAA01330234CD
:10541000C8F80020072B4FF0020224942393C8F809
:10542000042000F3998308F108080B9B802B00F0FF
:105430006A82049B079A9E1A002E00F3AB821AF42C
:10544000807F40F00682079BC8F804301C44239BF1
:10545000C8F800500133072B2494239300F31983D9
:1054600008F108081AF0040F05D0059B039A9D1A4D
:10547000002D00F38583DDE9052303998A42ACBF43
:105480009B185B180693002C7FF451AF00232393E5
:10549000089B1BB10899484602F07CFE0DF1940868
:1054A0005D462B78002B7FF450AE249B002B41F0FF
:1054B0001B82002323934AE7099B073323F007034A
:1054C000B3EC027B8DED107BDDE91012099322F025
:1054D00000430BEE101A0BEE903A4FF0FF32B0EE95
:1054E0004B9AF0EE6B9AB74B51EC190BFBF7CCFDD6
:1054F000002840F0E884B34B51EC190B4FF0FF3219
:10550000FBF7A4FD002840F0DE84DDE91001002255
:105510000023FBF791FD002840F067879DF86B3072
:10552000A94DAA4A2AF0800A0321472FC8BF154671
:10553000002208920391079104920C920F920D920F
:10554000002B3FF43AAF039A0132039235E7938977
:1055500099053FF503AF1AEE104A906D02F04EFF29
:10556000A389FBE6284602F01DFDB3E59BF8007019
:105570004AF0200A09E64AF0100A1AF0200F099BA7
:1055800000F04084073323F007031A465B6852F8A3
:10559000084B09921E46002BC0F24384049B013342
:1055A00000F0BC822AF08003039354EA060340F023
:1055B000B782049B002B40F0B882DDF80CA00023DA
:1055C000049307934EAD1FE1099A002352F8041B80
:1055D0008DF86B308DF8D4100992E5E6099C54F8EB
:1055E000045B00268DF86B60002D00F08F85049B16
:1055F0005A1C00F051861A4631462846FBF720F81F
:105600000890002801F02F81089B0496591B0791F0
:1056100021EAE1719DF86B300994039108960C968C
:105620000F960D968CE74AF0100A1AF0200600F04B
:10563000C983099B073323F007035E6853F8084BBF
:1056400009932AF480630393002300228DF86B20D2
:10565000049A551C00F0C080039921F0800A54EA96
:10566000060140F0B780002A40F00786002BA6D143
:10567000039B13F00103079300F0148430238DF88B
:1056800037310DF23715BFE0099B53F8042B059213
:10569000002A80F2D583059A0993524205929BF81D
:1056A00000704AF0040A70E51AF0200F40F0D1842F
:1056B0001AF0100F40F0E7851AF0400F40F0A9866D
:1056C0001AF4007F00F0DF85099B069953F8042B3C
:1056D000099311705D46E4E69BF800708DF86B400D
:1056E00053E59BF800704AF0800A4EE55A4612F8DE
:1056F000017B2A2F01F06F82A7F13003092B93461B
:1057000098BF002201F2EC801BF8017B02EB8202C1
:1057100003EB4202A7F13003092BF5D9049236E5D9
:105720004AF010030393039B13F0200600F0598303
:10573000099B073323F007035E6853F8084B09936E
:10574000012382E7099B53F8044B099330234AF065
:10575000020278278DF86C301D4B149303928DF85C
:105760006D700026022370E79BF80070682F03BF5E
:105770009BF801704AF4007A0BF1010B4AF0400AE1
:1057800003E59BF800706C2F03BF9BF801704AF093
:10579000200A0BF1010B4AF0100AF6E49BF80070A6
:1057A0004AF0080AF1E49BF800704AF0010AECE4C0
:1057B0009DF86B30002B7FF46EAD9BF800708DF878
:1057C0006B10E2E4FFFFEF7F2CB7000830B7000852
:1057D0003CB70008CDF80CA0012B00F0A181022BF2
:1057E0004EAD20D1149A04F00F032409D35C05F8C0
:1057F000013D44EA0674360954EA0603F3D14EAB80
:105800005B1BDDF80CA00793049907989DF86B309B
:1058100081424FF00002B8BF0146089203910C92FA
:105820000F920D928CE604F00703E40844EA4674F4
:10583000F608303354EA06012A4605F8013DF2D154
:105840000399CC0700F175824EAB5B1B8A46079328
:10585000DAE7652F40F3D780DDE91001002200234D
:10586000FBF7E0FB002800F0C681239BC14AC8F883
:105870000020013301340122072B24942393C8F81C
:10588000042000F3DE8408F108081C9B0E9A934262
:1058900080F2D182129B139A1C44C8E90023239BF7
:1058A00024940133072B239300F3228408F1080882
:1058B0000E9B5D1E002D7FF7D5AD102D239B41F370
:1058C0006981AD4F0A97224610261AEE104A05E06C
:1058D00008F10808103D102D40F3C1840133103247
:1058E000072BC8E90076CDE92332F1DD22AA214653
:1058F000484603F065FD00287FF422ADDDE9233240
:105900000DF19408E6E7059B039A9E1A002E7FF797
:1059100090AD102E239B41F33F8097490B95224673
:105920001AEE105A0A910C4604E0103E102E08F1AF
:10593000080819DD013310321021072BCDE923327D
:10594000C8F80040C8F80410EFDD22AA29464846EE
:105950000DF1940803F034FD00287FF4F1AC103E03
:10596000102EDDE92332E5DC0B9D144601330A9A43
:10597000C8F800203444072BCDE92334C8F804606C
:1059800000F3A883049B079A9E1A002E08F10808CA
:105990007FF755AD102E239B40F30F8576480A9074
:1059A000424621461AEE108A044604E0103E102EAC
:1059B00002F1080216DD013310311020072BCDE96A
:1059C000233114605060F1DD22AA4146484603F0BD
:1059D000F7FC00287FF4B4AC103E102EDDE9233133
:1059E00025AAE8DC90460C4601330A9AC8F8002044
:1059F0003444072BCDE92334C8F8046000F3D48184
:105A000008F108081BE50E9B012B40F37381239ED0
:105A1000C8F80050013601340123072E2494239640
:105A2000C8F8043000F3968308F10808129B139A13
:105A300001361C44072EC8E90023CDE9236400F396
:105A4000978308F10808DDE9100100220023FBF725
:105A5000E9FA002840F07B810E9B0136013B0135BD
:105A60001C44072EC8F800502396C8F8043024942C
:105A700000F3518108F10808169BC8F8043001367C
:105A80001C44072E1EABCDE92364C8F800307FF715
:105A9000E7AC1AEE101A22AA484603F091FC00283F
:105AA0007FF44EAC249C0DF19408DBE4102EDDE96C
:105AB000233222DD199510241AEE105A04E0103E0C
:105AC000102E08F1080817DD01332C491032072B7E
:105AD000C8E90014CDE92332F1DD22AA294648465F
:105AE0000DF1940803F06CFC00287FF429AC103E03
:105AF000102EDDE92332E7DC199DC8F8046001337C
:105B0000B418072B1D4AC8F80020CDE9233400F350
