:020000040800F2
:1000000000000220211D0008251C0008271C0008F4
:10001000291C00082B1C00082D1C000800000000F3
:10002000000000000000000000000000F1370008A0
:100030002F1C00080000000091380008F538000867
:10004000711D0008711D0008711D0008711D000858
:10005000711D0008711D0008711D0008711D000848
:10006000711D0008711D0008711D0008711D000838
:10007000711D0008711D0008711D0008711D000828
:10008000711D0008711D0008711D0008711D000818
:10009000711D0008711D0008711D0008711D000808
:1000A000711D0008711D0008711D0008711D0008F8
:1000B000711D0008711D0008711D0008711D0008E8
:1000C000711D0008711D0008711D0008711D0008D8
:1000D000711D0008311C0008711D0008711D000809
:1000E000711D0008711D0008711D0008711D0008B8
:1000F000711D0008711D0008711D0008711D0008A8
:10010000711D0008711D0008711D0008711D000897
:10011000711D0008711D0008411C0008711D0008B8
:10012000711D0008711D0008711D0008711D000877
:10013000711D0008711D0008711D0008711D000867
:10014000711D0008711D0008711D0008711D000857
:10015000711D0008711D0008711D0008711D000847
:10016000711D0008711D0008711D0008711D000837
:10017000711D0008711D0008711D000800000000BD
:08018000711D0008711D00084B
:1001C00010B5054C237833B9044B13B10448AFF391
:1001D00000800123237010BDC8090020000000002A
:1001E000D0A4000808B5034B1BB103490348AFF383
:1001F000008008BD00000000CC090020D0A4000849
:1002000081F0004102E000BF83F0004330B54FEAC7
:1002100041044FEA430594EA050F08BF90EA020F34
:100220001FBF54EA000C55EA020C7FEA645C7FEAC7
:10023000655C00F0E2804FEA5454D4EB5555B8BFEA
:100240006D420CDD2C4480EA020281EA030382EA5B
:10025000000083EA010180EA020281EA0303362DED
:1002600088BF30BD11F0004F4FEA01314FF4801CC0
:100270004CEA113102D0404261EB410113F0004FD2
:100280004FEA03334CEA133302D0524263EB430389
:1002900094EA050F00F0A780A4F10104D5F1200E27
:1002A0000DDB02FA0EFC22FA05F2801841F1000182
:1002B00003FA0EF2801843FA05F359410EE0A5F156
:1002C00020050EF1200E012A03FA0EFC28BF4CF087
:1002D000020C43FA05F3C01851EBE37101F000453D
:1002E00007D54FF0000EDCF1000C7EEB00006EEB4A
:1002F0000101B1F5801F1BD3B1F5001F0CD34908D4
:100300005FEA30004FEA3C0C04F101044FEA44522A
:1003100012F5800F80F09A80BCF1004F08BF5FEAB1
:10032000500C50F1000041EB045141EA050130BD91
:100330005FEA4C0C404141EB0101013C28BFB1F5A3
:10034000801FE9D291F0000F04BF01460020B1FAEE
:1003500081F308BF2033A3F10B03B3F120020CDAC1
:100360000C3208DD02F1140CC2F10C0201FA0CF09F
:1003700021FA02F10CE002F11402D8BFC2F1200C04
:1003800001FA02F120FA0CFCDCBF41EA0C019040BA
:10039000E41AA2BF01EB0451294330BD6FEA040403
:1003A0001F3C1CDA0C340EDC04F11404C4F12002EE
:1003B00020FA04F001FA02F340EA030021FA04F300
:1003C00045EA030130BDC4F10C04C4F1200220FA57
:1003D00002F001FA04F340EA0300294630BD21FA95
:1003E00004F0294630BD94F0000F83F4801306BF5B
:1003F00081F480110134013D4EE77FEA645C18BF4F
:100400007FEA655C29D094EA050F08BF90EA020FE5
:1004100005D054EA000C04BF1946104630BD91EADD
:10042000030F1EBF0021002030BD5FEA545C05D1E0
:100430004000494128BF41F0004130BD14F580041F
:100440003CBF01F5801130BD01F0004545F0FE4193
:1004500041F470014FF0000030BD7FEA645C1ABFC8
:10046000194610467FEA655C1CBF0B46024650EAFF
:10047000013406BF52EA033591EA030F41F400212B
:1004800030BD00BF90F0000F04BF0021704730B5B1
:100490004FF4806404F132044FF000054FF0000186
:1004A00050E700BF90F0000F04BF0021704730B547
:1004B0004FF4806404F1320410F0004548BF40421C
:1004C0004FF000013EE700BF42004FEAE2014FEA71
:1004D00031014FEA02701FBF12F07F4393F07F4F4C
:1004E00081F06051704732F07F4208BF704793F04F
:1004F0007F4F04BF41F40021704730B54FF4607462
:1005000001F0004521F000411CE700BF50EA010264
:1005100008BF704730B54FF000050AE050EA01020D
:1005200008BF704730B511F0004502D5404261EB7D
:1005300041014FF4806404F132045FEA915C3FF4BE
:10054000D8AE4FF003025FEADC0C18BF03325FEA5B
:10055000DC0C18BF033202EBDC02C2F1200300FA0C
:1005600003FC20FA02F001FA03FE40EA0E0021FA31
:1005700002F11444BDE600BF53B94AB9002908BFCF
:1005800000281CBF4FF0FF314FF0FF3000F074B96E
:10059000ADF1080C6DE904CE00F006F8DDF804E0DA
:1005A000DDE9022304B070472DE9F047089D0446B9
:1005B0008E46002B4DD18A42944669D9B2FA82F216
:1005C00052B101FA02F3C2F1200120FA01F10CFA52
:1005D00002FC41EA030E94404FEA1C48210CBEFB8A
:1005E000F8F61FFA8CF708FB16E341EA034306FB13
:1005F00007F199420AD91CEB030306F1FF3080F0A2
:100600001F81994240F21C81023E63445B1AA4B2EE
:10061000B3FBF8F008FB103344EA034400FB07F790
:10062000A7420AD91CEB040400F1FF3380F00A81D1
:10063000A74240F207816444023840EA0640E41BC6
:1006400000261DB1D4400023C5E900433146BDE872
:10065000F0878B4209D9002D00F0EF800026C5E914
:10066000000130463146BDE8F087B3FA83F6002E2C
:100670004AD18B4202D3824200F2F980841A61EBA4
:10068000030301209E46002DE0D0C5E9004EDDE7C2
:1006900002B9FFDEB2FA82F2002A40F09280A1EBAA
:1006A0000C014FEA1C471FFA8CFE0126200CB1FBFF
:1006B000F7F307FB131140EA01410EFB03F08842F8
:1006C00008D91CEB010103F1FF3802D2884200F285
:1006D000CB804346091AA4B2B1FBF7F007FB101117
:1006E00044EA01440EFB00FEA64508D91CEB0404B5
:1006F00000F1FF3102D2A64500F2BB800846A4EB10
:100700000E0440EA03409CE7C6F12007B34022FAFA
:1007100007FC4CEA030C20FA07F401FA06F31C4329
:10072000F9404FEA1C4900FA06F3B1FBF9F8200C36
:100730001FFA8CFE09FB181140EA014108FB0EF07C
:10074000884202FA06F20BD91CEB010108F1FF3ACC
:1007500080F08880884240F28580A8F102086144D8
:10076000091AA4B2B1FBF9F009FB101144EA0141E6
:1007700000FB0EFE8E4508D91CEB010100F1FF3491
:100780006CD28E456AD90238614440EA0840A0FB29
:100790000294A1EB0E01A142C846A64656D353D0FF
:1007A0005DB1B3EB080261EB0E0101FA07F722FA23
:1007B00006F3F1401F43C5E9007100263146BDE84C
:1007C000F087C2F12003D8400CFA02FC21FA03F3AF
:1007D000914001434FEA1C471FFA8CFEB3FBF7F030
:1007E00007FB10360B0C43EA064300FB0EF69E4255
:1007F00004FA02F408D91CEB030300F1FF382FD2EE
:100800009E422DD9023863449B1B89B2B3FBF7F695
:1008100007FB163341EA034106FB0EF38B4208D96E
:100820001CEB010106F1FF3816D28B4214D9023EAF
:100830006144C91A46EA004638E72E46284605E7CD
:100840000646E3E61846F8E64B45A9D2B9EB02089E
:1008500064EB0C0E0138A3E74646EAE7204694E72E
:100860004046D1E7D0467BE7023B614432E7304661
:1008700009E76444023842E7704700BF844641EA12
:10088000000313F003036DD1403A41D351F8043B08
:1008900040F8043B51F8043B40F8043B51F8043B5A
:1008A00040F8043B51F8043B40F8043B51F8043B4A
:1008B00040F8043B51F8043B40F8043B51F8043B3A
:1008C00040F8043B51F8043B40F8043B51F8043B2A
:1008D00040F8043B51F8043B40F8043B51F8043B1A
:1008E00040F8043B51F8043B40F8043B51F8043B0A
:1008F00040F8043B51F8043B40F8043B51F8043BFA
:1009000040F8043B51F8043B40F8043B403ABDD268
:10091000303211D351F8043B40F8043B51F8043B0A
:1009200040F8043B51F8043B40F8043B51F8043BC9
:1009300040F8043B103AEDD20C3205D351F8043B99
:1009400040F8043B043AF9D2043208D0D2071CBF65
:1009500011F8013B00F8013B01D30B88038060468E
:10096000704700BF082A13D38B078DD010F0030304
:100970008AD0C3F10403D21ADB071CBF11F8013B74
:1009800000F8013B80D331F8023B20F8023B7BE7C3
:10099000043AD9D3013A11F8013B00F8013BF9D2EE
:1009A0000B7803704B7843708B7883706046704788
:1009B00001F0FF01102A2BDB10F0070F08D010F810
:1009C000013B013A8B422DD010F0070F42B3F6D114
:1009D000F0B441EA012141EA014122F007047FF02D
:1009E00000070023F0E80256083C85EA010586EA84
:1009F000010685FA47F5A3FA87F586FA47F6A5FAC0
:100A000087F68EB9EED1F0BC01F0FF0102F00702CB
:100A100032B110F8013B013A83EA010313B1F8D176
:100A20000020704701387047002D06BF3546033857
:100A3000073815F0010F07D1013015F4807F02BF90
:100A4000013015F4C03F0130F0BC0138704700BFE1
:100A50000000000000000000000000000000000096
:100A60000000000000000000000000000000000086
:100A70000000000000000000000000000000000076
:100A800090F800F06DE9024520F007016FF0000CCE
:100A900010F0070491F820F040F049804FF0000476
:100AA0006FF00700D1E9002391F840F000F1080051
:100AB00082FA4CF2A4FA8CF283FA4CF3A2FA8CF389
:100AC0004BBBD1E9022382FA4CF200F10800A4FAF0
:100AD0008CF283FA4CF3A2FA8CF3E3B9D1E9042344
:100AE00082FA4CF200F10800A4FA8CF283FA4CF37B
:100AF000A2FA8CF37BB9D1E9062301F1200182FA35
:100B00004CF200F10800A4FA8CF283FA4CF3A2FA3A
:100B10008CF3002BC6D0002A04BF04301A4612BA48
:100B2000B2FA82F2FDE8024500EBD2007047D1E94B
:100B3000002304F00305C4F100004FEAC50514F0DA
:100B4000040F91F840F00CFA05F562EA05021CBFAB
:100B500063EA050362464FF00004A9E770B54FF061
:100B6000FF0C4CF4E06C1CEA11541DBF1CEA135539
:100B700094EA0C0F95EA0C0F00F0DEF82C4481EAA1
:100B8000030621EA4C5123EA4C5350EA013518BFC1
:100B900052EA033541F4801143F4801338D0A0FBAE
:100BA00002CE4FF00005E1FB02E506F00042E0FB5B
:100BB00003E54FF00006E1FB03569CF0000F18BF61
:100BC0004EF0010EA4F1FF04B6F5007F64F5407409
:100BD00004D25FEA4E0E6D4146EB060642EAC6219C
:100BE00041EA55514FEAC52040EA5E504FEACE2E09
:100BF000B4F1FD0C88BFBCF5E06F1ED8BEF1004F0C
:100C000008BF5FEA500E50F1000041EB045170BD87
:100C100006F0004646EA010140EA020081EA0301CB
:100C2000B4EB5C04C2BFD4EB0C0541EA045170BDC7
:100C300041F480114FF0000E013C00F3AB8014F141
:100C4000360FDEBF002001F0004170BDC4F100048A
:100C5000203C35DA0C341BDC04F11404C4F120050B
:100C600000FA05F320FA04F001FA05F240EA020066
:100C700001F0004221F0004110EBD37021FA04F69C
:100C800042EB06015EEA430E08BF20EAD37070BD56
:100C9000C4F10C04C4F1200500FA04F320FA05F0B5
:100CA00001FA04F240EA020001F0004110EBD370B7
:100CB00041F100015EEA430E08BF20EAD37070BD27
:100CC000C4F1200500FA05F24EEA020E20FA04F300
:100CD00001FA05F243EA020321FA04F001F00041AF
:100CE00021FA04F220EA020000EBD3705EEA430E20
:100CF00008BF20EAD37070BD94F0000F0FD101F04F
:100D00000046400041EB010111F4801F08BF013C87
:100D1000F7D041EA060195F0000F18BF704703F0C5
:100D20000046520043EB030313F4801F08BF013D4C
:100D3000F7D043EA0603704794EA0C0F0CEA135508
:100D400018BF95EA0C0F0CD050EA410618BF52EAC2
:100D50004306D1D181EA030101F000414FF00000C8
:100D600070BD50EA410606BF1046194652EA4306D6
:100D700019D094EA0C0F02D150EA013613D195EA4A
:100D80000C0F05D152EA03361CBF104619460AD192
:100D900081EA030101F0004141F0FE4141F470019C
:100DA0004FF0000070BD41F0FE4141F4780170BD8C
:100DB00070B54FF0FF0C4CF4E06C1CEA11541DBFF1
:100DC0001CEA135594EA0C0F95EA0C0F00F0A7F8F3
:100DD000A4EB050481EA030E52EA03354FEA013120
:100DE00000F088804FEA03334FF0805545EA131333
:100DF00043EA12634FEA022245EA111545EA1065FB
:100E00004FEA00260EF000419D4208BF964244F191
:100E1000FD0404F5407402D25B084FEA3202B61AB0
:100E200065EB03055B084FEA32024FF480104FF484
:100E3000002CB6EB020E75EB030E22BFB61A7546F8
:100E400040EA0C005B084FEA3202B6EB020E75EB8B
:100E5000030E22BFB61A754640EA5C005B084FEAF3
:100E60003202B6EB020E75EB030E22BFB61A7546C0
:100E700040EA9C005B084FEA3202B6EB020E75EBCB
:100E8000030E22BFB61A754640EADC0055EA060E8C
:100E900018D04FEA051545EA16754FEA06164FEACF
:100EA000C30343EA52734FEAC2025FEA1C1CC0D17B
:100EB00011F4801F0BD141EA00014FF000004FF008
:100EC000004CB6E711F4801F04BF01430020B4F1C9
:100ED000FD0C88BFBCF5E06F3FF6AFAEB5EB030C81
:100EE00004BFB6EB020C5FEA500C50F1000041EB7E
:100EF000045170BD0EF0004E4EEA113114EB5C044B
:100F0000C2BFD4EB0C0541EA045170BD41F480111D
:100F10004FF0000E013C90E645EA060E8DE60CEA25
:100F2000135594EA0C0F08BF95EA0C0F3FF43BAF42
:100F300094EA0C0F0AD150EA01347FF434AF95EAF9
:100F40000C0F7FF425AF104619462CE795EA0C0FDD
:100F500006D152EA03353FF4FDAE1046194622E7AA
:100F600050EA410618BF52EA43067FF4C5AE50EA84
:100F700041047FF40DAF52EA43057FF4EBAE12E774
:100F80004FF0FF3C06E000BF4FF0010C02E000BF55
:100F90004FF0010C4DF804CD4FEA410C7FEA6C5C38
:100FA0004FEA430C18BF7FEA6C5C1BD001B050EADB
:100FB000410C0CBF52EA430C91EA030F02BF90EAC6
:100FC000020F0020704710F1000F91EA030F58BF85
:100FD000994208BF90422CBFD8176FEAE37040F0E7
:100FE000010070474FEA410C7FEA6C5C02D150EA85
:100FF000013C07D14FEA430C7FEA6C5CD6D152EA40
:10100000033CD3D05DF8040B704700BF8446104604
:1010100062468C461946634600E000BF01B5FFF703
:10102000B7FF002848BF10F1000F01BD4DF808EDD3
:10103000FFF7F4FF0CBF012000205DF808FB00BFA4
:101040004DF808EDFFF7EAFF34BF012000205DF8FE
:1010500008FB00BF4DF808EDFFF7E0FF94BF01204B
:1010600000205DF808FB00BF4DF808EDFFF7CEFF4C
:1010700094BF012000205DF808FB00BF4DF808ED8B
:10108000FFF7C4FF34BF012000205DF808FB00BF5C
:101090004FEA410C7FEA6C5C02D150EA013C0AD174
:1010A0004FEA430C7FEA6C5C02D152EA033C02D166
:1010B0004FF0000070474FF0010070474FEA4102C7
:1010C00012F5001215D211D56FF47873B3EB62529A
:1010D00012D94FEAC12343F0004343EA505311F0C1
:1010E000004F23FA02F018BF404270474FF0000053
:1010F000704750EA013005D111F0004008BF6FF091
:10110000004070474FF00000704700BF70477047C5
:1011100010B44FF0E0235C694FF0A80C0CFB00FC0E
:101120009B69002104E0E01A02441144614509D2A0
:101130001A464FF0E0239B699A42FAD0F3D9D21AAB
:101140001144F3E75DF8044B704710B504E04FF429
:101150007A70FFF7DDFF2046431E9CB20028F6D1CF
:1011600010BD000008B500221021024800F0D6FF93
:1011700008BD00BF0000024008B50122102102484E
:1011800000F0CCFF08BD00BF0000024008B50022FF
:101190000121024800F0C2FF08BD00BF0004024068
:1011A00008B501221146024800F0B8FF08BD00BF93
:1011B0000004024000B587B08DF80F004FF47A7339
:1011C000009301230DF117020DF10F01034801F007
:1011D000EAFB9DF8170007B05DF804FB5C0C0020EB
:1011E00010B50C46FFF7E6FF2046FFF7E3FF10BD02
:1011F00010B50C4640F08000FFF7DCFF5520FFF7EC
:10120000D9FF207010BD38B50D46144640F080005F
:10121000FFF7D0FF06E05520FFF7CCFF05F8010BE4
:10122000013CE4B2002CF6D138BD0000F0B583B02B
:1012300016238DF80730FFF795FF8020FFF7BAFFE0
:101240005520FFF7B7FF5520FFF7B4FF8DF80700D3
:10125000FFF792FF9620FFF75BFFFFF783FF8020E9
:10126000FFF7A8FF5520FFF7A5FF5520FFF7A2FFC6
:101270008DF80700FFF780FF9620FFF749FFFFF783
:1012800071FFB6217E20FFF7ABFFFFF775FF5020FF
:10129000FFF75BFFFFF766FF8020FFF78BFF55200E
:1012A000FFF788FF5520FFF785FF8DF80700FFF750
:1012B00063FF9620FFF72CFFFFF754FF8020FFF716
:1012C00079FF5520FFF776FF5520FFF773FF8DF864
:1012D0000700FFF751FF9620FFF71AFFFFF742FFC5
:1012E0008020FFF767FF5520FFF764FF5520FFF7C9
:1012F00061FF8DF80700FFF73FFF9DF80730DBB275
:101300001E2B39D10024052C34D8FFF72BFF1C4AA3
:1013100004EB4403D1184D78D65C29463046FFF7DC
:101320005FFFFFF729FF9620FFF7F2FEFFF71AFF96
:1013300046F08000FFF73EFF5520FFF73BFF5520AA
:10134000FFF738FF8DF80700FFF716FF9620FFF72D
:10135000DFFE9DF80730DBB29D4202D10134E4B2DA
:10136000D1E704EB4407064B1F44B878003818BF98
:10137000012002E0002000E0012003B0F0BD00BF2A
:1013800044A50008F0B583B000248DF80740FFF7AE
:10139000FDFE0DF107012046FFF72AFFFFF700FFD2
:1013A0009620FFF7B5FEFFF7F1FE0DF1070120468D
:1013B000FFF71EFFFFF7F4FE9620FFF7A9FEFFF7E9
:1013C000E5FEB6211420FFF70BFFFFF7E9FE5020E2
:1013D000FFF7BBFEFFF7DAFE0DF107012046FFF72E
:1013E00007FFFFF7DDFE9620FFF792FEFFF7CEFE28
:1013F0000DF107012046FFF7FBFEFFF7D1FE962017
:10140000FFF786FE9DF807300F2B30D1052C2CD826
:10141000FFF7BCFE174A04EB4403D1184D78D65CA5
:1014200029463046FFF7DCFEFFF7BAFE9620FFF7AD
:101430006FFEFFF7ABFE0DF107013046FFF7D8FE58
:10144000FFF7AEFE9620FFF763FE9DF807309D4242
:1014500002D10134E4B2D9E704EB4407054B1F4441
:10146000B878003818BF012002E0002000E0012019
:1014700003B0F0BD58A5000810B5FFF747FEFFF711
:1014800046FEFFF7D3FE0446FFF77CFF2043C0B2C1
:1014900010BD0000F0B583B006460D461446594B0A
:1014A00093E803000090ADF80410090C8DF80610C5
:1014B00000278DF80770FFF755FE9220FFF77AFEA0
:1014C000062269461220FFF79EFEFFF755FE9DF8A3
:1014D00001301B021BB29DF80020134307EE903A27
:1014E000F8EEE77A484A92ED007A67EE877AC5ED22
:1014F000007A9DF803301B021BB29DF802100B43CB
:1015000007EE103AD2ED006AB8EEC77A27EE267AD7
:1015100085ED017A9DF805301B021BB29DF8042071
:10152000134307EE903AF8EEE77A67EEA67AC5ED38
:10153000027AFFF72BFE082269463846FFF763FE62
:10154000FFF72EFE9DF800300F2B27D0FFF70AFE85
:10155000A220FFF72FFE022269462220FFF753FE4A
:10156000FFF70AFE9DF800209DF801305B0943EA71
:10157000C203B3F5806F01DBA3F5006307EE903A79
:10158000F8EEE77AB4EE007A67EE877AB3EE077A80
:1015900077EE877AC4ED007A03B0F0BD9DF8033092
:1015A0001B021BB29DF80220134307EE903AF8EE9F
:1015B000E77A164A92ED007A67EE877AC6ED007AEE
:1015C0009DF805301B021BB29DF804100B4307EE7B
:1015D000103AD2ED006AB8EEC77A27EE267A86ED89
:1015E000017A9DF807301B021BB29DF806201343B9
:1015F00007EE903AF8EEE77A67EEA67AC6ED027A41
:10160000A4E700BFE8A400080000002004000020B8
:10161000034B0360034B0B6080231360704700BFD4
:10162000E40B0020E409002000B583B001904FF6E0
:10163000FF73012201A9034801F0C3FD019803B023
:101640005DF804FBB40C00202DE9F0418AB00024C1
:101650000594069407940894099401942D4B1A6BF1
:1016600042F040021A631A6B02F040020192019AA2
:1016700002941A6B42F002021A631A6B02F0020221
:101680000292029A03941A6B42F001021A631A6BD7
:1016900002F001020392039A04941A6B42F0800252
:1016A0001A631B6B03F080030493049B1A4F2246BA
:1016B0004FF40061384600F031FDDFF864802246C7
:1016C0001021404600F02AFD144E224601213046EA
:1016D00000F024FD4FF4006305930125069507945F
:1016E000089405A9384600F027FC102305930695B9
:1016F00007940227089705A9404600F01DFC0595B0
:1017000006950794089705A9304600F015FC0AB025
:10171000BDE8F08100380240001C02400004024095
:101720000000024008B5012001F0C2FFFBE708B548
:10173000012001F0BDFFFBE780B584B0FFF79CFE00
:101740000F4C104A10492046FFF7A4FE6668A768B0
:101750002068FEF7B9FE04460D463846FEF7B4FE93
:10176000CDE902013046FEF7AFFECDE90001224689
:101770002B46064802F0CEFE322001F099FFDFE74B
:10178000380C00203C0D0020500C002098A50008CB
:1017900008B50268034B9A4200D008BD00F004FB74
:1017A000FBE700BF0010004072B6FEE708B50E4828
:1017B0000E4B03604FF48273436000238360C36069
:1017C00002220261012242614FF4007282613822DA
:1017D000C2610362436283620A23C36201F084F838
:1017E00000B908BDFFF7E0FF5C0C002000300140AD
:1017F00008B50A480A4B03604FF4E1334360002305
:101800008360C36003610C2242618361C36101F0A4
:10181000A9FC00B908BDFFF7C7FF00BFB40C00204A
:101820000010014008B50A480A4B03604FF4E13349
:10183000436000238360C36003610C2242618361C3
:10184000C36101F08FFC00B908BDFFF7ADFF00BF19
:10185000F80C00200014014000B595B030220021A2
:1018600008A802F005FE0023039304930593069352
:1018700007930193204A116C41F080511164126C5E
:1018800002F080520192019A02931C4B1A6842F4B2
:1018900080421A601B6803F480430293029B012379
:1018A00008934FF48033099302230E934FF4800280
:1018B0000F9206221092A8221192129304231393DE
:1018C00008A800F031FC98B90F2303930223049376
:1018D000002305934FF4A05306934FF480530793CE
:1018E000052103A800F06EFE20B915B05DF804FBD9
:1018F000FFF75AFFFFF758FF003802400070004022
:1019000000B597B000F036FAFFF7A6FFFFF79CFE90
:10191000FFF74CFFFFF76CFFFFF784FF1C4C0DF146
:101920003C0CA646BEE80F00ACE80F009EE807009E
:101930008CE8070000210FA801F085FE154B186008
:101940000DF1200C04F11C0EBEE80F00ACE80F00F6
:101950009EE807008CE80700002108A801F073FE4C
:101960000D4B18600DF1040E04F1380CBCE80F00AB
:10197000AEE80F009CE807008EE80700002101A8F0
:1019800001F061FE054B186001F058FEFEE700BF54
:10199000F0A400084C0C0020440C0020480C00204F
:1019A00000B583B0002200920D4B596C41F4804188
:1019B0005964596C01F48041009100990192196CAD
:1019C00041F0805119641B6C03F080530193019B1B
:1019D0000F216FF0010000F00BFA03B05DF804FB7B
:1019E00000380240F0B589B00023039304930593B7
:1019F0000693079302681E4B9A4201D009B0F0BDCE
:101A00000024009403F584335A6C42F480525A64E3
:101A10005A6C02F480520092009A01941A6B42F0C0
:101A200002021A631A6B02F002020192019A0294F6
:101A30001A6B42F001021A631B6B03F0010302935D
:101A4000029B182303930227049703260696052575
:101A5000079503A9074800F06FFA802303930497C2
:101A600005940696079503A9034800F065FAC5E7B3
:101A7000003001400004024000000240F0B58BB08D
:101A80000023059306930793089309930368364A46
:101A9000934204D0354A934241D00BB0F0BD0024AC
:101AA0000094334B5A6C42F010025A645A6C02F0A4
:101AB00010020092009A01941A6B42F002021A631B
:101AC0001A6B02F002020192019A02941A6B42F020
:101AD00001021A631B6B03F001030293029B802334
:101AE000059302270697032608960725099505A959
:101AF000204800F021FA4FF40073059306970794ED
:101B00000896099505A91C4800F016FA22460521F9
:101B1000252000F06DF9252000F0A2F9BDE7002195
:101B20000391134B5A6C42F020025A645A6C02F033
:101B300020020392039A04911A6B42F040021A6346
:101B40001B6B03F040030493049B4FF48443059301
:101B500002230693032308930823099305A9074842
:101B600000F0EAF999E700BF0010014000140140BD
:101B70000038024000040240000002400018024009
:101B800030B589B0044600230193214B1A6C42F012
:101B900010021A641B6C03F010030193019B02A94D
:101BA00003A800F0E5FD069BCBB900F0C1FD03469C
:101BB0001848A0FB03239B0C013B1748174A0260FF
:101BC00040F2E732C26043600023036183608361B7
:101BD00001F070F9054630B1284609B030BD00F07B
:101BE000A7FD4300E4E70C4800F0FAFF0546002893
:101BF000F2D1362000F034F90F2C01D90125EBE7A2
:101C000000222146362000F0F3F8054B1C60E3E784
:101C10000038024083DE1B43400D002000100040CE
:101C200010000020FEE7FEE7FEE7FEE7FEE7704754
:101C300008B5024801F0BCFB08BD00BFB40C002091
:101C400008B5024801F014F808BD00BF400D00209F
:101C50000120704708B502F0E1FB162303604FF046
:101C6000FF3008BD08B54FF0FF31FFF7F3FFFEE787
:101C700070B50C461646002506E0AFF300802146FD
:101C800001F8010B01350C46B542F6DB304670BD5C
:101C900070B50C461646002504E014F8010BFFF75A
:101CA000C3FC0135B542F8DB304670BD4FF0FF3064
:101CB00070474FF400534B6000207047012070477D
:101CC0000020704710B503460C4A0D490D480068C6
:101CD00040B10C4800680344521A934206D8094A9E
:101CE000136010BD0748084C0460F2E702F096FB51
:101CF0000C2303604FF0FF30F3E700BF0000022029
:101D000000040000880D0020304B0020034AD2F868
:101D1000883043F47003C2F88830704700ED00E06B
:101D2000DFF834D00D480E490E4A002302E0D458A3
:101D3000C4500433C4188C42F9D30B4A0B4C002313
:101D400001E013600432A242FBD3FFF7DFFF02F091
:101D50006BFBFFF7D5FD704700000220000000205C
:101D6000C809002094A90008C80900202C4B0020B5
:101D7000FEE7000008B50B4B1A6842F400721A60C7
:101D80001A6842F480621A601A6842F480721A601B
:101D9000032000F01BF80F20FFF7F2FEFFF700FE14
:101DA000002008BD003C0240034A1168034B1B7829
:101DB0000B441360704700BF8C0D00200C00002006
:101DC000014B1868704700BF8C0D0020074AD3688C
:101DD00023F4E0631B041B0C000200F4E0600343E7
:101DE00043F0BF6343F40033D360704700ED00E07D
:101DF00000B5194BDB68C3F30223C3F1070CBCF138
:101E0000040F28BF4FF0040C03F1040EBEF1060FBF
:101E100018D9033B4FF0FF3E0EFA0CFC21EA0C01EF
:101E200099400EFA03F322EA0303194300280BDB5F
:101E30000901C9B200F1604000F5614080F800136B
:101E40005DF804FB0023E5E700F00F000901C9B2CB
:101E5000024B1954F4E700BF00ED00E014ED00E080
:101E6000002807DB00F01F02400901239340024ACB
:101E700042F82030704700BF00E100E070B5044632
:101E8000866DFFF79DFF94F83530DBB2022B06D04C
:101E900080236365002384F83430012070BD05463B
:101EA0002268136823F0160313602268536923F035
:101EB00080035361236CE3B12268136823F00803A5
:101EC00013602268136823F00103136023681B6802
:101ED00013F0010F11D0FFF773FF431B052BF5D94A
:101EE00020236365032084F83500002384F8343010
:101EF000D4E7A36C002BDFD1E3E7E26D3F239340EF
:101F0000B360012384F83530002084F83400C5E73D
:101F100090F83530DBB2022B03D0802343650120DB
:101F20007047052380F835300268136823F00103F9
:101F3000136000207047000000230F2B00F2E480A4
:101F400070B582B060E085685E000324B44025EA85
:101F50000405CC68B4402C438460456825EA02053A
:101F60004C68C4F300129A402A4342605AE0DC08ED
:101F7000083450F8246003F0070295000F22AA40AD
:101F800026EA020E0A69AA4042EA0E0240F824201C
:101F90005CE0072200E0002202FA0EF22A4302343B
:101FA0005A4D45F824205A4A94686FEA0C0224EAF4
:101FB0000C054E6816F4801F01D04CEA0405544C01
:101FC000A560E46802EA04054E6816F4001F01D01B
:101FD0004CEA04054E4CE560646802EA04054E686C
:101FE00016F4003F01D04CEA0405494C65602468B2
:101FF00022404D6815F4803F01D04CEA0402444C65
:10200000226001330F2B7DD801229A400C6804EA2C
:10201000020C32EA0404F4D14C6804F00304013CDD
:10202000012C90D94A6802F00302032A09D0C4683F
:102030005D000322AA4024EA02048A68AA402243DF
:10204000C2604A6802F00302022A90D004684FEA94
:10205000430E032202FA0EF224EA02044A6802F056
:10206000030202FA0EF2224302604A6812F4403F71
:10207000C7D000220192274A546C44F4804454642F
:10208000526C02F480420192019A9C08A51C1F4ADE
:1020900052F8255003F003024FEA820E0F2202FA93
:1020A0000EF225EA02051C4A90423FF474AF02F595
:1020B000806290421AD002F58062904218D002F5F8
:1020C0008062904216D002F58062904214D002F5F0
:1020D0008062904212D002F58062904210D002F5E8
:1020E000806290423FF455AF082255E7012253E742
:1020F000022251E703224FE704224DE705224BE776
:10210000062249E702B070BD704700BF00380140A9
:10211000003C014000380240000002400AB18161E9
:102120007047090481617047002800F0E08170B5B4
:1021300082B00446036813F0010F3BD09F4B9B68AD
:1021400003F00C03042B2CD09C4B9B6803F00C0376
:10215000082B21D06368B3F5803F4FD0B3F5A02F93
:1021600052D0964B1A6822F480321A601A6822F410
:1021700080221A606368002B50D0FFF721FE0546CD
:102180008E4B1B6813F4003F14D1FFF719FE401B60
:102190006428F5D90320B1E1884B5B6813F4800F04
:1021A000D8D0864B1B6813F4003F03D06368002B24
:1021B00000F09F81236813F0020F54D07F4B9B687F
:1021C00013F00C0F3ED07D4B9B6803F00C03082BE3
:1021D00033D0E368002B68D0794B01221A60FFF7F7
:1021E000EFFD0546754B1B6813F0020F54D1FFF746
:1021F000E7FD401B0228F5D903207FE16F4A1368F1
:1022000043F480331360B5E76C4B1A6842F48022C4
:102210001A601A6842F480321A60ABE7FFF7D0FD0B
:102220000546664B1B6813F4003FC3D0FFF7C8FD9B
:10223000401B6428F5D9032060E1604B5B6813F410
:10224000800FC6D15D4B1B6813F0020F03D0E3680B
:10225000012B40F05081594A136823F0F80321699B
:1022600043EAC1031360236813F0080F42D0636987
:102270006BB3534B0122C3F8802EFFF7A1FD054637
:102280004E4B5B6F13F0020F34D1FFF799FD401BEB
:102290000228F5D9032031E1484A136823F0F803F6
:1022A000216943EAC1031360DDE7454B00221A6050
:1022B000FFF786FD0546414B1B6813F0020FD2D095
:1022C000FFF77EFD401B0228F5D9032016E13C4BA9
:1022D0000022C3F8802EFFF773FD0546374B5B6F76
:1022E00013F0020F06D0FFF76BFD401B0228F5D953
:1022F000032003E1236813F0040F77D02F4B1B6CEE
:1023000013F0805F33D1002301932C4B1A6C42F001
:1023100080521A641B6C03F080530193019B0125CA
:10232000284B1B6813F4807F23D0A368012B34D083
:10233000052B38D0214B1A6F22F001021A671A6F51
:1023400022F004021A67A368002B3DD0FFF738FD86
:1023500006461A4B1B6F13F0020F46D1FFF730FDF4
:10236000801B41F288339842F3D90320C6E0002550
:10237000D6E7144A136843F480731360FFF720FD17
:102380000646104B1B6813F4807FCED1FFF718FD73
:10239000801B0228F5D90320B0E0084A136F43F0F0
:1023A00001031367CFE7054B1A6F42F004021A6767
:1023B0001A6F42F001021A67C5E700BF00380240F9
:1023C0000000474200700040FFF7FAFC0646524BFF
:1023D0001B6F13F0020F08D0FFF7F2FC801B41F2D5
:1023E00088339842F3D9032088E0EDB9A369002B24
:1023F00000F08380484A926802F00C02082A51D00B
:10240000022B17D0454B00221A66FFF7D9FC044671
:10241000414B1B6813F0007F42D0FFF7D1FC001B3B
:102420000228F5D9032069E03B4A136C23F080535E
:102430001364DBE7394B00221A66FFF7C1FC05463F
:10244000354B1B6813F0007F06D0FFF7B9FC401B2B
:102450000228F5D9032051E0E369226A1343626A36
:1024600043EA8213A26A5208013A43EA0243E26A4B
:1024700043EA0263284A5360284B01221A66FFF799
:102480009FFC0446244B1B6813F0007F06D1FFF726
:1024900097FC001B0228F5D903202FE000202DE037
:1024A00000202BE0012B2BD01B4B5B6803F4800139
:1024B000E269914226D103F03F02216A8A4223D188
:1024C000616A47F6C0721A40B2EB811F1ED103F455
:1024D0004031A26A5208013AB1EB024F18D103F021
:1024E0007063E26AB3EB026F14D1002006E00120B2
:1024F0007047012002E0012000E0002002B070BD22
:102500000120FBE70120F9E70120F7E70120F5E7CB
:102510000120F3E70120F1E70038024000004742C4
:1025200008B5254B9B6803F00C03042B3FD0082B08
:102530003FD1214B5A6802F03F025B6813F4800FD1
:1025400012D01D4B5968C1F388111C480023A1FB10
:102550000001FEF711F8184B5B68C3F30143013328
:102560005B00B0FBF3F025E0134B5968C1F3881C06
:102570004FEA4C11B1EB0C006EEB0E0E4FEA8E13CE
:1025800043EA90638101091A63EB0E03DB0043EA1F
:102590005173C90011EB0C0C43F1000399020023A5
:1025A0004FEA8C2041EA9C51FDF7E6FFD3E7034850
:1025B00000E0034808BD00BF00380240001BB70020
:1025C0000024F400002800F09B8070B50D460446FE
:1025D0004F4B1B6803F007038B4208D2CBB24C4A27
:1025E0001370136803F007038B4240F08B8023685D
:1025F00013F0020F17D013F0040F04D0454A93686C
:1026000043F4E0539360236813F0080F04D0414A69
:10261000936843F4604393603E4A936823F0F00369
:10262000A1680B439360236813F0010F32D06368F5
:10263000012B21D09A1E012A25D9364A126812F0A0
:10264000020F61D033498A6822F0030213438B6082
:10265000FFF7B6FB06462F4B9B6803F00C0362683E
:10266000B3EB820F16D0FFF7ABFB801B41F2883330
:102670009842F0D9032042E0264A126812F4003F43
:10268000E0D101203BE0234A126812F0007FD9D14B
:10269000012034E01E4B1B6803F00703AB4207D94F
:1026A000EAB21B4B1A701B6803F00703AB422DD133
:1026B000236813F0040F06D0164A936823F4E053FE
:1026C000E1680B439360236813F0080F07D0114AA9
:1026D000936823F46043216943EAC1039360FFF7E1
:1026E0001FFF0C4B9B68C3F303130B4AD35CD8400A
:1026F0000A4B18600A4B1868FFF742FA002070BDB9
:10270000012070470120FAE70120F8E70120F6E7F1
:10271000003C024000380240A8A500080800002044
:1027200010000020014B1868704700BF080000200F
:1027300008B5FFF7F7FF044B9B68C3F38223034AF6
:10274000D35CD84008BD00BF00380240B8A50008DF
:1027500008B5FFF7E7FF044B9B68C3F34233034A16
:10276000D35CD84008BD00BF00380240B8A50008BF
:102770000F2303600B4B9A6802F0030242609A68D1
:1027800002F0F00282609A6802F4E052C2609B6834
:10279000DB0803F4E0530361034B1B6803F00703FA
:1027A0000B60704700380240003C02402DE9F047C2
:1027B00082B00546884617461E46FFF701FB0A9B76
:1027C0001B1A03EB0609FFF7FBFA82462B4B1B682B
:1027D000C3F3CB3309FB03F301932B689C6838EAFE
:1027E00004030CBF4FF0010C4FF0000CBC4540D06F
:1027F000B6F1FF3FF1D0FFF7E3FAA0EB0A0048453E
:102800000AD2B9F1000F07D0019A02B14A46019BE2
:10281000013B01939146E0E72A68536823F0E00307
:1028200053606B68B3F5827F0BD0AB6AB3F5005F82
:1028300014D0012385F85130002385F8503003204F
:1028400018E0AB68B3F5004F02D0B3F5806FECD160
:102850002A68136823F040031360E6E72A681368C8
:1028600023F4005313602A68136843F40053136081
:10287000DFE7002002B0BDE8F08700BF08000020BD
:1028800010B584B00446164B1868164BA3FB0030F5
:10289000400D4FF47A7303FB00F003906368B3F5C7
:1028A000827F0BD0039BBBB1039B013B0393236847
:1028B0009B6813F0800FF5D100200EE000920B46CC
:1028C000002280212046FFF771FF30B1636D43F095
:1028D00020036365032000E0002004B010BD00BFAA
:1028E00008000020819F5E1600285AD010B50446CB
:1028F000436A33B94368B3F5827F05D00023C361CF
:1029000002E00023036143610023A36294F8513085
:10291000002B40D0022384F851302268136823F042
:1029200040031360636803F48273A26802F40442F4
:102930001343E26802F400621343226902F00202C8
:102940001343626902F001021343A26902F40072A8
:102950001343E26902F038021343226A02F0800254
:102960001343A26A02F40052216813430B60638B85
:1029700003F00403626A02F01002216813434B6003
:102980002268D36923F40063D361002060650123CA
:1029900084F8513010BD84F850302046FFF722F8FB
:1029A000B8E7012070472DE9F04383B01F460A9D28
:1029B00090F85030012B00F0108104468846914673
:1029C000012380F85030FFF7FBF9064694F85130A8
:1029D000DBB26268012B0AD0B2F5827F40F0E3805F
:1029E000A268002A40F0E980042B40F0E880B8F1AA
:1029F000000F00F0E680B9F1000F00F0E480002F36
:102A000000F0E38094F85130DBB2042B02D00523B0
:102A100084F8513000236365C4F83890E787A787AE
:102A2000C4F83080E786A7862364636423681A6845
:102A300012F0400F03D11A6842F040021A60E368B6
:102A4000B3F5006F11D063680BB1012F0BD1226B6E
:102A5000236812781A73236B01332363E38E9BB2CE
:102A6000013B9BB2E38601276BE063680BB1012F4A
:102A70000BD1226B23681288DA60236B0233236345
:102A8000E38E9BB2013B9BB2E38601271CE02368E7
:102A90009A6812F0010F0ED0E28F92B25AB1DA6842
:102AA000A36B1A80A36B0233A363E38F9BB2013B3A
:102AB0009BB2E3870127FFF783F9801BA84203D36A
:102AC000B5F1FF3F40F08380E38E9BB21BB9E38FEB
:102AD0009BB2002B53D023689A6812F0020FD6D015
:102AE000E28E92B2002AD2D0002FD0D0226B128870
:102AF000DA60236B02332363E38E9BB2013B9BB20C
:102B0000E3860027C3E723689A6812F0010F0ED00E
:102B1000E28F92B25AB1DA68A36B1A70A36B0133D9
:102B2000A363E38F9BB2013B9BB2E3870127FFF7CF
:102B300047F9831BAB4202D3B5F1FF3F49D1002DCA
:102B400049D0E38E9BB213B9E38F9BB2BBB123682C
:102B50009A6812F0020FD6D0E28E92B2002AD2D03A
:102B6000002FD0D0226B12781A73236B01332363AA
:102B7000E38E9BB2013B9BB2E3860027C3E732465C
:102B800029462046FFF77CFE48B9A36863B9019344
:102B90002368DA6801929B680193019B04E020237B
:102BA0006365012000E00220012384F851300023F6
:102BB00084F8503003B0BDE8F0830220F4E702202F
:102BC000F2E70120F0E70120EEE70120ECE7032027
:102BD000EAE70320E8E70320E6E70220EAE7704798
:102BE00090F83D30DBB2012B37D1022380F83D3025
:102BF0000268D36843F00103D3600368194A934223
:102C000020D0B3F1804F1DD0A2F57C42934219D061
:102C100002F58062934215D002F58062934211D092
:102C200002F5784293420DD002F57052934209D0DA
:102C3000A2F59432934205D01A6842F001021A605C
:102C4000002070479A6802F00702062A07D01A6827
:102C500042F001021A6000207047012070470020F6
:102C6000704700BF000001407047704770477047D1
:102C700010B5044603681A6912F0020F11D0DA6821
:102C800012F0020F0DD06FF002021A6101230377D8
:102C900003689B6913F0030F70D0FFF7E6FF002372
:102CA000237723681A6912F0040F12D0DA6812F041
:102CB000040F0ED06FF004021A61022323772368F9
:102CC0009B6913F4407F5FD02046FFF7CEFF0023BF
:102CD000237723681A6912F0080F12D0DA6812F00D
:102CE000080F0ED06FF008021A61042323772368BF
:102CF000DB6913F0030F4ED02046FFF7B6FF002329
:102D0000237723681A6912F0100F12D0DA6812F0D4
:102D1000100F0ED06FF010021A610823237723687A
:102D2000DB6913F4407F3DD02046FFF79EFF002370
:102D3000237723681A6912F0010F03D0DA6812F0C2
:102D4000010F36D123681A6912F0800F03D0DA68B8
:102D500012F0800F34D123681A6912F0400F03D0AB
:102D6000DA6812F0400F32D123681A6912F0200F8E
:102D700003D0DA6812F0200F30D110BDFFF774FFD6
:102D80002046FFF773FF8AE72046FFF76DFF2046D6
:102D9000FFF76CFF9BE72046FFF766FF2046FFF733
:102DA00065FFACE72046FFF75FFF2046FFF75EFFB9
:102DB000BDE76FF001021A612046FEF7E9FCC1E7AA
:102DC0006FF080021A61204600F0A1F8C3E76FF0AF
:102DD00040021A612046FFF74AFFC5E76FF0200264
:102DE0001A61204600F092F8C7E700000368304AF5
:102DF000904212D0B0F1804F0FD0A2F57C429042A9
:102E00000BD002F58062904207D002F580629042BA
:102E100003D002F57842904203D123F070034A6850
:102E20001343234A90422AD0B0F1804F27D0A2F515
:102E30007C42904223D002F5806290421FD002F57E
:102E4000806290421BD002F57842904217D002F582
:102E50007052904213D002F5806290420FD002F57A
:102E6000806290420BD0A2F59832904207D002F5D2
:102E70008062904203D002F58062904203D123F435
:102E80004073CA68134323F080034A691343036005
:102E90008B68C3620B688362054B984203D003F5CD
:102EA0008063984201D10B6903630123436170473A
:102EB0000000014040B310B5044690F83D30F3B136
:102EC000022384F83D30214651F8040BFFF78EFFB2
:102ED000012384F8463084F83E3084F83F3084F88B
:102EE000403084F8413084F8423084F8433084F82C
:102EF000443084F8453084F83D30002010BD80F81F
:102F00003C30FFF76CFEDBE70120704770477047ED
:102F1000026802F10C0353E8003F23F490730C3273
:102F200042E800310029F3D1026802F1140353E8AA
:102F3000003F23F00103143242E800310029F3D1AD
:102F4000036B012B05D0202380F83E300023036360
:102F50007047026802F10C0353E8003F23F01003AE
:102F60000C3242E800310029F3D1ECE790F83D3013
:102F7000DBB2212B01D0022070478368B3F5805F5C
:102F800017D0036A5A1C02621A7803685A60C38C0D
:102F90009BB2013B9BB2C3844BB90268D36823F058
:102FA0008003D3600268D36843F04003D3600020FD
:102FB00070470369002BE4D1036A1B880268C3F3DE
:102FC00008035360036A02330362E0E738B504463E
:102FD0000268136923F44053C1680B43136183688B
:102FE0000269134342691343C2691A430168CB68FB
:102FF00023F4164323F00C031343CB600268536998
:1030000023F4407381690B4353610368314A93424F
:1030100006D002F58062934202D0FFF789FB01E0FF
:10302000FFF796FBE369B3F5004F29D000210318A1
:1030300049411B1841F10001C90041EA5371DB000D
:10304000181863684FEA83024FEA937341F1000155
:10305000FDF792FA204DA5FB00325109642303FBD2
:1030600011031B013233A5FB03235B0903F0F002BC
:1030700002EB011203F00F03216813448B6038BD8B
:103080000023021843EB0301121841F10001C900AB
:1030900041EA5271D200101841F1000162689218A1
:1030A0005B41FDF769FA0C4DA5FB00325109642321
:1030B00003FB1103DB003233A5FB03235B095A003A
:1030C00002F4F87202EB011203F0070321681344C3
:1030D0008B60D4E7001001401F85EB512DE9F843C8
:1030E00005460F4616469946DDF820802C68246870
:1030F00037EA04030CBF4FF0010C4FF0000CB4454D
:103100002DD1B8F1FF3FF1D0B8F1000F05D0FEF797
:1031100057FEA0EB09004045E8D92A6802F10C03EC
:1031200053E8003F23F4D0730C3242E80031002909
:10313000F3D12A6802F1140353E8003F23F001039E
:10314000143242E800310029F3D1202385F83D30C4
:1031500085F83E30002385F83C30032000E0002055
:10316000BDE8F88358B310B5044690F83D300BB372
:10317000242384F83D302268D36823F40053D360BD
:103180002046FFF723FF2268136923F4904313615D
:103190002268536923F02A0353612268D36843F4F9
:1031A0000053D36000202064202384F83D3084F84D
:1031B0003E3010BD80F83C30FEF760FCD8E70120BF
:1031C00070472DE9F04182B01E4690F83D30DBB2E9
:1031D000202B54D104460D469046002953D0002A96
:1031E00053D090F83C30012B51D0012380F83C3073
:1031F00000230364212380F83D30FEF7E1FD0746FC
:10320000A4F82480A4F82680A368B3F5805F05D0D5
:103210004FF00008002384F83C3012E0236913B11A
:103220004FF00008F6E7A8460025F3E738F8023B20
:103230002268C3F308035360E28C92B2013A92B25F
:10324000E284E38C9BB273B100963B46002280215E
:103250002046FFF743FFE0B9002DE7D015F8012B1A
:1032600023685A60E8E700963B460022402120464A
:10327000FFF734FF78B9202384F83D3000E00220C6
:1032800002B0BDE8F0810120FAE70120F8E7022052
:10329000F6E70320F4E70320F2E7704708B501687A
:1032A000CA6822F04002CA60202280F83D20FFF761
:1032B000F4FF002008BD7047704708B5806B0023FD
:1032C000C385C384FFF7F8FF08BD704790F83E3010
:1032D000DBB2222B67D18368B3F5805F4DD0826A61
:1032E000B3F5805F04D0002B54D10369002B51D17A
:1032F00003685B681370836A01338362C38D9BB27A
:10330000013B9BB2C385002B4FD100B583B002684F
:10331000D36823F02003D3600268D36823F480735A
:10332000D3600268536923F001035361202380F8BE
:103330003E30036B012B33D100230363026802F19B
:103340000C0353E8003F23F010030C3242E8003135
:103350000029F3D103681A6812F0100F06D000227A
:1033600001921A6801925B680193019B818DFFF7BE
:10337000ACFF002003B05DF804FB0269002AAED167
:10338000826A03685B68C3F308031380836A0233AD
:103390008362B3E703685B6803F07F031370AAE7F7
:1033A000FFF789FFE5E70220704700207047000023
:1033B00030B583B0044602681368D068516913F0D1
:1033C0000F0505D113F0200F02D010F0200F19D1F6
:1033D0002DB111F0010119D110F4907F16D1216B9C
:1033E00001297DD013F0800F03D010F0800F40F042
:1033F000158113F0400F03D010F0400F40F0128100
:1034000003B030BD2046FFF761FFF9E713F0010F6D
:1034100006D010F4807F03D0226C42F001022264B7
:1034200013F0040F04D019B1226C42F0020222649E
:1034300013F0020F04D019B1226C42F0040222648E
:1034400013F0080F07D010F0200F00D119B1226C33
:1034500042F008022264226C002AD1D013F0200F1F
:1034600002D010F0200F29D123685B6903F04003DC
:10347000226C12F0080F00D163B32046FFF748FD1D
:1034800023685B6913F0400F20D0226802F1140317
:1034900053E8003F23F04003143242E80031002992
:1034A000F3D1A36B73B1614A1A65A06BFEF730FDCF
:1034B0000028A5D0A06B036D9847A1E72046FFF731
:1034C00005FFD1E72046FFF7F7FE99E72046FFF713
:1034D000F3FE95E72046FFF7EFFE002323648FE716
:1034E00013F0100F3FF47EAF10F0100F3FF47AAFDF
:1034F000002301931368019353680193019B53695F
:1035000013F0400F50D0A26B13685B689BB2002B86
:103510003FF476AFA18D99427FF672AFE385D36910
:10352000B3F5807F37D0226802F10C0353E8003FE7
:1035300023F480730C3242E800310029F3D1226871
:1035400002F1140353E8003F23F00103143242E870
:1035500000310029F3D1226802F1140353E8003F3F
:1035600023F04003143242E800310029F3D1202334
:1035700084F83E3000232363226802F10C0353E8F1
:10358000003F23F010030C3242E800310029F3D150
:10359000A06BFEF773FCA18DE38D9BB2C91A89B2B3
:1035A0002046FFF792FE2BE7A18DE38D9BB2C91A4F
:1035B00089B2E38D9BB2002B3FF422AF00293FF488
:1035C0001FAF226802F10C0353E8003F23F490730D
:1035D0000C3242E800300028F3D1226802F11403D3
:1035E00053E8003F23F00103143242E80030002882
:1035F000F3D1202384F83E3000232363226802F1B4
:103600000C0353E8003F23F010030C3242E8003073
:103610000028F3D12046FFF758FEF1E62046FFF7D9
:10362000A5FCEDE62046FFF739FEE9E6BB320008CF
:10363000842801D0033070470020704708B500F09F
:1036400031FD002008BD2DE9F04387B004460F4648
:103650004569BDB18669AEB1D0F80480D0F800905C
:10366000B0F90800FFF7E4FF0296019500903B4691
:1036700022694946404600F0A5FC0590059807B030
:10368000BDE8F08365682668D4F81080B4F90800B6
:10369000FFF7CEFF05AB019300903B461FFA88F27F
:1036A0003146284600F0C9FC0128E7D00020E6E7B3
:1036B00008B500B9012000F03FFE002008BD00F170
:1036C000080343604FF0FF328260C3600361002350
:1036D0000360704700230361704743684B609A683A
:1036E0008A60516099600861036801330360704724
:1036F00030B40D68B5F1FF3F11D000F108031C464E
:103700005B681A68AA42FAD963684B6099608C605A
:103710006160086103680133036030BC704704696D
:10372000F2E70369416882688A60416851605A68BB
:10373000824206D0002202611A68013A1A601868B3
:10374000704782685A60F5E782B0002301930D4B01
:103750001B68B3F1FF3F08D04FF0500383F311888B
:10376000BFF36F8FBFF34F8FFEE74FF0500383F32C
:103770001188BFF36F8FBFF34F8F019B002BFCD0DD
:1037800002B070471400002008480068006880F309
:1037900008884FF0000080F3148862B661B6BFF36A
:1037A0004F8FBFF36F8F00DF00BF000008ED00E018
:1037B000DFF80C00016841F47001016070470000FF
:1037C00088ED00E04FF0807340F8043C21F00101E7
:1037D00040F8081C054B40F80C3C40F8202C6FF0DA
:1037E000020340F8243C4438704700BF49370008C2
:1037F000074B19680868B0E8F04F80F30988BFF3F9
:103800006F8F4FF0000080F311887047AFF3008096
:10381000B84900204FF0500383F31188BFF36F8F36
:10382000BFF34F8F0B4A136801331360012B00D095
:1038300070474FF0E023D3F8043D13F0FF0FF7D0AB
:103840004FF0500383F31188BFF36F8FBFF34F8F97
:10385000FEE700BF14000020094B1B6843B94FF07E
:10386000500383F31188BFF36F8FBFF34F8FFEE7D1
:10387000013B034A13600BB983F31188704700BF03
:103880001400002000000000000000000000000004
:10389000EFF30980BFF36F8F154B1A681EF0100FFE
:1038A00008BF20ED108A20E9F04F10602DE90900D3
:1038B0004FF0500080F31188BFF34F8FBFF36F8F2D
:1038C00000F060FD4FF0000080F3118809BC19681A
:1038D0000868B0E8F04F1EF0100F08BFB0EC108A77
:1038E00080F30988BFF36F8F704700BFAFF300808C
:1038F000B849002008B54FF0500383F31188BFF397
:103900006F8FBFF34F8F00F00FFC28B14FF0E02313
:103910004FF08052C3F8042D002383F3118808BDB3
:103920004FF0E022002313619361054B1B680549AA
:10393000A1FB03139B09013B5361072313617047EC
:1039400008000020D34D62104FF0E023D3F8002D83
:103950003D4B9A421CD04FF0E023D3F8002D3B4B57
:103960009A421ED030B583B0394B1A78D2B2019248
:10397000FF221A701B78DBB28DF803309DF80330FC
:1039800003F05003334A1370334B07221A601BE0D5
:103990004FF0500383F31188BFF36F8FBFF34F8F46
:1039A000FEE74FF0500383F31188BFF36F8FBFF32F
:1039B0004F8FFEE7284A1368013B13609DF80330E0
:1039C0005B00DBB28DF803309DF8033013F0800FFD
:1039D000F0D1214B1B68032B08D04FF0500383F329
:1039E0001188BFF36F8FBFF34F8FFEE71B021A4A98
:1039F000136003F4E0631360019BDBB2144A13709D
:103A00004FF0E024D4F8203D43F47003C4F8203D87
:103A1000D4F8203D43F07043C4F8203DFFF780FF09
:103A200000250E4B1D60FFF7C3FED4F8343F43F072
:103A30004043C4F8343FFFF7A7FE00F0A3FCFFF7B4
:103A400083FE284603B030BD71C20F4170C20F41E2
:103A500000E400E0900D0020940D002014000020F0
:103A6000124A12F0070F1ED0D11D21F00701C1F537
:103A7000705313440A460E4802600021416013440B
:103A8000083B23F007030B48036059601960991A3B
:103A900051601360084B1960084B1960084B4FF0D8
:103AA00000421A6070474FF47053E4E79C0D002009
:103AB000B0490020980D0020A4490020A049002012
:103AC0009C490020164B1A461B688342FBD3516861
:103AD00002EB010C844509D0416800EB010C634501
:103AE00009D00360904219D01060704740680144CB
:103AF00051601046F0E710B40A4C2468A3420BD082
:103B00005B681944416013681B680360904200D0F1
:103B100010605DF8044B70470460F7E7704700BF22
:103B2000B0490020980D002070B5054600F0F4FA69
:103B3000364B1B68A3B1364B1B681D424ED135B1C5
:103B4000083515F0070F02D025F007050835002DC0
:103B500046D0304B1B68AB4251D32F4A146804E067
:103B6000FFF77EFFE7E722461C466368AB4202D2BE
:103B70002368002BF7D1254B1B68A34241D0166860
:103B800008362368136063685B1B102B10D960191B
:103B900010F0070F08D04FF0500383F31188BFF3E4
:103BA0006F8FBFF34F8FFEE743606560FFF78AFFBB
:103BB000626818490B689B1A0B60184909688B42A8
:103BC00001D216490B60124B1B681343636000233C
:103BD0002360134A13680133136002E0002600E0FB
:103BE000002600F02DFB16F0070F0CD04FF050030D
:103BF00083F31188BFF36F8FBFF34F8FFEE700266B
:103C0000EFE70026EDE7304670BD00BF980D0020BD
:103C10009C490020A0490020B0490020A449002070
:103C2000A8490020002834D038B50446A0F1080582
:103C300050F8043C174A1268134208D14FF0500361
:103C400083F31188BFF36F8FBFF34F8FFEE750F8F8
:103C5000081C41B14FF0500383F31188BFF36F8FFD
:103C6000BFF34F8FFEE723EA020340F8043C00F065
:103C700053FA54F8041C084A13680B44136028468E
:103C8000FFF720FF054A13680133136000F0D8FAEC
:103C900038BD70479C490020A0490020AC49002055
:103CA000084B1B681B6823B9074B4FF0FF321A60A3
:103CB0007047044B1B68DB68DB685A68024B1A606C
:103CC000704700BFBC490020904A00202DE9F04712
:103CD00007469846089DDDF824900A9C266B02F161
:103CE0008042013A06EB820626F0070600293AD008
:103CF0008E464FF0000CBCF10F0F0BD81EF80C20B5
:103D000004EB0C0383F834201EF80C3013B10CF1D3
:103D1000010CF0E7002384F84330062D00D9062576
:103D2000E56265644FF0000AC4F848A0201DFFF763
:103D3000D1FC04F11800FFF7CDFC2461C5F10705A3
:103D4000A5616462C4F84CA084F850A0424639468C
:103D50003046FFF737FD2060B9F1000F01D0C9F8F8
:103D60000040BDE8F087002384F83430D5E7000038
:103D700038B5002407E004EB840293000E48184491
:103D8000FFF79DFC0134062CF5D90C4D2846FFF7B2
:103D900096FC0B4C2046FFF792FC0A48FFF78FFC7D
:103DA0000948FFF78CFC0948FFF789FC084B1D60A8
:103DB000084B1C6038BD00BFC4490020644A002085
:103DC000784A00209C4A0020C84A0020B44A0020BB
:103DD000BC490020C049002010B50446FFF71AFD79
:103DE000214A136801331360204B1B685BB1204BE1
:103DF0001B686BB91D4B1B68DA6AE36A9A4207D8E5
:103E00001A4B1C6004E0194B1C601368012B28D06E
:103E1000184A136801331360E06A01238340164A8D
:103E200011680B43136000EB8000211D134B03EB63
:103E30008000FFF752FCFFF70FFD0D4B1B687BB1B5
:103E40000A4B1B68DA6AE36A9A4209D24FF0E02310
:103E50004FF08052C3F8042DBFF34F8FBFF36F8F25
:103E600010BDFFF785FFD3E7504A0020B849002076
:103E7000B04A00205C4A0020604A0020C44900206B
:103E800010B5044690F8513063B1012B11D0022BCC
:103E90000ED04FF0500383F31188BFF36F8FBFF341
:103EA0004F8FFEE7006BFFF7BDFE2046FFF7BAFE1F
:103EB00010BDFFF7B7FEFBE70F4B1B68D3B110B582
:103EC000FFF7A8FC0D4BDB68DC68201DFFF729FC21
:103ED0000B4A1368013B1360074A1368013B1360E8
:103EE000FFF7BAFC2046FFF7CBFF034B1B68002B04
:103EF000E6D110BD704700BF544A0020C84A0020D8
:103F0000504A002008B5FFF7D7FF074B1B68012B6D
:103F1000F9D94FF0E0234FF08052C3F8042DBFF3DE
:103F20004F8FBFF36F8FEEE7C449002070B5044692
:103F30000D461D4B1E681D4B18680430FFF7F1FB42
:103F400050B91A4B1B68DA6A012303FA02F21849C6
:103F50000B6823EA02030B60B4F1FF3F0DD0344439
:103F6000124B1B685C60A64210D9124B18680F4BAD
:103F700019680431FFF7BCFB70BD002DEFD00B4B6F
:103F8000196804310C48FFF7A8FBF5E70B4B1868DC
:103F9000064B19680431FFF7ABFB094B1B68A342C2
:103FA000EAD9074B1C60E7E7DC4A0020B84900204B
:103FB000604A0020C0490020B44A0020BC490020CB
:103FC000904A002030B587B00B9C7CB10C9DB5B1F8
:103FD00054250495049D542D1AD04FF0500383F3BB
:103FE0001188BFF36F8FBFF34F8FFEE74FF0500381
:103FF00083F31188BFF36F8FBFF34F8FFEE74FF04E
:10400000500383F31188BFF36F8FBFF34F8FFEE729
:10401000049D0C9D2C63022485F8514000240394D8
:10402000029505AC01940A9C0094FFF74FFE0C9892
:10403000FFF7D2FE059807B030BD2DE9F04385B0FB
:104040000746884614461E469000FFF76DFD00B3F4
:1040500081465420FFF768FD0546B0B1C0F83090A6
:10406000E5B1002385F85130039302950D9B019330
:104070000C9B00933346224641463846FFF726FE06
:104080002846FFF7A9FE012005E04846FFF7CAFDD4
:10409000E6E74FF0FF3005B0BDE8F0834FF0FF30AA
:1040A000F9E7000010B588B000240594069407AA2B
:1040B00006A905A8FDF7ACFA059B0293069B0193A0
:1040C00000942346079A0E490E48FFF77BFF0E4BDC
:1040D000186090B14FF0500383F31188BFF36F8FD6
:1040E000BFF34F8F094B4FF0FF321A60084B01228C
:1040F0001A60084B1C60FFF727FC08B010BD00BF1A
:10410000C0A50008053F00088C4A0020904A002006
:10411000B04A0020DC4A0020024A136801331360D1
:10412000704700BF584A0020F8B53A4B1B68002B77
:1041300069D1394B1D6801351D60C5B9374B1B6806
:104140001B6843B14FF0500383F31188BFF36F8FA7
:10415000BFF34F8FFEE7314A1168314B186810608A
:104160001960304A136801331360FFF799FD2E4B35
:104170001B68AB423DD900272C4B1B68DB6A03EB65
:1041800083039A002A4B9B58012B00D90127294B06
:104190001B68002B3CD001273AE001271F4B1B680E
:1041A0001B6843B31D4B1B68DB68DC6863689D427A
:1041B00026D3261D3046FFF7B4FAA36A1BB104F1DB
:1041C0001800FFF7AEFAE36A01229A401A4908681C
:1041D00002430A6003EB83039A00314614481044FB
:1041E000FFF77BFAE26A114B1B68DB6A9A42D4D272
:1041F000D4E70027D2E70C4B4FF0FF321A60BBE741
:10420000094A1360B8E70D4A1368013313600027A9
:104210003846F8BD584A0020DC4A0020BC4900203E
:10422000C0490020944A0020904A0020B84900204C
:10423000C4490020E04A0020604A0020984A00203B
:1042400038B5354B1B6843B94FF0500383F31188E1
:10425000BFF36F8FBFF34F8FFEE7FFF7DBFA2E4BF5
:104260001A68013A1A601B68002B4FD12B4B1B6850
:104270000BB900244BE00024294B1B681BB3284BCF
:10428000DB68DC6804F11800FFF74BFA251D2846AF
:10429000FFF747FAE06A01238340224A11680B4383
:1042A000136000EB800029461F4B03EB8000FFF7F3
:1042B00014FAE26A1D4B1B68DB6A9A42DCD31C4B82
:1042C00001221A60D8E70CB1FFF7EAFC194B1C6811
:1042D00084B9174B1C68D4B14FF0E0234FF08052E3
:1042E000C3F8042DBFF34F8FBFF36F8F01240EE08F
:1042F000013C07D0FFF718FF0028F9D00C4B012232
:104300001A60F5E70B4B00221A60E2E70024FFF782
:10431000A3FA204638BD00BF584A0020504A00206A
:104320009C4A0020604A0020C4490020B84900206F
:10433000E04A0020984A002010B5A8B10446104B6E
:104340001B6843B14FF0500383F31188BFF36F8FA5
:10435000BFF34F8FFEE7FFF7DFFE00212046FFF798
:10436000E5FDFFF76DFF48B94FF0E0234FF08052B5
:10437000C3F8042DBFF34F8FBFF36F8F10BD00BF85
:10438000584A0020204B1B681BB1204B01221A60A9
:1043900070471E4B00221A601D4B1B68B3FA83F353
:1043A000DBB2C3F11F0303EB83018A0019498A586A
:1043B00042B94FF0500383F31188BFF36F8FBFF3FF
:1043C0004F8FFEE7134903EB830082000A445068D5
:1043D0004068506003EB830C4FEA8C0208321144B2
:1043E000884209D003EB83039A000A4B13445B68AD
:1043F000DA68094B1A607047406862469100054AC6
:104400000A445060EEE700BF584A0020E04A00200E
:10441000604A0020C4490020B8490020014B1868B8
:10442000704700BF1800002070B50D4E0D4D761B73
:10443000B61006D0002455F8043B01349847A64234
:10444000F9D1094E094D761B06F042F8B61006D098
:10445000002455F8043B01349847A642F9D170BDB9
:1044600088A9000888A9000890A9000888A9000860
:10447000830730B548D0541E002A3FD0CAB2034645
:1044800001E0013C3AD303F8012B9D07F9D1032C3D
:104490002DD9CDB245EA05250F2C45EA054536D97B
:1044A000A4F1100222F00F0C03F1200EE6444FEAB3
:1044B000121C03F1100242E9045542E90255103280
:1044C0007245F8D10CF1010214F00C0F03EB02124B
:1044D00004F00F0C13D0ACF1040323F003030433F6
:1044E000134442F8045B9342FBD10CF003042CB15B
:1044F000CAB21C4403F8012B9C42FBD130BD644678
:104500001346002CF4D1F9E703461446BFE71A46D8
:10451000A446E0E70FB400B5074983B004AB0868D0
:1045200053F8042B8168019300F00AF803B05DF89A
:1045300004EB04B0704700BF18000020000000002A
:104540002DE9F04F2DED0A8BCFB01C460AEE101A64
:1045500091460AEE900A054603F096F90368139314
:1045600018460994FCF78CFA12901DB1AB6B002B26
:1045700000F048821AEE102A536EDB0740F14781A3
:10458000B2F90C309AB2960409D41AEE101A43F418
:1045900000538B819AB24B6E23F400534B66150780
:1045A00040F1CC801AEE103A1B69002B00F0C68057
:1045B00002F01A030A2B00F0D2804D469FED9C7B3F
:1045C0002B78002425AACDE92344CDE91544CDE973
:1045D00017448DED107B1AEE909A0E94229290461D
:1045E00014940694002B00F0B081AB4604E01BF855
:1045F000013F002B00F0CD80252BF8D1BBEB050649
:1046000040F0CB809BF80030002B00F09E8100230F
:104610004FF0FF329BF801708DF86B3005930BF172
:10462000010B04929A462B2420210BF1010BA7F1D8
:1046300020035A2B00F20081DFE813F00A03FE008A
:10464000FE000503FE00FE00FE006A00FE00FE0004
:1046500076029E02FE008102A802FE00A3025B0019
:104660005B005B005B005B005B005B005B005B0072
:10467000FE00FE00FE00FE00FE00FE00FE008E01B9
:10468000FE001602ED018E018E018E01FE00FE007D
:10469000FE00FE000003FE00FE004502FE00FE00DC
:1046A000FE002002FE00C202FE00FE009907FE008E
:1046B000FE00FE00FE00FE00FE00FE00FE008E0179
:1046C000FE001602EF018E018E018E01E602EF015F
:1046D000E801FE00F302FE0086024702D402E80170
:1046E000FE0020027D007507FE00FE007907FE0037
:1046F0007D00A7F1300300221BF8017B02EB820250
:1047000003EB4202A7F13003092BF5D905928EE79E
:10471000484603F0B9F8436817931846FCF7B0F918
:1047200018900646484603F0AFF883681593202199
:10473000002E40F0E9869BF8007076E71AEE101A1A
:104740001AEE900A1AEE105A01F002FD002841F00C
:104750002783AA8902F01A030A2B7FF42EAF1AEEE0
:10476000101AB1F90E30002BFFF627AF4B6ED907A8
:1047700002D4920541F15A811AEE101A1AEE900AEB
:1047800023464A464FB0BDEC0A8BBDE8F04F01F01E
:104790009FBCBBEB050600F0D880249B33442493D8
:1047A000239B0133072BC8E90056239305DC08F14E
:1047B0000808069B3344069324E71AEE101A22AA2F
:1047C000484604F04DF890B90DF19408F1E71AEE5F
:1047D000101A22AA484604F043F8002800F0A680E8
:1047E000089B23B11AEE900A194602F023FF1AEE35
:1047F000102A536ED80740F1FA8093895A0601F1C6
:10480000D88206984FB0BDEC0A8BBDE8F08FB2F9A4
:104810000C309F059AB23FF5B6AE1AEE105AA86D4D
:1048200003F03AF8B5F90C309AB2ACE6AFF3008079
:104830000000000000000000002F00F08680002330
:104840008DF8D4708DF86B300122CDE907230392E7
:1048500004930C930F930D9335AD1AF002020A9254
:1048600002D0039A023203921AF084020B9205D10D
:10487000059A0399561A002E00F36883249C8BB185
:10488000239B0DF16B0201330134C8F80020072B84
:104890004FF0010224942393C8F8042000F39F836F
:1048A00008F108080A9B83B1239B1BAA0133023439
:1048B000C8F80020072B4FF0020224942393C8F875
:1048C000042000F3998308F108080B9B802B00F06B
:1048D0006A82049B079A9E1A002E00F3AB821AF498
:1048E000807F40F00682079BC8F804301C44239B5D
:1048F000C8F800500133072B2494239300F3198345
:1049000008F108081AF0040F05D0059B039A9D1AB8
:10491000002D00F38583DDE9052303998A42ACBFAE
:104920009B185B180693002C7FF451AF0023239350
:10493000089B1BB10899484602F07CFE0DF19408D3
:104940005D462B78002B7FF450AE249B002B41F06A
:104950001B82002323934AE7099B073323F00703B5
:10496000B3EC027B8DED107BDDE91012099322F090
:1049700000430BEE101A0BEE903A4FF0FF32B0EE00
:104980004B9AF0EE6B9AB74B51EC190BFCF780FB8E
:10499000002840F0E884B34B51EC190B4FF0FF3284
:1049A000FCF758FB002840F0DE84DDE9100100220E
:1049B0000023FCF745FB002840F067879DF86B302B
:1049C000A94DAA4A2AF0800A0321472FC8BF1546DD
:1049D000002208920391079104920C920F920D927B
:1049E000002B3FF43AAF039A0132039235E79389E3
:1049F00099053FF503AF1AEE104A906D02F04EFF95
:104A0000A389FBE6284602F01DFDB3E59BF8007084
:104A10004AF0200A09E64AF0100A1AF0200F099B12
:104A200000F04084073323F007031A465B6852F80E
:104A3000084B09921E46002BC0F24384049B0133AD
:104A400000F0BC822AF08003039354EA060340F08E
:104A5000B782049B002B40F0B882DDF80CA0002345
:104A6000049307934EAD1FE1099A002352F8041BEB
:104A70008DF86B308DF8D4100992E5E6099C54F856
:104A8000045B00268DF86B60002D00F08F85049B81
:104A90005A1C00F051861A4631462846FBF788FF1B
:104AA0000890002801F02F81089B0496591B07915C
:104AB00021EAE1719DF86B300994039108960C96F8
:104AC0000F960D968CE74AF0100A1AF0200600F0B7
:104AD000C983099B073323F007035E6853F8084B2B
:104AE00009932AF480630393002300228DF86B203E
:104AF000049A551C00F0C080039921F0800A54EA02
:104B0000060140F0B780002A40F00786002BA6D1AE
:104B1000039B13F00103079300F0148430238DF8F6
:104B200037310DF23715BFE0099B53F8042B05927E
:104B3000002A80F2D583059A0993524205929BF888
:104B400000704AF0040A70E51AF0200F40F0D1849A
:104B50001AF0100F40F0E7851AF0400F40F0A986D8
:104B60001AF4007F00F0DF85099B069953F8042BA7
:104B7000099311705D46E4E69BF800708DF86B4078
:104B800053E59BF800704AF0800A4EE55A4612F849
:104B9000017B2A2F01F06F82A7F13003092B934686
:104BA00098BF002201F2EC801BF8017B02EB82022D
:104BB00003EB4202A7F13003092BF5D9049236E545
:104BC0004AF010030393039B13F0200600F059836F
:104BD000099B073323F007035E6853F8084B0993DA
:104BE000012382E7099B53F8044B099330234AF0D1
:104BF000020278278DF86C301D4B149303928DF8C8
:104C00006D700026022370E79BF80070682F03BFC9
:104C10009BF801704AF4007A0BF1010B4AF0400A4C
:104C200003E59BF800706C2F03BF9BF801704AF0FE
:104C3000200A0BF1010B4AF0100AF6E49BF8007011
:104C40004AF0080AF1E49BF800704AF0010AECE42B
:104C50009DF86B30002B7FF46EAD9BF800708DF8E3
:104C60006B10E2E4FFFFEF7FCCA50008D0A50008A1
:104C7000DCA50008CDF80CA0012B00F0A181022BCF
:104C80004EAD20D1149A04F00F032409D35C05F82B
:104C9000013D44EA0674360954EA0603F3D14EABEB
:104CA0005B1BDDF80CA00793049907989DF86B3007
:104CB00081424FF00002B8BF0146089203910C9266
:104CC0000F920D928CE604F00703E40844EA467460
:104CD000F608303354EA06012A4605F8013DF2D1C0
:104CE0000399CC0700F175824EAB5B1B8A46079394
:104CF000DAE7652F40F3D780DDE9100100220023B9
:104D0000FCF794F9002800F0C681239BC14AC8F83B
:104D10000020013301340122072B24942393C8F887
:104D2000042000F3DE8408F108081C9B0E9A9342CD
:104D300080F2D182129B139A1C44C8E90023239B62
:104D400024940133072B239300F3228408F10808ED
:104D50000E9B5D1E002D7FF7D5AD102D239B41F3DB
:104D60006981AD4F0A97224610261AEE104A05E0D7
:104D700008F10808103D102D40F3C18401331032B2
:104D8000072BC8E90076CDE92332F1DD22AA2146BE
:104D9000484603F065FD00287FF422ADDDE92332AB
:104DA0000DF19408E6E7059B039A9E1A002E7FF703
:104DB00090AD102E239B41F33F8097490B952246DF
:104DC0001AEE105A0A910C4604E0103E102E08F11B
:104DD000080819DD013310321021072BCDE92332E9
:104DE000C8F80040C8F80410EFDD22AA294648465A
:104DF0000DF1940803F034FD00287FF4F1AC103E6F
:104E0000102EDDE92332E5DC0B9D144601330A9AAE
:104E1000C8F800203444072BCDE92334C8F80460D7
:104E200000F3A883049B079A9E1A002E08F1080835
:104E30007FF755AD102E239B40F30F8576480A90DF
:104E4000424621461AEE108A044604E0103E102E17
:104E500002F1080216DD013310311020072BCDE9D5
:104E6000233114605060F1DD22AA4146484603F028
:104E7000F7FC00287FF4B4AC103E102EDDE923319E
:104E800025AAE8DC90460C4601330A9AC8F80020AF
:104E90003444072BCDE92334C8F8046000F3D481EF
:104EA00008F108081BE50E9B012B40F37381239E3C
:104EB000C8F80050013601340123072E24942396AC
:104EC000C8F8043000F3968308F10808129B139A7F
:104ED00001361C44072EC8E90023CDE9236400F302
:104EE000978308F10808DDE9100100220023FCF790
:104EF0009DF8002840F07B810E9B0136013B013577
:104F00001C44072EC8F800502396C8F80430249497
:104F100000F3518108F10808169BC8F804300136E7
:104F20001C44072E1EABCDE92364C8F800307FF780
:104F3000E7AC1AEE101A22AA484603F091FC0028AA
:104F40007FF44EAC249C0DF19408DBE4102EDDE9D7
:104F5000233222DD199510241AEE105A04E0103E77
:104F6000102E08F1080817DD01332C491032072BE9
:104F7000C8E90014CDE92332F1DD22AA29464846CA
:104F80000DF1940803F06CFC00287FF429AC103E6E
:104F9000102EDDE92332E7DC199DC8F804600133E7
:104FA000B418072B1D4AC8F80020CDE9233400F3BC
:104FB0007D839DF86B3008F1080860E4CDF80CA003
:104FC0000A2C76F1000380F0318330340123DDF8C0
:104FD0000CA08DF8374107930DF2371564E61AEEF1
:104FE000101A22AA484603F03BFC00287FF4F8ABD5
:104FF000249C0DF1940855E41AEE101A22AA484692
:1050000003F02EFC00287FF4EBAB249C0DF19408F8
:105010005BE400BF0CA6000820A6000810A600084C
:10502000102D239B20DD1AEE107A102604E0103D8F
:10503000102D08F1080817DD0133AC4A1034072B96
:10504000C8E90026CDE92334F1DD22AA39464846D5
:105050000DF1940803F004FC00287FF4C1AB103D6F
:10506000102DDDE92334E7DC0133A04AC8F80450F1
:105070002C44072BCDE92334C8F800207FF74BAC34
:105080001AEE101A22AA484603F0EAFB00287FF421
:10509000A7AB249C3FE41C9A002A40F32B81DDE956
:1050A0000D739F42A8BF1F46002F0BDD239B0133CA
:1050B0003C44072BC8E900572494239300F3D5857B
:1050C00008F108080D9E002FA8BFF61B002E00F364
:1050D00044830D9B1AF4806F2B44079340F0E384C4
:1050E0001C9B0E9A934203DB1AF0010F00F0D2834F
:1050F000129A13991444C8E90012239A2494013295
:10510000072A239200F3BF8508F108080E9A079931
:10511000AE18761AD51AAE42A8BF2E46002E0DDD67
:10512000239BC8F8001001333444072BC8F80460EF
:105130002494239300F3098608F10808002EA8BFE1
:10514000AD1B002D7FF7DEAB102D239B40F3728744
:10515000674F0A97224610261AEE104A05E008F11A
:105160000808103D102D40F3CA8201331032072B7E
:10517000C8E90076CDE92332F1DD22AA214648466E
:1051800003F06EFB00287FF42BABDDE923320DF139
:105190009408E6E71AF0010F7FF489AE239EC8F861
:1051A0000050013601340123072E24942396C8F8B9
:1051B00004307FF7AFAE1AEE101A22AA484603F069
:1051C0004FFB00287FF40CABDDE923640DF194085C
:1051D000A2E6302B3FF463AD3023023A05F8013CE0
:1051E0004EAB9B1ADDF80CA0079315465CE50E9BB1
:1051F0005D1E002D7FF790AE102D40F321873C4AB5
:10520000CDF810A023461AEE10AA0A9210271446D1
:1052100005E008F10808103D102D40F3E382013647
:105220001033072EC8E90047CDE92363F1DD22AA38
:105230005146484603F014FB00287FF4D1AADDE96B
:1052400023630DF19408E6E71AEE101A22AA4846E5
:1052500003F006FB00287FF4C3AA249C0DF19408F8
:10526000FFF73DBB1AF0100340F03D811AF04002F9
:1052700000F0C882099A52F8044B09921E46A4B263
:105280002FE4039B13F0100366D1039A12F040023F
:1052900000F0C682099A52F8044B09921E46A4B245
:1052A000012322E453F8044B09931AF0100F4FD155
:1052B0001AF0400F48D044F3C036334624B2FFF70B
:1052C000BABB2D2364428DF86B3066EB4606CDF8F1
:1052D0000CA001230CE41AF0010F3FF413AB29E5F5
:1052E0009BF800700993FFF7A0B900BF10A6000853
:1052F00020A60008239BB649C8F8001001330134EA
:105300000121072B24942393C8F8041000F384840C
:1053100008F10808002A40F046820E9A0AF00103BC
:1053200013433FF4EFAA129B139A1C44C8E90023CD
:10533000239B24940133072B239300F3688308F104
:10534000080841E24EADAFE41AF4007F40F0AB82B2
:10535000E6173346FFF76FBB099B53F8044B0993DD
:105360000123FFF7C2BBDDE9100102460B46FBF744
:105370008FFE002840F02E86612F00F07F85412FA0
:1053800000F0A082049B013327F02003039300F078
:10539000C085472B00F0AB85DDE910014AF480722F
:1053A000002907924FF00003C0F2458441EC180B2E
:1053B0000A930893039B462B00F07484452B00F05E
:1053C0002585B0EE480AF0EE680A20AB01931DABCC
:1053D0000093049A1CAB0221484600F0C9FF039BCE
:1053E000472B054640F05E861AF0010F5646DDF861
:1053F0001CA040F0E384209B5B1B0E93039B472B78
:1054000000F01B83039B462B00F089841C9B0D93AB
:105410000D9B039A013B412A1C9300F0E985FAB2E7
:105420000021002BB8BF0D9B8DF87820BABFC3F1C7
:1054300001032D222B22092B8DF8792040F36D8555
:105440000DF18704DFF898C1224610468CFB03213A
:10545000DA17C2EBA10202EB8201A3EB410130316A
:1054600000F8011C19466329134600F1FF32ECDCF9
:105470003033D9B2831E9C4202F8011C40F20E86E2
:1054800013460DF17A0201E013F8011B02F8011B2B
:105490009C42F9D10DF189030DF17A021B1A1344D4
:1054A0001EAA9B1A16930E9B169A012B1A4407925A
:1054B00040F3B285079B129A13440793079A00237F
:1054C00026F4806622EAE27246F4807A0C93039214
:1054D0000F930D930A9B002B40F0DE8204939DF8FE
:1054E0006B30FFF77DBA099B53F8044B0993FFF724
:1054F000F8BA099B069853F8041B0993C217C1E92F
:1055000000025D46FFF71DBA159B002B3FF413A95F
:10551000159B1B78002B3FF40EA99BF800704AF4F2
:10552000806AFFF782B8CDF80CA0FFF74CBB294B7F
:1055300014931AF0200655D0099B073323F0070374
:105540005E6853F8084B09931AF0010F09D054EA2A
:10555000060306D030238DF86D704AF0020A8DF8EC
:105560006C302AF4806303930223FFF7BEBA1A4B10
:105570001493DEE71AEE101A22AA484603F070F9D7
:1055800000287FF42DA9249C0DF19408FFF7A1B900
:105590001AEE101A22AA484603F062F900287FF496
:1055A0001FA9249C0DF19408FFF7D2BB049A08951B
:1055B000062A294628BF062204952B460392074D4A
:1055C000099407920C910F910D91FFF709BA00BF52
:1055D0000CA60008DCA50008F0A5000804A6000839
:1055E000676666661AF0100370D0099B53F8044B87
:1055F0000993A9E71AEE101A22AA484603F030F9D7
:1056000000287FF4EDA8DDE923640DF194085DE442
:105610001AEE101A22AA484603F022F900287FF455
:10562000DFA8DDE923640DF194085CE4039B00220C
:1056300003F48063CDE9077809EE109A0DF59C7AA2
:10564000DDF85490174698460CE00023204631467A
:105650000A22FAF791FF0A2C76F100031CD30446C4
:105660000E46AA4620460A2200233146FAF784FF56
:1056700030320AF1FF3501370AF8012CB8F1000F7A
:10568000E3D099F800309F42DFD1FF2FDDD00A2C04
:1056900076F1000380F0E580CDF854900E97DDF8A8
:1056A0002080079F19EE109AFFF7F9BA1AEE101A28
:1056B00022AA484603F0D4F800287FF491A89DF868
:1056C0006B30249C0DF19408FFF7D9B81AF0400212
:1056D00000F0B680099A52F8044B09921E46A4B213
:1056E00032E71AEE101A22AA484603F0B9F8002849
:1056F0007FF476A8249C0DF19408FFF716BB14469E
:1057000001330A9AC8F800202C44072BC8F804502B
:10571000CDE923347FF7F4A80BE4012BCDF80CA0DE
:105720007FF4ADAA51E4099B069953F8042B5D461A
:1057300011600993FFF705B9284604960994FBF711
:105740009FF920EAE0719DF86B300790039108966D
:105750000C960F960D96FFF743B9102E239B40F33E
:105760009684BC480A90424621461AEE108A1027B9
:10577000044604E00832103E102E40F33B82013311
:105780001031072BC2E90047CDE92331F2DD22AA0F
:105790004146484603F064F800287FF421A8DDE97B
:1057A000233125AAE7E7129B13991C44C8E900138B
:1057B000239B24940133072B239300F3288108F1C2
:1057C0000808002AC0F2FD820E9AC8F80050013382
:1057D0001444072BCDE92334C8F804207FF790A8A0
:1057E000FFF7A7BBDDF810A01C4601360A9BC8F8DE
:1057F00000302C44072ECDE92364C8F804507FF70D
:1058000089ABD8E4099B1AF4007614BF53F8044B13
:1058100053F8044B09931CBF1646E4B2FFF761B975
:10582000039B13F40076099B14BF53F8044B53F801
:10583000044B09931CBF1646E4B20123FFF755B988
:10584000099B1AF4007614BF53F8044B53F8044B29
:1058500009931CBF1646E4B276E67E4A0A92FFF729
:1058600013BB189B1799ED1A1A46284602F08AFFB7
:1058700099F801300BB109F10109204631460A229D
:1058800000230027FAF778FEE9E62D238DF86B3028
:10589000FFF796B80E9A0799AE18761AD51AAE4247
:1058A000A8BF2E464AE444F3C016334664B2FFF75D
:1058B000C2B8099B069953F8042B099311805D46E1
:1058C000FFF73FB830238DF86C3058238DF86D30DA
:1058D000049B632B4AF0020400F3D5820023089353
:1058E00035ADDDE910124AF481730793002A27F0E1
:1058F0002003A2460393C0F29F81002342EC181BB1
:105900000A93612F00F04A83412F7FF453ADB0EE2C
:10591000480AF0EE680A1CA802F0A6FE00224FF02A
:105920007F5351EC100BFBF719F902460B4643EC81
:10593000192B00220023FBF779FB08B101231C93EC
:10594000454B0B93049B1995CDE90C7BCDE90EA833
:105950000CEE109ADDF82CB059EC198B5E1E2C461B
:1059600005E000220023013EFBF760FBE0B93B4B62
:10597000002240464946FBF7F1F889468046FBF78E
:105980009DFB0546FAF78EFD0B460246494640460A
:10599000FAF73AFC1BF80530A24604F8013B731CE9
:1059A000374680468946DCD149EC198B2C4BDDF813
:1059B0003C8051EC190B00223E461CEE109ADDE9AA
:1059C0000C7BCDF830A00D95DDF838A0199DFBF7C4
:1059D00055FB002840F0368251EC190B204B002279
:1059E000FBF724FB18B10D9BD90700F12B82002E89
:1059F000334606DB01332344302204F8012BA34253
:105A0000FBD1631B56460E93DDF81CA0F6E41AEE9C
:105A1000101A22AA484602F023FF00287EF4E0AEC6
:105A2000DDE923341C9A0DF19408CAE61AEE103A07
:105A3000986D01F033FFFEF79FBE1C9B0D93DA1C9F
:105A400002DB049A93420DDD023F27F0200303930B
:105A5000DEE400BF20A60008F0A5000800003040EA
:105A60000000E03FDDE90D329342C0F27F81F00794
:105A700040F19182129A13440793710503D50D9B4F
:105A8000002B00F35A82079B23EAE37303936727F3
:105A900000230C930F931DE52D2300228DF86B300E
:105AA0000492FEF7A0BF0E9BCDF828B0DDF83CB005
:105AB000079E159FCDF81CA0EB1804934246DDF815
:105AC00060A00C9B0B951AEE108AA446BBF1000F48
:105AD00030D0002B71D1013F0BF1FF3B179BC2E986
:105AE000003A239B0133D444072BCDF890C0239375
:105AF00067DC0832049B38789B1B8342A8BF0346AF
:105B0000002B1C460BDD239801309C440728C2E97A
