:020000040800F2
:10000000000002204D0A00080D0A00080F0A00082F
:10001000110A0008130A0008150A00080000000071
:100020000000000000000000000000005120000857
:10003000170A000800000000F12000085521000800
:100040009D0A00089D0A00089D0A00089D0A0008F4
:100050009D0A00089D0A00089D0A00089D0A0008E4
:100060009D0A00089D0A00089D0A00089D0A0008D4
:100070009D0A00089D0A00089D0A00089D0A0008C4
:100080009D0A00089D0A00089D0A00089D0A0008B4
:100090009D0A00089D0A00089D0A00089D0A0008A4
:1000A0009D0A00089D0A00089D0A00089D0A000894
:1000B0009D0A00089D0A00089D0A00089D0A000884
:1000C0009D0A00089D0A00089D0A00089D0A000874
:1000D0009D0A0008190A00089D0A00089D0A0008E8
:1000E0009D0A00089D0A00089D0A00089D0A000854
:1000F0009D0A00089D0A00089D0A00089D0A000844
:100100009D0A00089D0A00089D0A00089D0A000833
:100110009D0A00089D0A0008290A00089D0A000897
:100120009D0A00089D0A00089D0A00089D0A000813
:100130009D0A00089D0A00089D0A00089D0A000803
:100140009D0A00089D0A00089D0A00089D0A0008F3
:100150009D0A00089D0A00089D0A00089D0A0008E3
:100160009D0A00089D0A00089D0A00089D0A0008D3
:100170009D0A00089D0A00089D0A00080000000072
:080180009D0A00089D0A000819
:1001900010B5054C237833B9044B13B10448AFF3C1
:1001A00000800123237010BD3C04002000000000EB
:1001B000482E000808B5034B1BB103490348AFF3B1
:1001C000008008BD0000000040040020482E000808
:1001D00053B94AB9002908BF00281CBF4FF0FF31AE
:1001E0004FF0FF3000F074B9ADF1080C6DE904CEAA
:1001F00000F006F8DDF804E0DDE9022304B0704702
:100200002DE9F047089D04468E46002B4DD18A42C9
:10021000944669D9B2FA82F252B101FA02F3C2F1FC
:10022000200120FA01F10CFA02FC41EA030E94408D
:100230004FEA1C48210CBEFBF8F61FFA8CF708FBAE
:1002400016E341EA034306FB07F199420AD91CEB86
:10025000030306F1FF3080F01F81994240F21C81B8
:10026000023E63445B1AA4B2B3FBF8F008FB103300
:1002700044EA034400FB07F7A7420AD91CEB040435
:1002800000F1FF3380F00A81A74240F20781644405
:10029000023840EA0640E41B00261DB1D44000238A
:1002A000C5E900433146BDE8F0878B4209D9002DEE
:1002B00000F0EF800026C5E9000130463146BDE878
:1002C000F087B3FA83F6002E4AD18B4202D38242E2
:1002D00000F2F980841A61EB030301209E46002D91
:1002E000E0D0C5E9004EDDE702B9FFDEB2FA82F2E6
:1002F000002A40F09280A1EB0C014FEA1C471FFA44
:100300008CFE0126200CB1FBF7F307FB131140EA2A
:1003100001410EFB03F0884208D91CEB010103F1F7
:10032000FF3802D2884200F2CB804346091AA4B2B9
:10033000B1FBF7F007FB101144EA01440EFB00FE8D
:10034000A64508D91CEB040400F1FF3102D2A645F2
:1003500000F2BB800846A4EB0E0440EA03409CE791
:10036000C6F12007B34022FA07FC4CEA030C20FA3E
:1003700007F401FA06F31C43F9404FEA1C4900FA5E
:1003800006F3B1FBF9F8200C1FFA8CFE09FB1811DB
:1003900040EA014108FB0EF0884202FA06F20BD94E
:1003A0001CEB010108F1FF3A80F08880884240F29E
:1003B0008580A8F102086144091AA4B2B1FBF9F0E2
:1003C00009FB101144EA014100FB0EFE8E4508D9DD
:1003D0001CEB010100F1FF346CD28E456AD9023862
:1003E000614440EA0840A0FB0294A1EB0E01A14247
:1003F000C846A64656D353D05DB1B3EB080261EBB5
:100400000E0101FA07F722FA06F3F1401F43C5E98E
:10041000007100263146BDE8F087C2F12003D840C4
:100420000CFA02FC21FA03F3914001434FEA1C4706
:100430001FFA8CFEB3FBF7F007FB10360B0C43EAF8
:10044000064300FB0EF69E4204FA02F408D91CEBA8
:10045000030300F1FF382FD29E422DD902386344A6
:100460009B1B89B2B3FBF7F607FB163341EA034146
:1004700006FB0EF38B4208D91CEB010106F1FF3895
:1004800016D28B4214D9023E6144C91A46EA00468C
:1004900038E72E46284605E70646E3E61846F8E61E
:1004A0004B45A9D2B9EB020864EB0C0E0138A3E767
:1004B0004646EAE7204694E74046D1E7D0467BE748
:1004C000023B614432E7304609E76444023842E7C0
:1004D000704700BF034B0360034B0B608023136026
:1004E000704700BF580600205804002030B58BB07C
:1004F00000240594069407940894099401941E4BD3
:100500001A6B42F002021A631A6B02F002020192A5
:10051000019A02941A6B42F040021A631A6B02F0BD
:1005200040020292029A03941A6B42F001021A638B
:100530001A6B02F001020392039A04941A6B42F0C0
:1005400080021A631B6B03F080030493049B0B4D22
:1005500022464FF40061284600F076FC4FF4006319
:100560000593012306930794089405A9284600F0F3
:1005700079FB0BB030BD00BF00380240001C0240C8
:1005800008B5012001F0C0FCFBE708B5012001F02F
:10059000BBFCFBE708B5012001F0B6FCFBE700005F
:1005A00008B50268034B9A4200D008BD00F092FAE9
:1005B000FBE700BF0010004072B6FEE708B50E482A
:1005C0000E4B03604FF48273436000238360C3606B
:1005D00002220261012242614FF4007282613822DC
:1005E000C2610362436283620A23C36200F074FF44
:1005F00000B908BDFFF7E0FFB80600200030014059
:1006000008B50A480A4B03604FF4E1334360002306
:100610008360C36003610C2242618361C36101F0A6
:1006200039FA00B908BDFFF7C7FF00BF1007002067
:100630000010014008B50A480A4B03604FF4E1334B
:10064000436000238360C36003610C2242618361C5
:10065000C36101F01FFA00B908BDFFF7ADFF00BF8D
:10066000540700200014014000B595B0302200214D
:1006700008A802F027FB0023039304930593069335
:1006800007930193204A116C41F080511164126C60
:1006900002F080520192019A02931C4B1A6842F4B4
:1006A00080421A601B6803F480430293029B01237B
:1006B00008934FF48033099302230E934FF4800282
:1006C0000F9206221092A8221192129304231393E0
:1006D00008A800F0BFFB98B90F23039302230493EB
:1006E000002305934FF4A05306934FF480530793D0
:1006F000052103A800F0FCFD20B915B05DF804FB4E
:10070000FFF75AFFFFF758FF003802400070004023
:1007100000B597B000F0C4F9FFF7A6FFFFF7E6FEBB
:10072000FFF74CFFFFF76CFFFFF784FF1C4C0DF148
:100730003C0CA646BEE80F00ACE80F009EE80700A0
:100740008CE8070000210FA801F0A9FB154B1860E9
:100750000DF1200C04F11C0EBEE80F00ACE80F00F8
:100760009EE807008CE80700002108A801F097FB2D
:100770000D4B18600DF1040E04F1380CBCE80F00AD
:10078000AEE80F009CE807008EE80700002101A8F2
:1007900001F085FB054B186001F07CFBFEE700BF14
:1007A000602E0008B4060020AC060020B006002031
:1007B00000B583B0002200920D4B596C41F480418A
:1007C0005964596C01F48041009100990192196CAF
:1007D00041F0805119641B6C03F080530193019B1D
:1007E0000F216FF0010000F099F903B05DF804FBF0
:1007F0000038024000B589B00023039304930593A9
:10080000069307930268154B9A4202D009B05DF82F
:1008100004FB0021019103F584335A6C42F48052A9
:100820005A645A6C02F480520192019A02911A6B36
:1008300042F002021A631B6B03F002030293029B55
:10084000382303930223049303230693052307937A
:1008500003A9034800F006FAD8E700BF00300140C2
:1008600000040240F0B58BB0002305930693079374
:10087000089309930368364A934204D0354A934259
:1008800041D00BB0F0BD00240094334B5A6C42F0C1
:1008900010025A645A6C02F010020092009A0194FD
:1008A0001A6B42F002021A631A6B02F00202019202
:1008B000019A02941A6B42F001021A631B6B03F057
:1008C00001030293029B80230593022706970326C8
:1008D00008960725099505A9204800F0C3F94FF4AB
:1008E00000730593069707940896099505A91C4877
:1008F00000F0B8F922460521252000F00FF9252047
:1009000000F044F9BDE700210391134B5A6C42F00B
:1009100020025A645A6C02F020020392039A049156
:100920001A6B42F040021A631B6B03F040030493FE
:10093000049B4FF4844305930223069303230893F7
:100940000823099305A9074800F08CF999E700BF2F
:100950000010014000140140003802400004024031
:10096000000002400018024030B589B00446002360
:100970000193214B1A6C42F010021A641B6C03F0B5
:1009800010030193019B02A903A800F087FD069BB9
:10099000CBB900F063FD03461848A0FB03239B0C72
:1009A000013B1748174A026040F2E732C2604360D9
:1009B000002303618360836100F058FF054630B176
:1009C000284609B030BD00F049FD4300E4E70C487B
:1009D00000F0E2FD05460028F2D1362000F0D6F8FE
:1009E0000F2C01D90125EBE700222146362000F02B
:1009F00095F8054B1C60E3E70038024083DE1B439B
:100A0000980700200010004008000020FEE7FEE7E5
:100A1000FEE7FEE7FEE7704708B5024801F0F4F88C
:100A200008BD00BF1007002008B5024800F0FCFD1B
:100A300008BD00BF98070020034AD2F8883043F46D
:100A40007003C2F88830704700ED00E0DFF834D062
:100A50000D480E490E4A002302E0D458C450043316
:100A6000C4188C42F9D30B4A0B4C002301E01360ED
:100A70000432A242FBD3FFF7DFFF02F0FFF8FFF7DB
:100A800047FE704700000220000000203C040020C8
:100A9000182F00083C0400203C450020FEE7000021
:100AA00008B50B4B1A6842F400721A601A6842F4D7
:100AB00080621A601A6842F480721A60032000F0A3
:100AC0001BF80F20FFF750FFFFF772FE002008BD54
:100AD000003C0240034A1168034B1B780B4413602F
:100AE000704700BFE007002004000020014B186899
:100AF000704700BFE0070020074AD36823F4E06393
:100B00001B041B0C000200F4E060034343F0BF63CE
:100B100043F40033D360704700ED00E000B5194B9B
:100B2000DB68C3F30223C3F1070CBCF1040F28BF39
:100B30004FF0040C03F1040EBEF1060F18D9033B6D
:100B40004FF0FF3E0EFA0CFC21EA0C0199400EFA20
:100B500003F322EA0303194300280BDB0901C9B29E
:100B600000F1604000F5614080F800135DF804FB7F
:100B70000023E5E700F00F000901C9B2024B195448
:100B8000F4E700BF00ED00E014ED00E0002807DB13
:100B900000F01F02400901239340024A42F820302E
:100BA000704700BF00E100E070B50446866DFFF7B6
:100BB0009DFF94F83530DBB2022B06D080236365AD
:100BC000002384F83430012070BD05462268136884
:100BD00023F0160313602268536923F080035361E6
:100BE000236CE3B12268136823F0080313602268C2
:100BF000136823F00103136023681B6813F0010FCF
:100C000011D0FFF773FF431B052BF5D92023636534
:100C1000032084F83500002384F83430D4E7A36C33
:100C2000002BDFD1E3E7E26D3F239340B360012364
:100C300084F83530002084F83400C5E790F835306A
:100C4000DBB2022B03D080234365012070470523CC
:100C500080F835300268136823F001031360002028
:100C60007047000000230F2B00F2E48070B582B0C3
:100C700060E085685E000324B44025EA0405CC6882
:100C8000B4402C438460456825EA02054C68C4F3EF
:100C900000129A402A4342605AE0DC08083450F8B7
:100CA000246003F0070295000F22AA4026EA020EF4
:100CB0000A69AA4042EA0E0240F824205CE00722BA
:100CC00000E0002202FA0EF22A4302345A4D45F89F
:100CD00024205A4A94686FEA0C0224EA0C054E68F4
:100CE00016F4801F01D04CEA0405544CA560E4685A
:100CF00002EA04054E6816F4001F01D04CEA040510
:100D00004E4CE560646802EA04054E6816F4003F44
:100D100001D04CEA0405494C6560246822404D68C6
:100D200015F4803F01D04CEA0402444C22600133A8
:100D30000F2B7DD801229A400C6804EA020C32EA9B
:100D40000404F4D14C6804F00304013C012C90D954
:100D50004A6802F00302032A09D0C4685D00032236
:100D6000AA4024EA02048A68AA402243C2604A6870
:100D700002F00302022A90D004684FEA430E0322D5
:100D800002FA0EF224EA02044A6802F0030202FAAE
:100D90000EF2224302604A6812F4403FC7D000229C
:100DA0000192274A546C44F480445464526C02F417
:100DB00080420192019A9C08A51C1F4A52F82550B6
:100DC00003F003024FEA820E0F2202FA0EF225EA26
:100DD00002051C4A90423FF474AF02F580629042D3
:100DE0001AD002F58062904218D002F580629042DB
:100DF00016D002F58062904214D002F580629042D3
:100E000012D002F58062904210D002F580629042CA
:100E10003FF455AF082255E7012253E7022251E77C
:100E200003224FE704224DE705224BE7062249E75C
:100E300002B070BD704700BF00380140003C014067
:100E400000380240000002400AB181617047090485
:100E500081617047002800F0E08170B582B00446DF
:100E6000036813F0010F3BD09F4B9B6803F00C030A
:100E7000042B2CD09C4B9B6803F00C03082B21D037
:100E80006368B3F5803F4FD0B3F5A02F52D0964B97
:100E90001A6822F480321A601A6822F480221A60DA
:100EA0006368002B50D0FFF721FE05468E4B1B6870
:100EB00013F4003F14D1FFF719FE401B6428F5D945
:100EC0000320B1E1884B5B6813F4800FD8D0864BC8
:100ED0001B6813F4003F03D06368002B00F09F8170
:100EE000236813F0020F54D07F4B9B6813F00C0F54
:100EF0003ED07D4B9B6803F00C03082B33D0E36896
:100F0000002B68D0794B01221A60FFF7EFFD0546F0
:100F1000754B1B6813F0020F54D1FFF7E7FD401B20
:100F20000228F5D903207FE16F4A136843F4803328
:100F30001360B5E76C4B1A6842F480221A601A6895
:100F400042F480321A60ABE7FFF7D0FD0546664BEE
:100F50001B6813F4003FC3D0FFF7C8FD401B642893
:100F6000F5D9032060E1604B5B6813F4800FC6D1B4
:100F70005D4B1B6813F0020F03D0E368012B40F0B8
:100F80005081594A136823F0F803216943EAC103E9
:100F90001360236813F0080F42D063696BB3534B9F
:100FA0000122C3F8802EFFF7A1FD05464E4B5B6F73
:100FB00013F0020F34D1FFF799FD401B0228F5D939
:100FC000032031E1484A136823F0F803216943EA1A
:100FD000C1031360DDE7454B00221A60FFF786FD71
:100FE0000546414B1B6813F0020FD2D0FFF77EFD80
:100FF000401B0228F5D9032016E13C4B0022C3F820
:10100000802EFFF773FD0546374B5B6F13F0020F21
:1010100006D0FFF76BFD401B0228F5D9032003E142
:10102000236813F0040F77D02F4B1B6C13F0805FF5
:1010300033D1002301932C4B1A6C42F080521A6476
:101040001B6C03F080530193019B0125284B1B6807
:1010500013F4807F23D0A368012B34D0052B38D024
:10106000214B1A6F22F001021A671A6F22F0040254
:101070001A67A368002B3DD0FFF738FD06461A4BD0
:101080001B6F13F0020F46D1FFF730FD801B41F2BA
:1010900088339842F3D90320C6E00025D6E7144AE6
:1010A000136843F480731360FFF720FD0646104B6E
:1010B0001B6813F4807FCED1FFF718FD801B022838
:1010C000F5D90320B0E0084A136F43F0010313671A
:1010D000CFE7054B1A6F42F004021A671A6F42F00D
:1010E00001021A67C5E700BF00380240000047420E
:1010F00000700040FFF7FAFC0646524B1B6F13F0DE
:10110000020F08D0FFF7F2FC801B41F288339842AF
:10111000F3D9032088E0EDB9A369002B00F08380A8
:10112000484A926802F00C02082A51D0022B17D0CC
:10113000454B00221A66FFF7D9FC0446414B1B6859
:1011400013F0007F42D0FFF7D1FC001B0228F5D935
:10115000032069E03B4A136C23F080531364DBE700
:10116000394B00221A66FFF7C1FC0546354B1B6858
:1011700013F0007F06D0FFF7B9FC401B0228F5D919
:10118000032051E0E369226A1343626A43EA82134F
:10119000A26A5208013A43EA0243E26A43EA02635E
:1011A000284A5360284B01221A66FFF79FFC044629
:1011B000244B1B6813F0007F06D1FFF797FC001B40
:1011C0000228F5D903202FE000202DE000202BE09D
:1011D000012B2BD01B4B5B6803F48001E269914229
:1011E00026D103F03F02216A8A4223D1616A47F681
:1011F000C0721A40B2EB811F1ED103F44031A26AC3
:101200005208013AB1EB024F18D103F07063E26A61
:10121000B3EB026F14D1002006E0012070470120DB
:1012200002E0012000E0002002B070BD0120FBE7D9
:101230000120F9E70120F7E70120F5E70120F3E7B6
:101240000120F1E7003802400000474208B5254B75
:101250009B6803F00C03042B3FD0082B3FD1214B9C
:101260005A6802F03F025B6813F4800F12D01D4BE6
:101270005968C1F388111C480023A1FB0001FEF747
:10128000A7FF184B5B68C3F3014301335B00B0FB5E
:10129000F3F025E0134B5968C1F3881C4FEA4C1159
:1012A000B1EB0C006EEB0E0E4FEA8E1343EA906327
:1012B0008101091A63EB0E03DB0043EA5173C90095
:1012C00011EB0C0C43F10003990200234FEA8C2030
:1012D00041EA9C51FEF77CFFD3E7034800E0034856
:1012E00008BD00BF00380240001BB7000024F40016
:1012F000002800F09B8070B50D4604464F4B1B68DC
:1013000003F007038B4208D2CBB24C4A1370136828
:1013100003F007038B4240F08B80236813F0020F29
:1013200017D013F0040F04D0454A936843F4E053F8
:101330009360236813F0080F04D0414A936843F484
:10134000604393603E4A936823F0F003A1680B4327
:101350009360236813F0010F32D06368012B21D012
:101360009A1E012A25D9364A126812F0020F61D05E
:1013700033498A6822F0030213438B60FFF7B6FB00
:1013800006462F4B9B6803F00C036268B3EB820F99
:1013900016D0FFF7ABFB801B41F288339842F0D99F
:1013A000032042E0264A126812F4003FE0D10120F7
:1013B0003BE0234A126812F0007FD9D1012034E0CB
:1013C0001E4B1B6803F00703AB4207D9EAB21B4B65
:1013D0001A701B6803F00703AB422DD1236813F08A
:1013E000040F06D0164A936823F4E053E1680B43D8
:1013F0009360236813F0080F07D0114A936823F411
:101400006043216943EAC1039360FFF71FFF0C4B60
:101410009B68C3F303130B4AD35CD8400A4B186094
:101420000A4B1868FFF7A0FA002070BD0120704732
:101430000120FAE70120F8E70120F6E7003C02402E
:1014400000380240E02E00080000002008000020C4
:10145000014B1868704700BF0000002008B5FFF777
:10146000F7FF044B9B68C3F38223034AD35CD84045
:1014700008BD00BF00380240F02E000808B5FFF795
:10148000E7FF044B9B68C3F34233034AD35CD84065
:1014900008BD00BF00380240F02E00080F23036093
:1014A0000B4B9A6802F0030242609A6802F0F00265
:1014B00082609A6802F4E052C2609B68DB0803F421
:1014C000E0530361034B1B6803F007030B60704795
:1014D00000380240003C024000285AD010B50446B3
:1014E000436A33B94368B3F5827F05D00023C361F3
:1014F00002E00023036143610023A36294F85130AA
:10150000002B40D0022384F851302268136823F066
:1015100040031360636803F48273A26802F4044218
:101520001343E26802F400621343226902F00202EC
:101530001343626902F001021343A26902F40072CC
:101540001343E26902F038021343226A02F0800278
:101550001343A26A02F40052216813430B60638BA9
:1015600003F00403626A02F01002216813434B6027
:101570002268D36923F40063D361002060650123EE
:1015800084F8513010BD84F850302046FFF732F90E
:10159000B8E701207047704790F83D30DBB2012B6F
:1015A00037D1022380F83D300268D36843F001034D
:1015B000D3600368194A934220D0B3F1804F1DD005
:1015C000A2F57C42934219D002F58062934215D075
:1015D00002F58062934211D002F5784293420DD019
:1015E00002F57052934209D0A2F59432934205D08D
:1015F0001A6842F001021A60002070479A6802F0EF
:101600000702062A07D01A6842F001021A60002079
:101610007047012070470020704700BF0000014064
:10162000704770477047704710B5044603681A69E1
:1016300012F0020F11D0DA6812F0020F0DD06FF025
:1016400002021A610123037703689B6913F0030FF9
:1016500070D0FFF7E6FF0023237723681A6912F0A2
:10166000040F12D0DA6812F0040F0ED06FF00402EB
:101670001A610223237723689B6913F4407F5FD0AC
:101680002046FFF7CEFF0023237723681A6912F064
:10169000080F12D0DA6812F0080F0ED06FF00802AF
:1016A0001A61042323772368DB6913F0030F4ED0FC
:1016B0002046FFF7B6FF0023237723681A6912F04C
:1016C000100F12D0DA6812F0100F0ED06FF0100267
:1016D0001A61082323772368DB6913F4407F3DD028
:1016E0002046FFF79EFF0023237723681A6912F034
:1016F000010F03D0DA6812F0010F36D123681A699E
:1017000012F0800F03D0DA6812F0800F34D1236812
:101710001A6912F0400F03D0DA6812F0400F32D18C
:1017200023681A6912F0200F03D0DA6812F0200F34
:1017300030D110BDFFF774FF2046FFF773FF8AE733
:101740002046FFF76DFF2046FFF76CFF9BE7204622
:10175000FFF766FF2046FFF765FFACE72046FFF77F
:101760005FFF2046FFF75EFFBDE76FF001021A61E1
:101770002046FEF715FFC1E76FF080021A61204690
:1017800000F0A1F8C3E76FF040021A612046FFF7AE
:101790004AFFC5E76FF020021A61204600F092F878
:1017A000C7E700000368304A904212D0B0F1804F82
:1017B0000FD0A2F57C4290420BD002F5806290429D
:1017C00007D002F58062904203D002F57842904241
:1017D00003D123F070034A681343234A90422AD06E
:1017E000B0F1804F27D0A2F57C42904223D002F581
:1017F000806290421FD002F5806290421BD002F5B9
:101800007842904217D002F57052904213D002F500
:10181000806290420FD002F5806290420BD0A2F518
:101820009832904207D002F58062904203D002F5D0
:101830008062904203D123F44073CA68134323F0BB
:1018400080034A69134303608B68C3620B68836239
:10185000054B984203D003F58063984201D10B6990
:1018600003630123436170470000014040B310B59A
:10187000044690F83D30F3B1022384F83D30214610
:1018800051F8040BFFF78EFF012384F8463084F8EB
:101890003E3084F83F3084F8403084F8413084F89A
:1018A000423084F8433084F8443084F8453084F87A
:1018B0003D30002010BD80F83C30FFF76CFEDBE7C8
:1018C0000120704770477047026802F10C0353E82B
:1018D000003F23F490730C3242E800310029F3D129
:1018E000026802F1140353E8003F23F001031432AD
:1018F00042E800310029F3D1036B012B05D02023EE
:1019000080F83E30002303637047026802F10C0345
:1019100053E8003F23F010030C3242E80031002965
:10192000F3D1ECE790F83D30DBB2212B01D002205F
:1019300070478368B3F5805F17D0036A5A1C026250
:101940001A7803685A60C38C9BB2013B9BB2C38474
:101950004BB90268D36823F08003D3600268D36870
:1019600043F04003D360002070470369002BE4D1AB
:10197000036A1B880268C3F308035360036A0233D7
:101980000362E0E738B504460268136923F4405364
:10199000C1680B43136183680269134342691343AF
:1019A000C2691A430168CB6823F4164323F00C0381
:1019B0001343CB600268536923F4407381690B437E
:1019C00053610368314A934206D002F58062934224
:1019D00002D0FFF743FD01E0FFF750FDE369B3F5E7
:1019E000004F29D00021031849411B1841F1000183
:1019F000C90041EA5371DB00181863684FEA83029B
:101A00004FEA937341F10001FEF7E2FB204DA5FB85
:101A100000325109642303FB11031B013233A5FB80
:101A200003235B0903F0F00202EB011203F00F0342
:101A3000216813448B6038BD0023021843EB030177
:101A4000121841F10001C90041EA5271D200101888
:101A500041F10001626892185B41FEF7B9FB0C4D41
:101A6000A5FB00325109642303FB1103DB00323371
:101A7000A5FB03235B095A0002F4F87202EB011282
:101A800003F00703216813448B60D4E70010014082
:101A90001F85EB5158B310B5044690F83D300BB399
:101AA000242384F83D302268D36823F40053D360A4
:101AB0002046FFF767FF2268136923F49043136100
:101AC0002268536923F02A0353612268D36843F4E0
:101AD0000053D36000202064202384F83D3084F834
:101AE0003E3010BD80F83C30FEF7BCFED8E7012048
:101AF0007047704708B50168CA6822F04002CA60A2
:101B0000202280F83D20FFF7F4FF002008BD704739
:101B1000704708B5806B0023C385C384FFF7F8FFC7
:101B200008BD704790F83E30DBB2222B67D1836846
:101B3000B3F5805F4DD0826AB3F5805F04D0002B8F
:101B400054D10369002B51D103685B681370836A19
:101B500001338362C38D9BB2013B9BB2C385002BD3
:101B60004FD100B583B00268D36823F02003D3605F
:101B70000268D36823F48073D3600268536923F04A
:101B800001035361202380F83E30036B012B33D1D6
:101B900000230363026802F10C0353E8003F23F0C3
:101BA00010030C3242E800310029F3D103681A68AF
:101BB00012F0100F06D0002201921A6801925B68A1
:101BC0000193019B818DFFF7ACFF002003B05DF80E
:101BD00004FB0269002AAED1826A03685B68C3F322
:101BE00008031380836A02338362B3E703685B6888
:101BF00003F07F031370AAE7FFF789FFE5E70220F0
:101C0000704700207047000030B583B0044602687A
:101C10001368D068516913F00F0505D113F0200F38
:101C200002D010F0200F19D12DB111F0010119D1FE
:101C300010F4907F16D1216B01297DD013F0800F15
:101C400003D010F0800F40F0158113F0400F03D047
:101C500010F0400F40F0128103B030BD2046FFF776
:101C600061FFF9E713F0010F06D010F4807F03D075
:101C7000226C42F00102226413F0040F04D019B167
:101C8000226C42F00202226413F0020F04D019B158
:101C9000226C42F00402226413F0080F07D010F007
:101CA000200F00D119B1226C42F008022264226C8C
:101CB000002AD1D013F0200F02D010F0200F29D12C
:101CC00023685B6903F04003226C12F0080F00D117
:101CD00063B32046FFF7F8FD23685B6913F0400FFC
:101CE00020D0226802F1140353E8003F23F04003A0
:101CF000143242E800310029F3D1A36B73B1614A79
:101D00001A65A06BFEF79AFF0028A5D0A06B036DA3
:101D10009847A1E72046FFF705FFD1E72046FFF7E8
:101D2000F7FE99E72046FFF7F3FE95E72046FFF719
:101D3000EFFE002323648FE713F0100F3FF47EAF14
:101D400010F0100F3FF47AAF002301931368019352
:101D500053680193019B536913F0400F50D0A26B5D
:101D600013685B689BB2002B3FF476AFA18D99425C
:101D70007FF672AFE385D369B3F5807F37D02268F1
:101D800002F10C0353E8003F23F480730C3242E865
:101D900000310029F3D1226802F1140353E8003F17
:101DA00023F00103143242E800310029F3D1226804
:101DB00002F1140353E8003F23F04003143242E8D9
:101DC00000310029F3D1202384F83E30002323631F
:101DD000226802F10C0353E8003F23F010030C3299
:101DE00042E800310029F3D1A06BFEF7DDFEA18DA2
:101DF000E38D9BB2C91A89B22046FFF792FE2BE70A
:101E0000A18DE38D9BB2C91A89B2E38D9BB2002BE1
:101E10003FF422AF00293FF41FAF226802F10C0308
:101E200053E8003F23F490730C3242E8003000285E
:101E3000F3D1226802F1140353E8003F23F00103B9
:101E4000143242E800300028F3D1202384F83E30D9
:101E500000232363226802F10C0353E8003F23F0C0
:101E600010030C3242E800300028F3D12046FFF77F
:101E700058FEF1E62046FFF755FDEDE62046FFF758
:101E800039FEE9E6131B0008842801D003307047AF
:101E90000020704708B500F035FD002008BD2DE991
:101EA000F04387B004460F464569BDB18669AEB1BF
:101EB000D0F80480D0F80090B0F90800FFF7E4FFF4
:101EC0000296019500903B4622694946404600F043
:101ED000A9FC0590059807B0BDE8F0836568266801
:101EE000D4F81080B4F90800FFF7CEFF05AB0193DA
:101EF00000903B461FFA88F23146284600F0CDFCA0
:101F00000128E7D00020E6E708B500B9012000F07D
:101F100043FE002008BD00F1080343604FF0FF328C
:101F20008260C36003610023036070470023036184
:101F3000704743684B609A688A6051609960086195
:101F4000036801330360704730B40D68B5F1FF3F9B
:101F500011D000F108031C465B681A68AA42FAD93E
:101F600063684B6099608C6061600861036801334D
:101F7000036030BC70470469F2E703694168826816
:101F80008A60416851605A68824206D0002202612C
:101F90001A68013A1A601868704782685A60F5E753
:101FA00082B0002301930D4B1B68B3F1FF3F08D0B3
:101FB0004FF0500383F31188BFF36F8FBFF34F8F40
:101FC000FEE74FF0500383F31188BFF36F8FBFF329
:101FD0004F8F019B002BFCD002B070470C000020FB
:101FE00008480068006880F308884FF0000080F31C
:101FF000148862B661B6BFF34F8FBFF36F8F00DFF7
:1020000000BF000008ED00E0DFF80C00016841F4BB
:10201000700101607047000088ED00E04FF08073B0
:1020200040F8043C21F0010140F8081C054B40F841
:102030000C3C40F8202C6FF0020340F8243C44385C
:10204000704700BFA11F0008000000000000000052
:10205000074B19680868B0E8F04F80F30988BFF3B0
:102060006F8F4FF0000080F311887047AFF300804E
:102070000C4400204FF0500383F31188BFF36F8F9F
:10208000BFF34F8F0B4A136801331360012B00D04D
:1020900070474FF0E023D3F8043D13F0FF0FF7D063
:1020A0004FF0500383F31188BFF36F8FBFF34F8F4F
:1020B000FEE700BF0C000020094B1B6843B94FF03E
:1020C000500383F31188BFF36F8FBFF34F8FFEE789
:1020D000013B034A13600BB983F31188704700BFBB
:1020E0000C000020000000000000000000000000C4
:1020F000EFF30980BFF36F8F154B1A681EF0100FB6
:1021000008BF20ED108A20E9F04F10602DE909008A
:102110004FF0500080F31188BFF34F8FBFF36F8FE4
:1021200000F060FD4FF0000080F3118809BC1968D1
:102130000868B0E8F04F1EF0100F08BFB0EC108A2E
:1021400080F30988BFF36F8F704700BFAFF3008043
:102150000C44002008B54FF0500383F31188BFF3FF
:102160006F8FBFF34F8F00F00FFC28B14FF0E023CB
:102170004FF08052C3F8042D002383F3118808BD6B
:102180004FF0E022002313619361054B1B68054962
:10219000A1FB03139B09013B5361072313617047A4
:1021A00000000020D34D62104FF0E023D3F8002D43
:1021B0003D4B9A421CD04FF0E023D3F8002D3B4B0F
:1021C0009A421ED030B583B0394B1A78D2B2019200
:1021D000FF221A701B78DBB28DF803309DF80330B4
:1021E00003F05003334A1370334B07221A601BE08D
:1021F0004FF0500383F31188BFF36F8FBFF34F8FFE
:10220000FEE74FF0500383F31188BFF36F8FBFF3E6
:102210004F8FFEE7284A1368013B13609DF8033097
:102220005B00DBB28DF803309DF8033013F0800FB4
:10223000F0D1214B1B68032B08D04FF0500383F3E0
:102240001188BFF36F8FBFF34F8FFEE71B021A4A4F
:10225000136003F4E0631360019BDBB2144A137054
:102260004FF0E024D4F8203D43F47003C4F8203D3F
:10227000D4F8203D43F07043C4F8203DFFF780FFC1
:1022800000250E4B1D60FFF7BFFED4F8343F43F02E
:102290004043C4F8343FFFF7A3FE00F0A3FCFFF770
:1022A0007FFE284603B030BD71C20F4170C20F419E
:1022B00000E400E0E4070020E80700200C00002014
:1022C000124A12F0070F1ED0D11D21F00701C1F5EF
:1022D000705313440A460E480260002141601344C3
:1022E000083B23F007030B48036059601960991AF3
:1022F00051601360084B1960084B1960084B4FF090
:1023000000421A6070474FF47053E4E7F007002072
:1023100004440020EC070020F8430020F443002090
:10232000F0430020164B1A461B688342FBD35168CA
:1023300002EB010C844509D0416800EB010C6345B8
:1023400009D00360904219D0106070474068014482
:1023500051601046F0E710B40A4C2468A3420BD039
:102360005B681944416013681B680360904200D0A9
:1023700010605DF8044B70470460F7E7704700BFDA
:1023800004440020EC07002070B5054600F0F4FA84
:10239000364B1B68A3B1364B1B681D424ED135B17D
:1023A000083515F0070F02D025F007050835002D78
:1023B00046D0304B1B68AB4251D32F4A146804E01F
:1023C000FFF77EFFE7E722461C466368AB4202D276
:1023D0002368002BF7D1254B1B68A34241D0166818
:1023E00008362368136063685B1B102B10D96019D3
:1023F00010F0070F08D04FF0500383F31188BFF39C
:102400006F8FBFF34F8FFEE743606560FFF78AFF72
:10241000626818490B689B1A0B60184909688B425F
:1024200001D216490B60124B1B68134363600023F3
:102430002360134A13680133136002E0002600E0B2
:10244000002600F02DFB16F0070F0CD04FF05003C4
:1024500083F31188BFF36F8FBFF34F8FFEE7002622
:10246000EFE70026EDE7304670BD00BFEC07002027
:10247000F0430020F443002004440020F8430020EF
:10248000FC430020002834D038B50446A0F10805EC
:1024900050F8043C174A1268134208D14FF0500319
:1024A00083F31188BFF36F8FBFF34F8FFEE750F8B0
:1024B000081C41B14FF0500383F31188BFF36F8FB5
:1024C000BFF34F8FFEE723EA020340F8043C00F01D
:1024D00053FA54F8041C084A13680B441360284646
:1024E000FFF720FF054A13680133136000F0D8FAA4
:1024F00038BD7047F0430020F44300200044002022
:10250000084B1B681B6823B9074B4FF0FF321A605A
:102510007047044B1B68DB68DB685A68024B1A6023
:10252000704700BF10440020E44400202DE9F0472C
:1025300007469846089DDDF824900A9C266B02F118
:102540008042013A06EB820626F0070600293AD0BF
:102550008E464FF0000CBCF10F0F0BD81EF80C206C
:1025600004EB0C0383F834201EF80C3013B10CF18B
:10257000010CF0E7002384F84330062D00D906252E
:10258000E56265644FF0000AC4F848A0201DFFF71B
:10259000CDFC04F11800FFF7C9FC2461C5F1070563
:1025A000A5616462C4F84CA084F850A04246394644
:1025B0003046FFF733FD2060B9F1000F01D0C9F8B4
:1025C0000040BDE8F087002384F83430D5E70000F0
:1025D00038B5002407E004EB840293000E48184449
:1025E000FFF799FC0134062CF5D90C4D2846FFF76E
:1025F00092FC0B4C2046FFF78EFC0A48FFF78BFC41
:102600000948FFF788FC0948FFF785FC084B1D6067
:10261000084B1C6038BD00BF18440020B84400209F
:10262000CC440020F04400201C4500200845002038
:10263000104400201444002010B50446FFF71AFD92
:10264000214A136801331360204B1B685BB1204B98
:102650001B686BB91D4B1B68DA6AE36A9A4207D89C
:102660001A4B1C6004E0194B1C601368012B28D026
:10267000184A136801331360E06A01238340164A45
:1026800011680B43136000EB8000211D134B03EB1B
:102690008000FFF74EFCFFF70FFD0D4B1B687BB171
:1026A0000A4B1B68DA6AE36A9A4209D24FF0E023C8
:1026B0004FF08052C3F8042DBFF34F8FBFF36F8FDD
:1026C00010BDFFF785FFD3E7A44400200C44002091
:1026D00004450020B0440020B444002018440020E9
:1026E00010B5044690F8513063B1012B11D0022B84
:1026F0000ED04FF0500383F31188BFF36F8FBFF3F9
:102700004F8FFEE7006BFFF7BDFE2046FFF7BAFED6
:1027100010BDFFF7B7FEFBE70F4B1B68D3B110B539
:10272000FFF7A8FC0D4BDB68DC68201DFFF725FCDC
:102730000B4A1368013B1360074A1368013B13609F
:10274000FFF7BAFC2046FFF7CBFF034B1B68002BBB
:10275000E6D110BD704700BFA84400201C450020F2
:10276000A444002008B5FFF7D7FF074B1B68012BD7
:10277000F9D94FF0E0234FF08052C3F8042DBFF396
:102780004F8FBFF36F8FEEE71844002070B50446FB
:102790000D461D4B1E681D4B18680430FFF7EDFBFE
:1027A00050B91A4B1B68DA6A012303FA02F218497E
:1027B0000B6823EA02030B60B4F1FF3F0DD03444F1
:1027C000124B1B685C60A64210D9124B18680F4B65
:1027D00019680431FFF7B8FB70BD002DEFD00B4B2B
:1027E000196804310C48FFF7A4FBF5E70B4B186898
:1027F000064B19680431FFF7A7FB094B1B68A3427E
:10280000EAD9074B1C60E7E7304500200C44002064
:10281000B444002014440020084500201044002047
:10282000E444002030B587B00B9C7CB10C9DB5B161
:1028300054250495049D542D1AD04FF0500383F372
:102840001188BFF36F8FBFF34F8FFEE74FF0500338
:1028500083F31188BFF36F8FBFF34F8FFEE74FF005
:10286000500383F31188BFF36F8FBFF34F8FFEE7E1
:10287000049D0C9D2C63022485F851400024039490
:10288000029505AC01940A9C0094FFF74FFE0C984A
:10289000FFF7D2FE059807B030BD2DE9F04385B0B3
:1028A0000746884614461E469000FFF76DFD00B3AC
:1028B00081465420FFF768FD0546B0B1C0F830905E
:1028C000E5B1002385F85130039302950D9B0193E8
:1028D0000C9B00933346224641463846FFF726FEBE
:1028E0002846FFF7A9FE012005E04846FFF7CAFD8C
:1028F000E6E74FF0FF3005B0BDE8F0834FF0FF3062
:10290000F9E7000010B588B000240594069407AAE2
:1029100006A905A8FDF7DEFD059B0293069B019322
:1029200000942346079A0E490E48FFF77BFF0E4B93
:10293000186090B14FF0500383F31188BFF36F8F8D
:10294000BFF34F8F094B4FF0FF321A60084B012243
:102950001A60084B1C60FFF727FC08B010BD00BFD1
:10296000F82E000865270008E0440020E444002019
:102970000445002030450020024A136801331360EB
:10298000704700BFAC440020F8B53A4B1B68002BE1
:1029900069D1394B1D6801351D60C5B9374B1B68BE
:1029A0001B6843B14FF0500383F31188BFF36F8F5F
:1029B000BFF34F8FFEE7314A1168314B1868106042
:1029C0001960304A136801331360FFF799FD2E4BED
:1029D0001B68AB423DD900272C4B1B68DB6A03EB1D
:1029E00083039A002A4B9B58012B00D90127294BBE
:1029F0001B68002B3CD001273AE001271F4B1B68C6
:102A00001B6843B31D4B1B68DB68DC6863689D4231
:102A100026D3261D3046FFF7B0FAA36A1BB104F196
:102A20001800FFF7AAFAE36A01229A401A490868D7
:102A300002430A6003EB83039A00314614481044B2
:102A4000FFF777FAE26A114B1B68DB6A9A42D4D22D
:102A5000D4E70027D2E70C4B4FF0FF321A60BBE7F8
:102A6000094A1360B8E70D4A136801331360002761
:102A70003846F8BDAC44002030450020104400200A
:102A800014440020E8440020E44400200C440020CA
:102A90001844002034450020B4440020EC440020B9
:102AA00038B5354B1B6843B94FF0500383F3118899
:102AB000BFF36F8FBFF34F8FFEE7FFF7DBFA2E4BAD
:102AC0001A68013A1A601B68002B4FD12B4B1B6808
:102AD0000BB900244BE00024294B1B681BB3284B87
:102AE000DB68DC6804F11800FFF747FA251D28466B
:102AF000FFF743FAE06A01238340224A11680B433F
:102B0000136000EB800029461F4B03EB8000FFF7AA
:102B100010FAE26A1D4B1B68DB6A9A42DCD31C4B3D
:102B200001221A60D8E70CB1FFF7EAFC194B1C68C8
:102B300084B9174B1C68D4B14FF0E0234FF080529A
:102B4000C3F8042DBFF34F8FBFF36F8F01240EE046
:102B5000013C07D0FFF718FF0028F9D00C4B0122E9
:102B60001A60F5E70B4B00221A60E2E70024FFF73A
:102B7000A3FA204638BD00BFAC440020A444002086
:102B8000F0440020B4440020184400200C440020ED
:102B900034450020EC44002010B5A8B10446104B89
:102BA0001B6843B14FF0500383F31188BFF36F8F5D
:102BB000BFF34F8FFEE7FFF7DFFE00212046FFF750
:102BC000E5FDFFF76DFF48B94FF0E0234FF080526D
:102BD000C3F8042DBFF34F8FBFF36F8F10BD00BF3D
:102BE000AC440020204B1B681BB1204B01221A6013
:102BF00070471E4B00221A601D4B1B68B3FA83F30B
:102C0000DBB2C3F11F0303EB83018A0019498A5821
:102C100042B94FF0500383F31188BFF36F8FBFF3B6
:102C20004F8FFEE7134903EB830082000A4450688C
:102C30004068506003EB830C4FEA8C020832114469
:102C4000884209D003EB83039A000A4B13445B6864
:102C5000DA68094B1A607047406862469100054A7D
:102C60000A445060EEE700BFAC4400203445002029
:102C7000B4440020184400200C44002070B50D4ED0
:102C80000D4D761BB61006D0002455F8043B0134D8
:102C90009847A642F9D1094E094D761B00F0D4F8A9
:102CA000B61006D0002455F8043B01349847A642DC
:102CB000F9D170BD0C2F00080C2F0008142F00084C
:102CC0000C2F0008830730B548D0541E002A3FD08F
:102CD000CAB2034601E0013C3AD303F8012B9D0739
:102CE000F9D1032C2DD9CDB245EA05250F2C45EAA3
:102CF000054536D9A4F1100222F00F0C03F1200E85
:102D0000E6444FEA121C03F1100242E9045542E97D
:102D1000025510327245F8D10CF1010214F00C0F7B
:102D200003EB021204F00F0C13D0ACF1040323F0F8
:102D300003030433134442F8045B9342FBD10CF0C9
:102D400003042CB1CAB21C4403F8012B9C42FBD1F2
:102D500030BD64461346002CF4D1F9E7034614460F
:102D6000BFE71A46A446E0E7024B13B1024800F061
:102D700005B8704700000000892D000800230146B7
:102D80001A46184600F01AB838B5084B084D5B1BB8
:102D90009C1007D0043B1D44013C55F8043998476A
:102DA000002CF9D1BDE8384000F054B8182F0008C5
:102DB000142F0008704700BF704700BF2DE9F0478F
:102DC000DFF880A00646DAF8000098460F469146E4
:102DD000FFF7F0FF1A4B1B68D3F8484124B365682E
:102DE0001F2D26DC5EB96B1C0235DAF8000063602B
:102DF00044F82570FFF7E0FF0020BDE8F08704EB02
:102E000085010123C1F88890D4F88821AB401A438A
:102E1000022EC4F88821C1F80881E4D1D4F88C21AD
:102E20001343C4F88C31DEE703F5A674C3F84841B8
:102E3000D5E7DAF80000FFF7BFFF4FF0FF30DCE71F
:102E4000002F000838040020F8B500BFF8BC08BC0B
:102E50009E467047F8B500BFF8BC08BC9E46704758
:102E6000B42E0008810500080000000000000000EA
:102E7000800000000000000000000000C02E0008DC
:102E80008B0500080000000000000000800000002A
:102E90000000000000000000D02E0008950500088A
:102EA000FFFF0000000000008000000000000000A4
:102EB0000000000064656661756C745461736B009A
:102EC000626D6930383870726F636573730000002B
:102ED00064656275675F6F757470757400000000DB
:102EE00000000000000000000102030406070809BA
:102EF000000000000102030449444C4500000000AA
:042F0000100000209D
:082F0400FCD2FF7F0100000078
:082F0C00692D0008B501000861
:042F1400910100081F
:102F18000024F4000100000010000000AAAAAAAAD8
:102F280000000000FC02002064030020CC03002005
:102F38000000000000000000000000000000000089
:102F48000000000000000000000000000000000079
:102F58000000000000000000000000000000000069
:102F68000000000000000000000000000000000059
:102F78000000000000000000000000000000000049
:102F88000000000000000000000000000000000039
:102F98000000000000000000000000000000000029
:102FA8000000000000000000000000000000000019
:102FB8000000000000000000000000000000000009
:102FC80000000000000000000100000000000000F8
:102FD8000E33CDAB34126DE6ECDE05000B000000BD
:102FE80000000000000000000000000000000000D9
:102FF80000000000000000000000000000000000C9
:1030080000000000000000000000000000000000B8
:1030180000000000000000000000000000000000A8
:0C334800000000000000000038450020DC
:0400000508000A4D98
:00000001FF
